{
  "_format": "hh-sol-artifact-1",
  "contractName": "GeneratorCopyright",
  "sourceName": "contracts/utils/GeneratorCopyright.sol",
  "abi": [
    {
      "inputs": [
        {
          "internalType": "string",
          "name": "version_",
          "type": "string"
        }
      ],
      "stateMutability": "nonpayable",
      "type": "constructor"
    },
    {
      "inputs": [],
      "name": "generator",
      "outputs": [
        {
          "internalType": "string",
          "name": "",
          "type": "string"
        }
      ],
      "stateMutability": "pure",
      "type": "function"
    },
    {
      "inputs": [],
      "name": "version",
      "outputs": [
        {
          "internalType": "string",
          "name": "",
          "type": "string"
        }
      ],
      "stateMutability": "view",
      "type": "function"
    }
  ],
  "bytecode": "0x608060405234801561001057600080fd5b506040516103883803806103888339818101604052602081101561003357600080fd5b810190808051604051939291908464010000000082111561005357600080fd5b90830190602082018581111561006857600080fd5b825164010000000081118282018810171561008257600080fd5b82525081516020918201929091019080838360005b838110156100af578181015183820152602001610097565b50505050905090810190601f1680156100dc5780820380516001836020036101000a031916815260200191505b50604052505081516100f6915060009060208401906100fd565b505061019e565b828054600181600116156101000203166002900490600052602060002090601f0160209004810192826101335760008555610179565b82601f1061014c57805160ff1916838001178555610179565b82800160010185558215610179579182015b8281111561017957825182559160200191906001019061015e565b50610185929150610189565b5090565b5b80821115610185576000815560010161018a565b6101db806101ad6000396000f3fe608060405234801561001057600080fd5b50600436106100365760003560e01c806354fd4d501461003b5780637afa1eed146100b8575b600080fd5b6100436100c0565b6040805160208082528351818301528351919283929083019185019080838360005b8381101561007d578181015183820152602001610065565b50505050905090810190601f1680156100aa5780820380516001836020036101000a031916815260200191505b509250505060405180910390f35b610043610156565b60008054604080516020601f600260001961010060018816150201909516949094049384018190048102820181019092528281526060939092909183018282801561014c5780601f106101215761010080835404028352916020019161014c565b820191906000526020600020905b81548152906001019060200180831161012f57829003601f168201915b5050505050905090565b60606040518060600160405280602f8152602001610177602f913990509056fe68747470733a2f2f766974746f6d696e61636f72692e6769746875622e696f2f65726332302d67656e657261746f72a264697066735822122037cff1c92c45de4aa7efe6c8ba892a7f39ed3a8b977ae3585336af6d136a1dde64736f6c63430007060033",
  "linkReferences": {},
  "deployedLinkReferences": {}
}