{
  "_format": "hh-sol-artifact-1",
  "contractName": "ERC1363",
  "sourceName": "erc-payable-token/contracts/token/ERC1363/ERC1363.sol",
  "abi": [
    {
      "inputs": [
        {
          "internalType": "string",
          "name": "name",
          "type": "string"
        },
        {
          "internalType": "string",
          "name": "symbol",
          "type": "string"
        }
      ],
      "stateMutability": "nonpayable",
      "type": "constructor"
    },
    {
      "anonymous": false,
      "inputs": [
        {
          "indexed": true,
          "internalType": "address",
          "name": "owner",
          "type": "address"
        },
        {
          "indexed": true,
          "internalType": "address",
          "name": "spender",
          "type": "address"
        },
        {
          "indexed": false,
          "internalType": "uint256",
          "name": "value",
          "type": "uint256"
        }
      ],
      "name": "Approval",
      "type": "event"
    },
    {
      "anonymous": false,
      "inputs": [
        {
          "indexed": true,
          "internalType": "address",
          "name": "from",
          "type": "address"
        },
        {
          "indexed": true,
          "internalType": "address",
          "name": "to",
          "type": "address"
        },
        {
          "indexed": false,
          "internalType": "uint256",
          "name": "value",
          "type": "uint256"
        }
      ],
      "name": "Transfer",
      "type": "event"
    },
    {
      "inputs": [
        {
          "internalType": "address",
          "name": "owner",
          "type": "address"
        },
        {
          "internalType": "address",
          "name": "spender",
          "type": "address"
        }
      ],
      "name": "allowance",
      "outputs": [
        {
          "internalType": "uint256",
          "name": "",
          "type": "uint256"
        }
      ],
      "stateMutability": "view",
      "type": "function"
    },
    {
      "inputs": [
        {
          "internalType": "address",
          "name": "spender",
          "type": "address"
        },
        {
          "internalType": "uint256",
          "name": "amount",
          "type": "uint256"
        }
      ],
      "name": "approve",
      "outputs": [
        {
          "internalType": "bool",
          "name": "",
          "type": "bool"
        }
      ],
      "stateMutability": "nonpayable",
      "type": "function"
    },
    {
      "inputs": [
        {
          "internalType": "address",
          "name": "spender",
          "type": "address"
        },
        {
          "internalType": "uint256",
          "name": "amount",
          "type": "uint256"
        }
      ],
      "name": "approveAndCall",
      "outputs": [
        {
          "internalType": "bool",
          "name": "",
          "type": "bool"
        }
      ],
      "stateMutability": "nonpayable",
      "type": "function"
    },
    {
      "inputs": [
        {
          "internalType": "address",
          "name": "spender",
          "type": "address"
        },
        {
          "internalType": "uint256",
          "name": "amount",
          "type": "uint256"
        },
        {
          "internalType": "bytes",
          "name": "data",
          "type": "bytes"
        }
      ],
      "name": "approveAndCall",
      "outputs": [
        {
          "internalType": "bool",
          "name": "",
          "type": "bool"
        }
      ],
      "stateMutability": "nonpayable",
      "type": "function"
    },
    {
      "inputs": [
        {
          "internalType": "address",
          "name": "account",
          "type": "address"
        }
      ],
      "name": "balanceOf",
      "outputs": [
        {
          "internalType": "uint256",
          "name": "",
          "type": "uint256"
        }
      ],
      "stateMutability": "view",
      "type": "function"
    },
    {
      "inputs": [],
      "name": "decimals",
      "outputs": [
        {
          "internalType": "uint8",
          "name": "",
          "type": "uint8"
        }
      ],
      "stateMutability": "view",
      "type": "function"
    },
    {
      "inputs": [
        {
          "internalType": "address",
          "name": "spender",
          "type": "address"
        },
        {
          "internalType": "uint256",
          "name": "subtractedValue",
          "type": "uint256"
        }
      ],
      "name": "decreaseAllowance",
      "outputs": [
        {
          "internalType": "bool",
          "name": "",
          "type": "bool"
        }
      ],
      "stateMutability": "nonpayable",
      "type": "function"
    },
    {
      "inputs": [
        {
          "internalType": "address",
          "name": "spender",
          "type": "address"
        },
        {
          "internalType": "uint256",
          "name": "addedValue",
          "type": "uint256"
        }
      ],
      "name": "increaseAllowance",
      "outputs": [
        {
          "internalType": "bool",
          "name": "",
          "type": "bool"
        }
      ],
      "stateMutability": "nonpayable",
      "type": "function"
    },
    {
      "inputs": [],
      "name": "name",
      "outputs": [
        {
          "internalType": "string",
          "name": "",
          "type": "string"
        }
      ],
      "stateMutability": "view",
      "type": "function"
    },
    {
      "inputs": [
        {
          "internalType": "bytes4",
          "name": "interfaceId",
          "type": "bytes4"
        }
      ],
      "name": "supportsInterface",
      "outputs": [
        {
          "internalType": "bool",
          "name": "",
          "type": "bool"
        }
      ],
      "stateMutability": "view",
      "type": "function"
    },
    {
      "inputs": [],
      "name": "symbol",
      "outputs": [
        {
          "internalType": "string",
          "name": "",
          "type": "string"
        }
      ],
      "stateMutability": "view",
      "type": "function"
    },
    {
      "inputs": [],
      "name": "totalSupply",
      "outputs": [
        {
          "internalType": "uint256",
          "name": "",
          "type": "uint256"
        }
      ],
      "stateMutability": "view",
      "type": "function"
    },
    {
      "inputs": [
        {
          "internalType": "address",
          "name": "recipient",
          "type": "address"
        },
        {
          "internalType": "uint256",
          "name": "amount",
          "type": "uint256"
        }
      ],
      "name": "transfer",
      "outputs": [
        {
          "internalType": "bool",
          "name": "",
          "type": "bool"
        }
      ],
      "stateMutability": "nonpayable",
      "type": "function"
    },
    {
      "inputs": [
        {
          "internalType": "address",
          "name": "recipient",
          "type": "address"
        },
        {
          "internalType": "uint256",
          "name": "amount",
          "type": "uint256"
        }
      ],
      "name": "transferAndCall",
      "outputs": [
        {
          "internalType": "bool",
          "name": "",
          "type": "bool"
        }
      ],
      "stateMutability": "nonpayable",
      "type": "function"
    },
    {
      "inputs": [
        {
          "internalType": "address",
          "name": "recipient",
          "type": "address"
        },
        {
          "internalType": "uint256",
          "name": "amount",
          "type": "uint256"
        },
        {
          "internalType": "bytes",
          "name": "data",
          "type": "bytes"
        }
      ],
      "name": "transferAndCall",
      "outputs": [
        {
          "internalType": "bool",
          "name": "",
          "type": "bool"
        }
      ],
      "stateMutability": "nonpayable",
      "type": "function"
    },
    {
      "inputs": [
        {
          "internalType": "address",
          "name": "sender",
          "type": "address"
        },
        {
          "internalType": "address",
          "name": "recipient",
          "type": "address"
        },
        {
          "internalType": "uint256",
          "name": "amount",
          "type": "uint256"
        }
      ],
      "name": "transferFrom",
      "outputs": [
        {
          "internalType": "bool",
          "name": "",
          "type": "bool"
        }
      ],
      "stateMutability": "nonpayable",
      "type": "function"
    },
    {
      "inputs": [
        {
          "internalType": "address",
          "name": "sender",
          "type": "address"
        },
        {
          "internalType": "address",
          "name": "recipient",
          "type": "address"
        },
        {
          "internalType": "uint256",
          "name": "amount",
          "type": "uint256"
        },
        {
          "internalType": "bytes",
          "name": "data",
          "type": "bytes"
        }
      ],
      "name": "transferFromAndCall",
      "outputs": [
        {
          "internalType": "bool",
          "name": "",
          "type": "bool"
        }
      ],
      "stateMutability": "nonpayable",
      "type": "function"
    },
    {
      "inputs": [
        {
          "internalType": "address",
          "name": "sender",
          "type": "address"
        },
        {
          "internalType": "address",
          "name": "recipient",
          "type": "address"
        },
        {
          "internalType": "uint256",
          "name": "amount",
          "type": "uint256"
        }
      ],
      "name": "transferFromAndCall",
      "outputs": [
        {
          "internalType": "bool",
          "name": "",
          "type": "bool"
        }
      ],
      "stateMutability": "nonpayable",
      "type": "function"
    }
  ],
  "bytecode": "0x60806040523480156200001157600080fd5b50604051620014f9380380620014f9833981810160405260408110156200003757600080fd5b81019080805160405193929190846401000000008211156200005857600080fd5b9083019060208201858111156200006e57600080fd5b82516401000000008111828201881017156200008957600080fd5b82525081516020918201929091019080838360005b83811015620000b85781810151838201526020016200009e565b50505050905090810190601f168015620000e65780820380516001836020036101000a031916815260200191505b50604052602001805160405193929190846401000000008211156200010a57600080fd5b9083019060208201858111156200012057600080fd5b82516401000000008111828201881017156200013b57600080fd5b82525081516020918201929091019080838360005b838110156200016a57818101518382015260200162000150565b50505050905090810190601f168015620001985780820380516001836020036101000a031916815260200191505b50604052505082518391508290620001b8906003906020850190620002a1565b508051620001ce906004906020840190620002a1565b50506005805460ff1916601217905550620001f06301ffc9a760e01b6200021c565b62000202634bbee2df60e01b6200021c565b62000214637dcf646760e11b6200021c565b50506200034d565b6001600160e01b031980821614156200027c576040805162461bcd60e51b815260206004820152601c60248201527f4552433136353a20696e76616c696420696e7465726661636520696400000000604482015290519081900360640190fd5b6001600160e01b0319166000908152600660205260409020805460ff19166001179055565b828054600181600116156101000203166002900490600052602060002090601f016020900481019282620002d9576000855562000324565b82601f10620002f457805160ff191683800117855562000324565b8280016001018555821562000324579182015b828111156200032457825182559160200191906001019062000307565b506200033292915062000336565b5090565b5b8082111562000332576000815560010162000337565b61119c806200035d6000396000f3fe608060405234801561001057600080fd5b50600436106101165760003560e01c80634000aea0116100a2578063a9059cbb11610071578063a9059cbb14610406578063c1d34b8914610432578063cae9ca51146104f8578063d8fbe994146105b3578063dd62ed3e146105e957610116565b80634000aea0146102f157806370a08231146103ac57806395d89b41146103d2578063a457c2d7146103da57610116565b806318160ddd116100e957806318160ddd1461022b57806323b872dd14610245578063313ce5671461027b5780633177029f1461029957806339509351146102c557610116565b806301ffc9a71461011b57806306fdde0314610156578063095ea7b3146101d35780631296ee62146101ff575b600080fd5b6101426004803603602081101561013157600080fd5b50356001600160e01b031916610617565b604080519115158252519081900360200190f35b61015e610636565b6040805160208082528351818301528351919283929083019185019080838360005b83811015610198578181015183820152602001610180565b50505050905090810190601f1680156101c55780820380516001836020036101000a031916815260200191505b509250505060405180910390f35b610142600480360360408110156101e957600080fd5b506001600160a01b0381351690602001356106cc565b6101426004803603604081101561021557600080fd5b506001600160a01b0381351690602001356106e9565b61023361070c565b60408051918252519081900360200190f35b6101426004803603606081101561025b57600080fd5b506001600160a01b03813581169160208101359091169060400135610712565b610283610799565b6040805160ff9092168252519081900360200190f35b610142600480360360408110156102af57600080fd5b506001600160a01b0381351690602001356107a2565b610142600480360360408110156102db57600080fd5b506001600160a01b0381351690602001356107be565b6101426004803603606081101561030757600080fd5b6001600160a01b038235169160208101359181019060608101604082013564010000000081111561033757600080fd5b82018360208201111561034957600080fd5b8035906020019184600183028401116401000000008311171561036b57600080fd5b91908080601f01602080910402602001604051908101604052809392919081815260200183838082843760009201919091525092955061080c945050505050565b610233600480360360208110156103c257600080fd5b50356001600160a01b0316610867565b61015e610882565b610142600480360360408110156103f057600080fd5b506001600160a01b0381351690602001356108e3565b6101426004803603604081101561041c57600080fd5b506001600160a01b03813516906020013561094b565b6101426004803603608081101561044857600080fd5b6001600160a01b0382358116926020810135909116916040820135919081019060808101606082013564010000000081111561048357600080fd5b82018360208201111561049557600080fd5b803590602001918460018302840111640100000000831117156104b757600080fd5b91908080601f01602080910402602001604051908101604052809392919081815260200183838082843760009201919091525092955061095f945050505050565b6101426004803603606081101561050e57600080fd5b6001600160a01b038235169160208101359181019060608101604082013564010000000081111561053e57600080fd5b82018360208201111561055057600080fd5b8035906020019184600183028401116401000000008311171561057257600080fd5b91908080601f0160208091040260200160405190810160405280939291908181526020018383808284376000920191909152509295506109c0945050505050565b610142600480360360608110156105c957600080fd5b506001600160a01b03813581169160208101359091169060400135610a13565b610233600480360360408110156105ff57600080fd5b506001600160a01b0381358116916020013516610a30565b6001600160e01b03191660009081526006602052604090205460ff1690565b60038054604080516020601f60026000196101006001881615020190951694909404938401819004810282018101909252828152606093909290918301828280156106c25780601f10610697576101008083540402835291602001916106c2565b820191906000526020600020905b8154815290600101906020018083116106a557829003601f168201915b5050505050905090565b60006106e06106d9610a5b565b8484610a5f565b50600192915050565b600061070583836040518060200160405280600081525061080c565b9392505050565b60025490565b600061071f848484610b4b565b61078f8461072b610a5b565b61078a856040518060600160405280602881526020016110d1602891396001600160a01b038a16600090815260016020526040812090610769610a5b565b6001600160a01b031681526020810191909152604001600020549190610ca6565b610a5f565b5060019392505050565b60055460ff1690565b60006107058383604051806020016040528060008152506109c0565b60006106e06107cb610a5b565b8461078a85600160006107dc610a5b565b6001600160a01b03908116825260208083019390935260409182016000908120918c168152925290205490610d3d565b6000610818848461094b565b5061082c610824610a5b565b858585610d97565b61078f5760405162461bcd60e51b81526004018080602001828103825260268152602001806110ab6026913960400191505060405180910390fd5b6001600160a01b031660009081526020819052604090205490565b60048054604080516020601f60026000196101006001881615020190951694909404938401819004810282018101909252828152606093909290918301828280156106c25780601f10610697576101008083540402835291602001916106c2565b60006106e06108f0610a5b565b8461078a85604051806060016040528060258152602001611142602591396001600061091a610a5b565b6001600160a01b03908116825260208083019390935260409182016000908120918d16815292529020549190610ca6565b60006106e0610958610a5b565b8484610b4b565b600061096c858585610712565b5061097985858585610d97565b6109b45760405162461bcd60e51b81526004018080602001828103825260268152602001806110ab6026913960400191505060405180910390fd5b5060015b949350505050565b60006109cc84846106cc565b506109d8848484610edc565b61078f5760405162461bcd60e51b81526004018080602001828103825260258152602001806110606025913960400191505060405180910390fd5b60006109b88484846040518060200160405280600081525061095f565b6001600160a01b03918216600090815260016020908152604080832093909416825291909152205490565b3390565b6001600160a01b038316610aa45760405162461bcd60e51b815260040180806020018281038252602481526020018061111e6024913960400191505060405180910390fd5b6001600160a01b038216610ae95760405162461bcd60e51b815260040180806020018281038252602281526020018061103e6022913960400191505060405180910390fd5b6001600160a01b03808416600081815260016020908152604080832094871680845294825291829020859055815185815291517f8c5be1e5ebec7d5bd14f71427d1e84f3dd0314c0f7b2291e5b200ac8c7c3b9259281900390910190a3505050565b6001600160a01b038316610b905760405162461bcd60e51b81526004018080602001828103825260258152602001806110f96025913960400191505060405180910390fd5b6001600160a01b038216610bd55760405162461bcd60e51b815260040180806020018281038252602381526020018061101b6023913960400191505060405180910390fd5b610be083838361100f565b610c1d81604051806060016040528060268152602001611085602691396001600160a01b0386166000908152602081905260409020549190610ca6565b6001600160a01b038085166000908152602081905260408082209390935590841681522054610c4c9082610d3d565b6001600160a01b038084166000818152602081815260409182902094909455805185815290519193928716927fddf252ad1be2c89b69c2b068fc378daa952ba7f163c4a11628f55a4df523b3ef92918290030190a3505050565b60008184841115610d355760405162461bcd60e51b81526004018080602001828103825283818151815260200191508051906020019080838360005b83811015610cfa578181015183820152602001610ce2565b50505050905090810190601f168015610d275780820380516001836020036101000a031916815260200191505b509250505060405180910390fd5b505050900390565b600082820183811015610705576040805162461bcd60e51b815260206004820152601b60248201527f536166654d6174683a206164646974696f6e206f766572666c6f770000000000604482015290519081900360640190fd5b6000610dab846001600160a01b0316611014565b610db7575060006109b8565b6000846001600160a01b03166388a7ca5c610dd0610a5b565b8887876040518563ffffffff1660e01b815260040180856001600160a01b03168152602001846001600160a01b0316815260200183815260200180602001828103825283818151815260200191508051906020019080838360005b83811015610e43578181015183820152602001610e2b565b50505050905090810190601f168015610e705780820380516001836020036101000a031916815260200191505b5095505050505050602060405180830381600087803b158015610e9257600080fd5b505af1158015610ea6573d6000803e3d6000fd5b505050506040513d6020811015610ebc57600080fd5b50516001600160e01b031916632229f29760e21b14915050949350505050565b6000610ef0846001600160a01b0316611014565b610efc57506000610705565b6000846001600160a01b0316637b04a2d0610f15610a5b565b86866040518463ffffffff1660e01b815260040180846001600160a01b0316815260200183815260200180602001828103825283818151815260200191508051906020019080838360005b83811015610f78578181015183820152602001610f60565b50505050905090810190601f168015610fa55780820380516001836020036101000a031916815260200191505b50945050505050602060405180830381600087803b158015610fc657600080fd5b505af1158015610fda573d6000803e3d6000fd5b505050506040513d6020811015610ff057600080fd5b50516001600160e01b0319166307b04a2d60e41b149150509392505050565b505050565b3b15159056fe45524332303a207472616e7366657220746f20746865207a65726f206164647265737345524332303a20617070726f766520746f20746865207a65726f2061646472657373455243313336333a205f636865636b416e6443616c6c417070726f7665207265766572747345524332303a207472616e7366657220616d6f756e7420657863656564732062616c616e6365455243313336333a205f636865636b416e6443616c6c5472616e73666572207265766572747345524332303a207472616e7366657220616d6f756e74206578636565647320616c6c6f77616e636545524332303a207472616e736665722066726f6d20746865207a65726f206164647265737345524332303a20617070726f76652066726f6d20746865207a65726f206164647265737345524332303a2064656372656173656420616c6c6f77616e63652062656c6f77207a65726fa264697066735822122035ef1d3a636cb0f3627eda0255b767068b39c78cebdfad9162eaea9baf370f7864736f6c63430007060033",
  "linkReferences": {},
  "deployedLinkReferences": {}
}