{
  "_format": "hh-sol-artifact-1",
  "contractName": "SimpleERC20",
  "sourceName": "contracts/token/ERC20/SimpleERC20.sol",
  "abi": [
    {
      "inputs": [
        {
          "internalType": "string",
          "name": "name",
          "type": "string"
        },
        {
          "internalType": "string",
          "name": "symbol",
          "type": "string"
        },
        {
          "internalType": "uint256",
          "name": "initialBalance",
          "type": "uint256"
        },
        {
          "internalType": "address payable",
          "name": "feeReceiver",
          "type": "address"
        }
      ],
      "stateMutability": "payable",
      "type": "constructor"
    },
    {
      "anonymous": false,
      "inputs": [
        {
          "indexed": true,
          "internalType": "address",
          "name": "owner",
          "type": "address"
        },
        {
          "indexed": true,
          "internalType": "address",
          "name": "spender",
          "type": "address"
        },
        {
          "indexed": false,
          "internalType": "uint256",
          "name": "value",
          "type": "uint256"
        }
      ],
      "name": "Approval",
      "type": "event"
    },
    {
      "anonymous": false,
      "inputs": [
        {
          "indexed": true,
          "internalType": "address",
          "name": "from",
          "type": "address"
        },
        {
          "indexed": true,
          "internalType": "address",
          "name": "to",
          "type": "address"
        },
        {
          "indexed": false,
          "internalType": "uint256",
          "name": "value",
          "type": "uint256"
        }
      ],
      "name": "Transfer",
      "type": "event"
    },
    {
      "inputs": [
        {
          "internalType": "address",
          "name": "owner",
          "type": "address"
        },
        {
          "internalType": "address",
          "name": "spender",
          "type": "address"
        }
      ],
      "name": "allowance",
      "outputs": [
        {
          "internalType": "uint256",
          "name": "",
          "type": "uint256"
        }
      ],
      "stateMutability": "view",
      "type": "function"
    },
    {
      "inputs": [
        {
          "internalType": "address",
          "name": "spender",
          "type": "address"
        },
        {
          "internalType": "uint256",
          "name": "amount",
          "type": "uint256"
        }
      ],
      "name": "approve",
      "outputs": [
        {
          "internalType": "bool",
          "name": "",
          "type": "bool"
        }
      ],
      "stateMutability": "nonpayable",
      "type": "function"
    },
    {
      "inputs": [
        {
          "internalType": "address",
          "name": "account",
          "type": "address"
        }
      ],
      "name": "balanceOf",
      "outputs": [
        {
          "internalType": "uint256",
          "name": "",
          "type": "uint256"
        }
      ],
      "stateMutability": "view",
      "type": "function"
    },
    {
      "inputs": [],
      "name": "decimals",
      "outputs": [
        {
          "internalType": "uint8",
          "name": "",
          "type": "uint8"
        }
      ],
      "stateMutability": "view",
      "type": "function"
    },
    {
      "inputs": [
        {
          "internalType": "address",
          "name": "spender",
          "type": "address"
        },
        {
          "internalType": "uint256",
          "name": "subtractedValue",
          "type": "uint256"
        }
      ],
      "name": "decreaseAllowance",
      "outputs": [
        {
          "internalType": "bool",
          "name": "",
          "type": "bool"
        }
      ],
      "stateMutability": "nonpayable",
      "type": "function"
    },
    {
      "inputs": [],
      "name": "generator",
      "outputs": [
        {
          "internalType": "string",
          "name": "",
          "type": "string"
        }
      ],
      "stateMutability": "pure",
      "type": "function"
    },
    {
      "inputs": [
        {
          "internalType": "address",
          "name": "spender",
          "type": "address"
        },
        {
          "internalType": "uint256",
          "name": "addedValue",
          "type": "uint256"
        }
      ],
      "name": "increaseAllowance",
      "outputs": [
        {
          "internalType": "bool",
          "name": "",
          "type": "bool"
        }
      ],
      "stateMutability": "nonpayable",
      "type": "function"
    },
    {
      "inputs": [],
      "name": "name",
      "outputs": [
        {
          "internalType": "string",
          "name": "",
          "type": "string"
        }
      ],
      "stateMutability": "view",
      "type": "function"
    },
    {
      "inputs": [],
      "name": "symbol",
      "outputs": [
        {
          "internalType": "string",
          "name": "",
          "type": "string"
        }
      ],
      "stateMutability": "view",
      "type": "function"
    },
    {
      "inputs": [],
      "name": "totalSupply",
      "outputs": [
        {
          "internalType": "uint256",
          "name": "",
          "type": "uint256"
        }
      ],
      "stateMutability": "view",
      "type": "function"
    },
    {
      "inputs": [
        {
          "internalType": "address",
          "name": "recipient",
          "type": "address"
        },
        {
          "internalType": "uint256",
          "name": "amount",
          "type": "uint256"
        }
      ],
      "name": "transfer",
      "outputs": [
        {
          "internalType": "bool",
          "name": "",
          "type": "bool"
        }
      ],
      "stateMutability": "nonpayable",
      "type": "function"
    },
    {
      "inputs": [
        {
          "internalType": "address",
          "name": "sender",
          "type": "address"
        },
        {
          "internalType": "address",
          "name": "recipient",
          "type": "address"
        },
        {
          "internalType": "uint256",
          "name": "amount",
          "type": "uint256"
        }
      ],
      "name": "transferFrom",
      "outputs": [
        {
          "internalType": "bool",
          "name": "",
          "type": "bool"
        }
      ],
      "stateMutability": "nonpayable",
      "type": "function"
    },
    {
      "inputs": [],
      "name": "version",
      "outputs": [
        {
          "internalType": "string",
          "name": "",
          "type": "string"
        }
      ],
      "stateMutability": "view",
      "type": "function"
    }
  ],
  "bytecode": "0x60806040526040516200108a3803806200108a833981810160405260808110156200002957600080fd5b81019080805160405193929190846401000000008211156200004a57600080fd5b9083019060208201858111156200006057600080fd5b82516401000000008111828201881017156200007b57600080fd5b82525081516020918201929091019080838360005b83811015620000aa57818101518382015260200162000090565b50505050905090810190601f168015620000d85780820380516001836020036101000a031916815260200191505b5060405260200180516040519392919084640100000000821115620000fc57600080fd5b9083019060208201858111156200011257600080fd5b82516401000000008111828201881017156200012d57600080fd5b82525081516020918201929091019080838360005b838110156200015c57818101518382015260200162000142565b50505050905090810190601f1680156200018a5780820380516001836020036101000a031916815260200191505b5060408181526020838101519382015183830183526006845265076342e362e360d41b828501528251808401909352600b83526a053696d706c6545524332360ac1b83830152885194965094509192849288918891620001f091600391850190620004d4565b50805162000206906004906020840190620004d4565b50506005805460ff19166012179055506040516315b36b9760e11b81526020600482018181528351602484015283516001600160a01b03861693632b66d72e9334938793909283926044909101919085019080838360005b83811015620002785781810151838201526020016200025e565b50505050905090810190601f168015620002a65780820380516001836020036101000a031916815260200191505b50925050506000604051808303818588803b158015620002c557600080fd5b505af1158015620002da573d6000803e3d6000fd5b50508551620002f89550600694506020870193509150620004d49050565b5050600082116200033b5760405162461bcd60e51b8152600401808060200182810382526022815260200180620010686022913960400191505060405180910390fd5b62000350620003496200035a565b836200035e565b5050505062000580565b3390565b6001600160a01b038216620003ba576040805162461bcd60e51b815260206004820152601f60248201527f45524332303a206d696e7420746f20746865207a65726f206164647265737300604482015290519081900360640190fd5b620003c8600083836200046d565b620003e4816002546200047260201b6200062a1790919060201c565b6002556001600160a01b03821660009081526020818152604090912054620004179183906200062a62000472821b17901c565b6001600160a01b0383166000818152602081815260408083209490945583518581529351929391927fddf252ad1be2c89b69c2b068fc378daa952ba7f163c4a11628f55a4df523b3ef9281900390910190a35050565b505050565b600082820183811015620004cd576040805162461bcd60e51b815260206004820152601b60248201527f536166654d6174683a206164646974696f6e206f766572666c6f770000000000604482015290519081900360640190fd5b9392505050565b828054600181600116156101000203166002900490600052602060002090601f0160209004810192826200050c576000855562000557565b82601f106200052757805160ff191683800117855562000557565b8280016001018555821562000557579182015b82811115620005575782518255916020019190600101906200053a565b506200056592915062000569565b5090565b5b808211156200056557600081556001016200056a565b610ad880620005906000396000f3fe608060405234801561001057600080fd5b50600436106100cf5760003560e01c806354fd4d501161008c57806395d89b411161006657806395d89b4114610261578063a457c2d714610269578063a9059cbb14610295578063dd62ed3e146102c1576100cf565b806354fd4d501461022b57806370a08231146102335780637afa1eed14610259576100cf565b806306fdde03146100d4578063095ea7b31461015157806318160ddd1461019157806323b872dd146101ab578063313ce567146101e157806339509351146101ff575b600080fd5b6100dc6102ef565b6040805160208082528351818301528351919283929083019185019080838360005b838110156101165781810151838201526020016100fe565b50505050905090810190601f1680156101435780820380516001836020036101000a031916815260200191505b509250505060405180910390f35b61017d6004803603604081101561016757600080fd5b506001600160a01b038135169060200135610385565b604080519115158252519081900360200190f35b6101996103a2565b60408051918252519081900360200190f35b61017d600480360360608110156101c157600080fd5b506001600160a01b038135811691602081013590911690604001356103a8565b6101e961042f565b6040805160ff9092168252519081900360200190f35b61017d6004803603604081101561021557600080fd5b506001600160a01b038135169060200135610438565b6100dc610486565b6101996004803603602081101561024957600080fd5b50356001600160a01b03166104e7565b6100dc610502565b6100dc610522565b61017d6004803603604081101561027f57600080fd5b506001600160a01b038135169060200135610583565b61017d600480360360408110156102ab57600080fd5b506001600160a01b0381351690602001356105eb565b610199600480360360408110156102d757600080fd5b506001600160a01b03813581169160200135166105ff565b60038054604080516020601f600260001961010060018816150201909516949094049384018190048102820181019092528281526060939092909183018282801561037b5780601f106103505761010080835404028352916020019161037b565b820191906000526020600020905b81548152906001019060200180831161035e57829003601f168201915b5050505050905090565b600061039961039261068b565b848461068f565b50600192915050565b60025490565b60006103b584848461077b565b610425846103c161068b565b610420856040518060600160405280602881526020016109de602891396001600160a01b038a166000908152600160205260408120906103ff61068b565b6001600160a01b0316815260208101919091526040016000205491906108d6565b61068f565b5060019392505050565b60055460ff1690565b600061039961044561068b565b84610420856001600061045661068b565b6001600160a01b03908116825260208083019390935260409182016000908120918c16815292529020549061062a565b60068054604080516020601f600260001961010060018816150201909516949094049384018190048102820181019092528281526060939092909183018282801561037b5780601f106103505761010080835404028352916020019161037b565b6001600160a01b031660009081526020819052604090205490565b60606040518060600160405280602f8152602001610a4f602f9139905090565b60048054604080516020601f600260001961010060018816150201909516949094049384018190048102820181019092528281526060939092909183018282801561037b5780601f106103505761010080835404028352916020019161037b565b600061039961059061068b565b8461042085604051806060016040528060258152602001610a7e60259139600160006105ba61068b565b6001600160a01b03908116825260208083019390935260409182016000908120918d168152925290205491906108d6565b60006103996105f861068b565b848461077b565b6001600160a01b03918216600090815260016020908152604080832093909416825291909152205490565b600082820183811015610684576040805162461bcd60e51b815260206004820152601b60248201527f536166654d6174683a206164646974696f6e206f766572666c6f770000000000604482015290519081900360640190fd5b9392505050565b3390565b6001600160a01b0383166106d45760405162461bcd60e51b8152600401808060200182810382526024815260200180610a2b6024913960400191505060405180910390fd5b6001600160a01b0382166107195760405162461bcd60e51b81526004018080602001828103825260228152602001806109966022913960400191505060405180910390fd5b6001600160a01b03808416600081815260016020908152604080832094871680845294825291829020859055815185815291517f8c5be1e5ebec7d5bd14f71427d1e84f3dd0314c0f7b2291e5b200ac8c7c3b9259281900390910190a3505050565b6001600160a01b0383166107c05760405162461bcd60e51b8152600401808060200182810382526025815260200180610a066025913960400191505060405180910390fd5b6001600160a01b0382166108055760405162461bcd60e51b81526004018080602001828103825260238152602001806109736023913960400191505060405180910390fd5b61081083838361096d565b61084d816040518060600160405280602681526020016109b8602691396001600160a01b03861660009081526020819052604090205491906108d6565b6001600160a01b03808516600090815260208190526040808220939093559084168152205461087c908261062a565b6001600160a01b038084166000818152602081815260409182902094909455805185815290519193928716927fddf252ad1be2c89b69c2b068fc378daa952ba7f163c4a11628f55a4df523b3ef92918290030190a3505050565b600081848411156109655760405162461bcd60e51b81526004018080602001828103825283818151815260200191508051906020019080838360005b8381101561092a578181015183820152602001610912565b50505050905090810190601f1680156109575780820380516001836020036101000a031916815260200191505b509250505060405180910390fd5b505050900390565b50505056fe45524332303a207472616e7366657220746f20746865207a65726f206164647265737345524332303a20617070726f766520746f20746865207a65726f206164647265737345524332303a207472616e7366657220616d6f756e7420657863656564732062616c616e636545524332303a207472616e7366657220616d6f756e74206578636565647320616c6c6f77616e636545524332303a207472616e736665722066726f6d20746865207a65726f206164647265737345524332303a20617070726f76652066726f6d20746865207a65726f206164647265737368747470733a2f2f766974746f6d696e61636f72692e6769746875622e696f2f65726332302d67656e657261746f7245524332303a2064656372656173656420616c6c6f77616e63652062656c6f77207a65726fa2646970667358221220f4a8aba2ec62e532ac3cd7b45abcddf6e4d191bd9fa62c95169797a38de038fc64736f6c6343000706003353696d706c6545524332303a20737570706c792063616e6e6f74206265207a65726f",
  "linkReferences": {},
  "deployedLinkReferences": {}
}