{
  "contractName": "AmazingERC20",
  "abi": [
    {
      "inputs": [
        {
          "internalType": "string",
          "name": "name",
          "type": "string"
        },
        {
          "internalType": "string",
          "name": "symbol",
          "type": "string"
        },
        {
          "internalType": "uint8",
          "name": "decimals",
          "type": "uint8"
        },
        {
          "internalType": "uint256",
          "name": "initialBalance",
          "type": "uint256"
        },
        {
          "internalType": "address payable",
          "name": "feeReceiver",
          "type": "address"
        }
      ],
      "stateMutability": "payable",
      "type": "constructor"
    },
    {
      "anonymous": false,
      "inputs": [
        {
          "indexed": true,
          "internalType": "address",
          "name": "owner",
          "type": "address"
        },
        {
          "indexed": true,
          "internalType": "address",
          "name": "spender",
          "type": "address"
        },
        {
          "indexed": false,
          "internalType": "uint256",
          "name": "value",
          "type": "uint256"
        }
      ],
      "name": "Approval",
      "type": "event"
    },
    {
      "anonymous": false,
      "inputs": [],
      "name": "MintFinished",
      "type": "event"
    },
    {
      "anonymous": false,
      "inputs": [
        {
          "indexed": true,
          "internalType": "address",
          "name": "previousOwner",
          "type": "address"
        },
        {
          "indexed": true,
          "internalType": "address",
          "name": "newOwner",
          "type": "address"
        }
      ],
      "name": "OwnershipTransferred",
      "type": "event"
    },
    {
      "anonymous": false,
      "inputs": [
        {
          "indexed": true,
          "internalType": "address",
          "name": "from",
          "type": "address"
        },
        {
          "indexed": true,
          "internalType": "address",
          "name": "to",
          "type": "address"
        },
        {
          "indexed": false,
          "internalType": "uint256",
          "name": "value",
          "type": "uint256"
        }
      ],
      "name": "Transfer",
      "type": "event"
    },
    {
      "inputs": [
        {
          "internalType": "address",
          "name": "owner",
          "type": "address"
        },
        {
          "internalType": "address",
          "name": "spender",
          "type": "address"
        }
      ],
      "name": "allowance",
      "outputs": [
        {
          "internalType": "uint256",
          "name": "",
          "type": "uint256"
        }
      ],
      "stateMutability": "view",
      "type": "function"
    },
    {
      "inputs": [
        {
          "internalType": "address",
          "name": "spender",
          "type": "address"
        },
        {
          "internalType": "uint256",
          "name": "amount",
          "type": "uint256"
        }
      ],
      "name": "approve",
      "outputs": [
        {
          "internalType": "bool",
          "name": "",
          "type": "bool"
        }
      ],
      "stateMutability": "nonpayable",
      "type": "function"
    },
    {
      "inputs": [
        {
          "internalType": "address",
          "name": "spender",
          "type": "address"
        },
        {
          "internalType": "uint256",
          "name": "amount",
          "type": "uint256"
        }
      ],
      "name": "approveAndCall",
      "outputs": [
        {
          "internalType": "bool",
          "name": "",
          "type": "bool"
        }
      ],
      "stateMutability": "nonpayable",
      "type": "function"
    },
    {
      "inputs": [
        {
          "internalType": "address",
          "name": "spender",
          "type": "address"
        },
        {
          "internalType": "uint256",
          "name": "amount",
          "type": "uint256"
        },
        {
          "internalType": "bytes",
          "name": "data",
          "type": "bytes"
        }
      ],
      "name": "approveAndCall",
      "outputs": [
        {
          "internalType": "bool",
          "name": "",
          "type": "bool"
        }
      ],
      "stateMutability": "nonpayable",
      "type": "function"
    },
    {
      "inputs": [
        {
          "internalType": "address",
          "name": "account",
          "type": "address"
        }
      ],
      "name": "balanceOf",
      "outputs": [
        {
          "internalType": "uint256",
          "name": "",
          "type": "uint256"
        }
      ],
      "stateMutability": "view",
      "type": "function"
    },
    {
      "inputs": [
        {
          "internalType": "uint256",
          "name": "amount",
          "type": "uint256"
        }
      ],
      "name": "burn",
      "outputs": [],
      "stateMutability": "nonpayable",
      "type": "function"
    },
    {
      "inputs": [
        {
          "internalType": "address",
          "name": "account",
          "type": "address"
        },
        {
          "internalType": "uint256",
          "name": "amount",
          "type": "uint256"
        }
      ],
      "name": "burnFrom",
      "outputs": [],
      "stateMutability": "nonpayable",
      "type": "function"
    },
    {
      "inputs": [],
      "name": "decimals",
      "outputs": [
        {
          "internalType": "uint8",
          "name": "",
          "type": "uint8"
        }
      ],
      "stateMutability": "view",
      "type": "function"
    },
    {
      "inputs": [
        {
          "internalType": "address",
          "name": "spender",
          "type": "address"
        },
        {
          "internalType": "uint256",
          "name": "subtractedValue",
          "type": "uint256"
        }
      ],
      "name": "decreaseAllowance",
      "outputs": [
        {
          "internalType": "bool",
          "name": "",
          "type": "bool"
        }
      ],
      "stateMutability": "nonpayable",
      "type": "function"
    },
    {
      "inputs": [],
      "name": "finishMinting",
      "outputs": [],
      "stateMutability": "nonpayable",
      "type": "function"
    },
    {
      "inputs": [
        {
          "internalType": "address",
          "name": "spender",
          "type": "address"
        },
        {
          "internalType": "uint256",
          "name": "addedValue",
          "type": "uint256"
        }
      ],
      "name": "increaseAllowance",
      "outputs": [
        {
          "internalType": "bool",
          "name": "",
          "type": "bool"
        }
      ],
      "stateMutability": "nonpayable",
      "type": "function"
    },
    {
      "inputs": [
        {
          "internalType": "address",
          "name": "account",
          "type": "address"
        },
        {
          "internalType": "uint256",
          "name": "amount",
          "type": "uint256"
        }
      ],
      "name": "mint",
      "outputs": [],
      "stateMutability": "nonpayable",
      "type": "function"
    },
    {
      "inputs": [],
      "name": "mintingFinished",
      "outputs": [
        {
          "internalType": "bool",
          "name": "",
          "type": "bool"
        }
      ],
      "stateMutability": "view",
      "type": "function"
    },
    {
      "inputs": [],
      "name": "name",
      "outputs": [
        {
          "internalType": "string",
          "name": "",
          "type": "string"
        }
      ],
      "stateMutability": "view",
      "type": "function"
    },
    {
      "inputs": [],
      "name": "owner",
      "outputs": [
        {
          "internalType": "address",
          "name": "",
          "type": "address"
        }
      ],
      "stateMutability": "view",
      "type": "function"
    },
    {
      "inputs": [
        {
          "internalType": "address",
          "name": "tokenAddress",
          "type": "address"
        },
        {
          "internalType": "uint256",
          "name": "tokenAmount",
          "type": "uint256"
        }
      ],
      "name": "recoverERC20",
      "outputs": [],
      "stateMutability": "nonpayable",
      "type": "function"
    },
    {
      "inputs": [],
      "name": "renounceOwnership",
      "outputs": [],
      "stateMutability": "nonpayable",
      "type": "function"
    },
    {
      "inputs": [
        {
          "internalType": "bytes4",
          "name": "interfaceId",
          "type": "bytes4"
        }
      ],
      "name": "supportsInterface",
      "outputs": [
        {
          "internalType": "bool",
          "name": "",
          "type": "bool"
        }
      ],
      "stateMutability": "view",
      "type": "function"
    },
    {
      "inputs": [],
      "name": "symbol",
      "outputs": [
        {
          "internalType": "string",
          "name": "",
          "type": "string"
        }
      ],
      "stateMutability": "view",
      "type": "function"
    },
    {
      "inputs": [],
      "name": "totalSupply",
      "outputs": [
        {
          "internalType": "uint256",
          "name": "",
          "type": "uint256"
        }
      ],
      "stateMutability": "view",
      "type": "function"
    },
    {
      "inputs": [
        {
          "internalType": "address",
          "name": "recipient",
          "type": "address"
        },
        {
          "internalType": "uint256",
          "name": "amount",
          "type": "uint256"
        }
      ],
      "name": "transfer",
      "outputs": [
        {
          "internalType": "bool",
          "name": "",
          "type": "bool"
        }
      ],
      "stateMutability": "nonpayable",
      "type": "function"
    },
    {
      "inputs": [
        {
          "internalType": "address",
          "name": "recipient",
          "type": "address"
        },
        {
          "internalType": "uint256",
          "name": "amount",
          "type": "uint256"
        }
      ],
      "name": "transferAndCall",
      "outputs": [
        {
          "internalType": "bool",
          "name": "",
          "type": "bool"
        }
      ],
      "stateMutability": "nonpayable",
      "type": "function"
    },
    {
      "inputs": [
        {
          "internalType": "address",
          "name": "recipient",
          "type": "address"
        },
        {
          "internalType": "uint256",
          "name": "amount",
          "type": "uint256"
        },
        {
          "internalType": "bytes",
          "name": "data",
          "type": "bytes"
        }
      ],
      "name": "transferAndCall",
      "outputs": [
        {
          "internalType": "bool",
          "name": "",
          "type": "bool"
        }
      ],
      "stateMutability": "nonpayable",
      "type": "function"
    },
    {
      "inputs": [
        {
          "internalType": "address",
          "name": "sender",
          "type": "address"
        },
        {
          "internalType": "address",
          "name": "recipient",
          "type": "address"
        },
        {
          "internalType": "uint256",
          "name": "amount",
          "type": "uint256"
        }
      ],
      "name": "transferFrom",
      "outputs": [
        {
          "internalType": "bool",
          "name": "",
          "type": "bool"
        }
      ],
      "stateMutability": "nonpayable",
      "type": "function"
    },
    {
      "inputs": [
        {
          "internalType": "address",
          "name": "sender",
          "type": "address"
        },
        {
          "internalType": "address",
          "name": "recipient",
          "type": "address"
        },
        {
          "internalType": "uint256",
          "name": "amount",
          "type": "uint256"
        },
        {
          "internalType": "bytes",
          "name": "data",
          "type": "bytes"
        }
      ],
      "name": "transferFromAndCall",
      "outputs": [
        {
          "internalType": "bool",
          "name": "",
          "type": "bool"
        }
      ],
      "stateMutability": "nonpayable",
      "type": "function"
    },
    {
      "inputs": [
        {
          "internalType": "address",
          "name": "sender",
          "type": "address"
        },
        {
          "internalType": "address",
          "name": "recipient",
          "type": "address"
        },
        {
          "internalType": "uint256",
          "name": "amount",
          "type": "uint256"
        }
      ],
      "name": "transferFromAndCall",
      "outputs": [
        {
          "internalType": "bool",
          "name": "",
          "type": "bool"
        }
      ],
      "stateMutability": "nonpayable",
      "type": "function"
    },
    {
      "inputs": [
        {
          "internalType": "address",
          "name": "newOwner",
          "type": "address"
        }
      ],
      "name": "transferOwnership",
      "outputs": [],
      "stateMutability": "nonpayable",
      "type": "function"
    }
  ],
  "bytecode": "0x608060408190526005805461ff00191690556200223b38819003908190833981810160405260a08110156200003357600080fd5b81019080805160405193929190846401000000008211156200005457600080fd5b9083019060208201858111156200006a57600080fd5b82516401000000008111828201881017156200008557600080fd5b82525081516020918201929091019080838360005b83811015620000b45781810151838201526020016200009a565b50505050905090810190601f168015620000e25780820380516001836020036101000a031916815260200191505b50604052602001805160405193929190846401000000008211156200010657600080fd5b9083019060208201858111156200011c57600080fd5b82516401000000008111828201881017156200013757600080fd5b82525081516020918201929091019080838360005b83811015620001665781810151838201526020016200014c565b50505050905090810190601f168015620001945780820380516001836020036101000a031916815260200191505b50604081815260208381015184830151606090950151848401909352600c84526b0416d617a696e6745524332360a41b82850152885190965093945090928392918891889183918391620001ee9160039185019062000658565b5080516200020490600490602084019062000658565b50506005805460ff1916601217905550620002266301ffc9a760e01b620003a0565b62000238634bbee2df60e01b620003a0565b6200024a637dcf646760e11b620003a0565b50600090506200025962000425565b600780546001600160a01b0319166001600160a01b038316908117909155604051919250906000907f8be0079c531659141344cd1fd0a4f28419497f9722a3daafe3b4186f6b6457e0908290a350816001600160a01b0316632b66d72e34836040518363ffffffff1660e01b81526004018080602001828103825283818151815260200191508051906020019080838360005b8381101562000306578181015183820152602001620002ec565b50505050905090810190601f168015620003345780820380516001836020036101000a031916815260200191505b50925050506000604051808303818588803b1580156200035357600080fd5b505af115801562000368573d6000803e3d6000fd5b5050505050505062000380836200042960201b60201c565b620003956200038e62000425565b836200043f565b505050505062000704565b6001600160e01b0319808216141562000400576040805162461bcd60e51b815260206004820152601c60248201527f4552433136353a20696e76616c696420696e7465726661636520696400000000604482015290519081900360640190fd5b6001600160e01b0319166000908152600660205260409020805460ff19166001179055565b3390565b6005805460ff191660ff92909216919091179055565b6200044962000425565b6001600160a01b03166200045c620004d3565b6001600160a01b031614620004b8576040805162461bcd60e51b815260206004820181905260248201527f4f776e61626c653a2063616c6c6572206973206e6f7420746865206f776e6572604482015290519081900360640190fd5b620004cf8282620004e260201b62000fc31760201c565b5050565b6007546001600160a01b031690565b6001600160a01b0382166200053e576040805162461bcd60e51b815260206004820152601f60248201527f45524332303a206d696e7420746f20746865207a65726f206164647265737300604482015290519081900360640190fd5b6200054c60008383620005f1565b6200056881600254620005f660201b620010b31790919060201c565b6002556001600160a01b038216600090815260208181526040909120546200059b918390620010b3620005f6821b17901c565b6001600160a01b0383166000818152602081815260408083209490945583518581529351929391927fddf252ad1be2c89b69c2b068fc378daa952ba7f163c4a11628f55a4df523b3ef9281900390910190a35050565b505050565b60008282018381101562000651576040805162461bcd60e51b815260206004820152601b60248201527f536166654d6174683a206164646974696f6e206f766572666c6f770000000000604482015290519081900360640190fd5b9392505050565b828054600181600116156101000203166002900490600052602060002090601f016020900481019282620006905760008555620006db565b82601f10620006ab57805160ff1916838001178555620006db565b82800160010185558215620006db579182015b82811115620006db578251825591602001919060010190620006be565b50620006e9929150620006ed565b5090565b5b80821115620006e95760008155600101620006ee565b611b2780620007146000396000f3fe608060405234801561001057600080fd5b50600436106101a95760003560e01c806370a08231116100f9578063a457c2d711610097578063cae9ca5111610071578063cae9ca511461066a578063d8fbe99414610725578063dd62ed3e1461075b578063f2fde38b14610789576101a9565b8063a457c2d71461054c578063a9059cbb14610578578063c1d34b89146105a4576101a9565b80637d64bcb4116100d35780637d64bcb4146104ec5780638980f11f146104f45780638da5cb5b1461052057806395d89b4114610544576101a9565b806370a0823114610492578063715018a6146104b857806379cc6790146104c0576101a9565b806323b872dd11610166578063395093511161014057806339509351146103605780634000aea01461038c57806340c10f191461044757806342966c6814610475576101a9565b806323b872dd146102e0578063313ce567146103165780633177029f14610334576101a9565b806301ffc9a7146101ae57806305d2035b146101e957806306fdde03146101f1578063095ea7b31461026e5780631296ee621461029a57806318160ddd146102c6575b600080fd5b6101d5600480360360208110156101c457600080fd5b50356001600160e01b0319166107af565b604080519115158252519081900360200190f35b6101d56107ce565b6101f96107dc565b6040805160208082528351818301528351919283929083019185019080838360005b8381101561023357818101518382015260200161021b565b50505050905090810190601f1680156102605780820380516001836020036101000a031916815260200191505b509250505060405180910390f35b6101d56004803603604081101561028457600080fd5b506001600160a01b038135169060200135610872565b6101d5600480360360408110156102b057600080fd5b506001600160a01b03813516906020013561088f565b6102ce6108b2565b60408051918252519081900360200190f35b6101d5600480360360608110156102f657600080fd5b506001600160a01b038135811691602081013590911690604001356108b8565b61031e61093f565b6040805160ff9092168252519081900360200190f35b6101d56004803603604081101561034a57600080fd5b506001600160a01b038135169060200135610948565b6101d56004803603604081101561037657600080fd5b506001600160a01b038135169060200135610964565b6101d5600480360360608110156103a257600080fd5b6001600160a01b03823516916020810135918101906060810160408201356401000000008111156103d257600080fd5b8201836020820111156103e457600080fd5b8035906020019184600183028401116401000000008311171561040657600080fd5b91908080601f0160208091040260200160405190810160405280939291908181526020018383808284376000920191909152509295506109b2945050505050565b6104736004803603604081101561045d57600080fd5b506001600160a01b038135169060200135610a0d565b005b6104736004803603602081101561048b57600080fd5b5035610a62565b6102ce600480360360208110156104a857600080fd5b50356001600160a01b0316610a76565b610473610a91565b610473600480360360408110156104d657600080fd5b506001600160a01b038135169060200135610b3d565b610473610b97565b6104736004803603604081101561050a57600080fd5b506001600160a01b038135169060200135610be8565b610528610cd8565b604080516001600160a01b039092168252519081900360200190f35b6101f9610ce7565b6101d56004803603604081101561056257600080fd5b506001600160a01b038135169060200135610d48565b6101d56004803603604081101561058e57600080fd5b506001600160a01b038135169060200135610db0565b6101d5600480360360808110156105ba57600080fd5b6001600160a01b038235811692602081013590911691604082013591908101906080810160608201356401000000008111156105f557600080fd5b82018360208201111561060757600080fd5b8035906020019184600183028401116401000000008311171561062957600080fd5b91908080601f016020809104026020016040519081016040528093929190818152602001838380828437600092019190915250929550610dc4945050505050565b6101d56004803603606081101561068057600080fd5b6001600160a01b03823516916020810135918101906060810160408201356401000000008111156106b057600080fd5b8201836020820111156106c257600080fd5b803590602001918460018302840111640100000000831117156106e457600080fd5b91908080601f016020809104026020016040519081016040528093929190818152602001838380828437600092019190915250929550610e25945050505050565b6101d56004803603606081101561073b57600080fd5b506001600160a01b03813581169160208101359091169060400135610e78565b6102ce6004803603604081101561077157600080fd5b506001600160a01b0381358116916020013516610e95565b6104736004803603602081101561079f57600080fd5b50356001600160a01b0316610ec0565b6001600160e01b03191660009081526006602052604090205460ff1690565b600554610100900460ff1690565b60038054604080516020601f60026000196101006001881615020190951694909404938401819004810282018101909252828152606093909290918301828280156108685780601f1061083d57610100808354040283529160200191610868565b820191906000526020600020905b81548152906001019060200180831161084b57829003601f168201915b5050505050905090565b600061088661087f61110d565b8484611111565b50600192915050565b60006108ab8383604051806020016040528060008152506109b2565b9392505050565b60025490565b60006108c58484846111fd565b610935846108d161110d565b610930856040518060600160405280602881526020016119d5602891396001600160a01b038a1660009081526001602052604081209061090f61110d565b6001600160a01b031681526020810191909152604001600020549190611358565b611111565b5060019392505050565b60055460ff1690565b60006108ab838360405180602001604052806000815250610e25565b600061088661097161110d565b84610930856001600061098261110d565b6001600160a01b03908116825260208083019390935260409182016000908120918c1681529252902054906110b3565b60006109be8484610db0565b506109d26109ca61110d565b8585856113ef565b6109355760405162461bcd60e51b81526004018080602001828103825260268152602001806119af6026913960400191505060405180910390fd5b600554610100900460ff1615610a545760405162461bcd60e51b8152600401808060200182810382526022815260200180611aab6022913960400191505060405180910390fd5b610a5e8282611534565b5050565b610a73610a6d61110d565b826115a0565b50565b6001600160a01b031660009081526020819052604090205490565b610a9961110d565b6001600160a01b0316610aaa610cd8565b6001600160a01b031614610af3576040805162461bcd60e51b815260206004820181905260248201526000805160206119fd833981519152604482015290519081900360640190fd5b6007546040516000916001600160a01b0316907f8be0079c531659141344cd1fd0a4f28419497f9722a3daafe3b4186f6b6457e0908390a3600780546001600160a01b0319169055565b6000610b7482604051806060016040528060248152602001611a1d60249139610b6d86610b6861110d565b610e95565b9190611358565b9050610b8883610b8261110d565b83611111565b610b9283836115a0565b505050565b600554610100900460ff1615610bde5760405162461bcd60e51b8152600401808060200182810382526022815260200180611aab6022913960400191505060405180910390fd5b610be661169c565b565b610bf061110d565b6001600160a01b0316610c01610cd8565b6001600160a01b031614610c4a576040805162461bcd60e51b815260206004820181905260248201526000805160206119fd833981519152604482015290519081900360640190fd5b816001600160a01b031663a9059cbb610c61610cd8565b836040518363ffffffff1660e01b815260040180836001600160a01b0316815260200182815260200192505050602060405180830381600087803b158015610ca857600080fd5b505af1158015610cbc573d6000803e3d6000fd5b505050506040513d6020811015610cd257600080fd5b50505050565b6007546001600160a01b031690565b60048054604080516020601f60026000196101006001881615020190951694909404938401819004810282018101909252828152606093909290918301828280156108685780601f1061083d57610100808354040283529160200191610868565b6000610886610d5561110d565b8461093085604051806060016040528060258152602001611acd6025913960016000610d7f61110d565b6001600160a01b03908116825260208083019390935260409182016000908120918d16815292529020549190611358565b6000610886610dbd61110d565b84846111fd565b6000610dd18585856108b8565b50610dde858585856113ef565b610e195760405162461bcd60e51b81526004018080602001828103825260268152602001806119af6026913960400191505060405180910390fd5b5060015b949350505050565b6000610e318484610872565b50610e3d848484611706565b6109355760405162461bcd60e51b81526004018080602001828103825260258152602001806119646025913960400191505060405180910390fd5b6000610e1d84848460405180602001604052806000815250610dc4565b6001600160a01b03918216600090815260016020908152604080832093909416825291909152205490565b610ec861110d565b6001600160a01b0316610ed9610cd8565b6001600160a01b031614610f22576040805162461bcd60e51b815260206004820181905260248201526000805160206119fd833981519152604482015290519081900360640190fd5b6001600160a01b038116610f675760405162461bcd60e51b815260040180806020018281038252602681526020018061191c6026913960400191505060405180910390fd5b6007546040516001600160a01b038084169216907f8be0079c531659141344cd1fd0a4f28419497f9722a3daafe3b4186f6b6457e090600090a3600780546001600160a01b0319166001600160a01b0392909216919091179055565b6001600160a01b03821661101e576040805162461bcd60e51b815260206004820152601f60248201527f45524332303a206d696e7420746f20746865207a65726f206164647265737300604482015290519081900360640190fd5b61102a60008383610b92565b60025461103790826110b3565b6002556001600160a01b03821660009081526020819052604090205461105d90826110b3565b6001600160a01b0383166000818152602081815260408083209490945583518581529351929391927fddf252ad1be2c89b69c2b068fc378daa952ba7f163c4a11628f55a4df523b3ef9281900390910190a35050565b6000828201838110156108ab576040805162461bcd60e51b815260206004820152601b60248201527f536166654d6174683a206164646974696f6e206f766572666c6f770000000000604482015290519081900360640190fd5b3390565b6001600160a01b0383166111565760405162461bcd60e51b8152600401808060200182810382526024815260200180611a876024913960400191505060405180910390fd5b6001600160a01b03821661119b5760405162461bcd60e51b81526004018080602001828103825260228152602001806119426022913960400191505060405180910390fd5b6001600160a01b03808416600081815260016020908152604080832094871680845294825291829020859055815185815291517f8c5be1e5ebec7d5bd14f71427d1e84f3dd0314c0f7b2291e5b200ac8c7c3b9259281900390910190a3505050565b6001600160a01b0383166112425760405162461bcd60e51b8152600401808060200182810382526025815260200180611a626025913960400191505060405180910390fd5b6001600160a01b0382166112875760405162461bcd60e51b81526004018080602001828103825260238152602001806118d76023913960400191505060405180910390fd5b611292838383610b92565b6112cf81604051806060016040528060268152602001611989602691396001600160a01b0386166000908152602081905260409020549190611358565b6001600160a01b0380851660009081526020819052604080822093909355908416815220546112fe90826110b3565b6001600160a01b038084166000818152602081815260409182902094909455805185815290519193928716927fddf252ad1be2c89b69c2b068fc378daa952ba7f163c4a11628f55a4df523b3ef92918290030190a3505050565b600081848411156113e75760405162461bcd60e51b81526004018080602001828103825283818151815260200191508051906020019080838360005b838110156113ac578181015183820152602001611394565b50505050905090810190601f1680156113d95780820380516001836020036101000a031916815260200191505b509250505060405180910390fd5b505050900390565b6000611403846001600160a01b0316611839565b61140f57506000610e1d565b6000846001600160a01b03166388a7ca5c61142861110d565b8887876040518563ffffffff1660e01b815260040180856001600160a01b03168152602001846001600160a01b0316815260200183815260200180602001828103825283818151815260200191508051906020019080838360005b8381101561149b578181015183820152602001611483565b50505050905090810190601f1680156114c85780820380516001836020036101000a031916815260200191505b5095505050505050602060405180830381600087803b1580156114ea57600080fd5b505af11580156114fe573d6000803e3d6000fd5b505050506040513d602081101561151457600080fd5b50516001600160e01b031916632229f29760e21b14915050949350505050565b61153c61110d565b6001600160a01b031661154d610cd8565b6001600160a01b031614611596576040805162461bcd60e51b815260206004820181905260248201526000805160206119fd833981519152604482015290519081900360640190fd5b610a5e8282610fc3565b6001600160a01b0382166115e55760405162461bcd60e51b8152600401808060200182810382526021815260200180611a416021913960400191505060405180910390fd5b6115f182600083610b92565b61162e816040518060600160405280602281526020016118fa602291396001600160a01b0385166000908152602081905260409020549190611358565b6001600160a01b038316600090815260208190526040902055600254611654908261183f565b6002556040805182815290516000916001600160a01b038516917fddf252ad1be2c89b69c2b068fc378daa952ba7f163c4a11628f55a4df523b3ef9181900360200190a35050565b6116a461110d565b6001600160a01b03166116b5610cd8565b6001600160a01b0316146116fe576040805162461bcd60e51b815260206004820181905260248201526000805160206119fd833981519152604482015290519081900360640190fd5b610be661189c565b600061171a846001600160a01b0316611839565b611726575060006108ab565b6000846001600160a01b0316637b04a2d061173f61110d565b86866040518463ffffffff1660e01b815260040180846001600160a01b0316815260200183815260200180602001828103825283818151815260200191508051906020019080838360005b838110156117a257818101518382015260200161178a565b50505050905090810190601f1680156117cf5780820380516001836020036101000a031916815260200191505b50945050505050602060405180830381600087803b1580156117f057600080fd5b505af1158015611804573d6000803e3d6000fd5b505050506040513d602081101561181a57600080fd5b50516001600160e01b0319166307b04a2d60e41b149150509392505050565b3b151590565b600082821115611896576040805162461bcd60e51b815260206004820152601e60248201527f536166654d6174683a207375627472616374696f6e206f766572666c6f770000604482015290519081900360640190fd5b50900390565b6005805461ff0019166101001790556040517fae5184fba832cb2b1f702aca6117b8d265eaf03ad33eb133f19dde0f5920fa0890600090a156fe45524332303a207472616e7366657220746f20746865207a65726f206164647265737345524332303a206275726e20616d6f756e7420657863656564732062616c616e63654f776e61626c653a206e6577206f776e657220697320746865207a65726f206164647265737345524332303a20617070726f766520746f20746865207a65726f2061646472657373455243313336333a205f636865636b416e6443616c6c417070726f7665207265766572747345524332303a207472616e7366657220616d6f756e7420657863656564732062616c616e6365455243313336333a205f636865636b416e6443616c6c5472616e73666572207265766572747345524332303a207472616e7366657220616d6f756e74206578636565647320616c6c6f77616e63654f776e61626c653a2063616c6c6572206973206e6f7420746865206f776e657245524332303a206275726e20616d6f756e74206578636565647320616c6c6f77616e636545524332303a206275726e2066726f6d20746865207a65726f206164647265737345524332303a207472616e736665722066726f6d20746865207a65726f206164647265737345524332303a20617070726f76652066726f6d20746865207a65726f206164647265737345524332304d696e7461626c653a206d696e74696e672069732066696e697368656445524332303a2064656372656173656420616c6c6f77616e63652062656c6f77207a65726fa26469706673582212205b11c10db7ed4c81278ce9fd189f60db46f376a2dbe64b3c5bc34956d492a29264736f6c63430007060033",
  "immutableReferences": {},
  "source": "// SPDX-License-Identifier: MIT\r\n\r\npragma solidity ^0.7.0;\r\n\r\nimport \"@openzeppelin/contracts/token/ERC20/ERC20Burnable.sol\";\r\n\r\nimport \"erc-payable-token/contracts/token/ERC1363/ERC1363.sol\";\r\n\r\nimport \"eth-token-recover/contracts/TokenRecover.sol\";\r\n\r\nimport \"./behaviours/ERC20Mintable.sol\";\r\nimport \"../../service/ServicePayer.sol\";\r\n\r\n/**\r\n * @title AmazingERC20\r\n * @dev Implementation of the AmazingERC20\r\n */\r\ncontract AmazingERC20 is ERC20Mintable, ERC20Burnable, ERC1363, TokenRecover, ServicePayer {\r\n\r\n    constructor (\r\n        string memory name,\r\n        string memory symbol,\r\n        uint8 decimals,\r\n        uint256 initialBalance,\r\n        address payable feeReceiver\r\n    )\r\n        ERC1363(name, symbol)\r\n        ServicePayer(feeReceiver, \"AmazingERC20\")\r\n        payable\r\n    {\r\n        _setupDecimals(decimals);\r\n        _mint(_msgSender(), initialBalance);\r\n    }\r\n\r\n    /**\r\n     * @dev Function to mint tokens.\r\n     *\r\n     * NOTE: restricting access to addresses with MINTER role. See {ERC20Mintable-mint}.\r\n     *\r\n     * @param account The address that will receive the minted tokens\r\n     * @param amount The amount of tokens to mint\r\n     */\r\n    function _mint(address account, uint256 amount) internal override onlyOwner {\r\n        super._mint(account, amount);\r\n    }\r\n\r\n    /**\r\n     * @dev Function to stop minting new tokens.\r\n     *\r\n     * NOTE: restricting access to owner only. See {ERC20Mintable-finishMinting}.\r\n     */\r\n    function _finishMinting() internal override onlyOwner {\r\n        super._finishMinting();\r\n    }\r\n}\r\n",
  "sourcePath": "Y:/Github/erc20-generator/contracts/token/ERC20/AmazingERC20.sol",
  "compiler": {
    "name": "solc",
    "version": "0.7.6+commit.7338295f.Emscripten.clang"
  },
  "schemaVersion": "3.4.1",
  "updatedAt": "2021-06-03T07:49:22.234Z",
  "devdoc": {
    "details": "Implementation of the AmazingERC20",
    "kind": "dev",
    "methods": {
      "allowance(address,address)": {
        "details": "See {IERC20-allowance}."
      },
      "approve(address,uint256)": {
        "details": "See {IERC20-approve}. Requirements: - `spender` cannot be the zero address."
      },
      "approveAndCall(address,uint256)": {
        "details": "Approve spender to transfer tokens and then execute a callback on recipient.",
        "params": {
          "amount": "The amount allowed to be transferred",
          "spender": "The address allowed to transfer to"
        },
        "returns": {
          "_0": "A boolean that indicates if the operation was successful."
        }
      },
      "approveAndCall(address,uint256,bytes)": {
        "details": "Approve spender to transfer tokens and then execute a callback on recipient.",
        "params": {
          "amount": "The amount allowed to be transferred.",
          "data": "Additional data with no specified format.",
          "spender": "The address allowed to transfer to."
        },
        "returns": {
          "_0": "A boolean that indicates if the operation was successful."
        }
      },
      "balanceOf(address)": {
        "details": "See {IERC20-balanceOf}."
      },
      "burn(uint256)": {
        "details": "Destroys `amount` tokens from the caller. See {ERC20-_burn}."
      },
      "burnFrom(address,uint256)": {
        "details": "Destroys `amount` tokens from `account`, deducting from the caller's allowance. See {ERC20-_burn} and {ERC20-allowance}. Requirements: - the caller must have allowance for ``accounts``'s tokens of at least `amount`."
      },
      "decimals()": {
        "details": "Returns the number of decimals used to get its user representation. For example, if `decimals` equals `2`, a balance of `505` tokens should be displayed to a user as `5,05` (`505 / 10 ** 2`). Tokens usually opt for a value of 18, imitating the relationship between Ether and Wei. This is the value {ERC20} uses, unless {_setupDecimals} is called. NOTE: This information is only used for _display_ purposes: it in no way affects any of the arithmetic of the contract, including {IERC20-balanceOf} and {IERC20-transfer}."
      },
      "decreaseAllowance(address,uint256)": {
        "details": "Atomically decreases the allowance granted to `spender` by the caller. This is an alternative to {approve} that can be used as a mitigation for problems described in {IERC20-approve}. Emits an {Approval} event indicating the updated allowance. Requirements: - `spender` cannot be the zero address. - `spender` must have allowance for the caller of at least `subtractedValue`."
      },
      "finishMinting()": {
        "details": "Function to stop minting new tokens. WARNING: it allows everyone to finish minting. Access controls MUST be defined in derived contracts."
      },
      "increaseAllowance(address,uint256)": {
        "details": "Atomically increases the allowance granted to `spender` by the caller. This is an alternative to {approve} that can be used as a mitigation for problems described in {IERC20-approve}. Emits an {Approval} event indicating the updated allowance. Requirements: - `spender` cannot be the zero address."
      },
      "mint(address,uint256)": {
        "details": "Function to mint tokens. WARNING: it allows everyone to mint new tokens. Access controls MUST be defined in derived contracts.",
        "params": {
          "account": "The address that will receive the minted tokens",
          "amount": "The amount of tokens to mint"
        }
      },
      "mintingFinished()": {
        "returns": {
          "_0": "if minting is finished or not."
        }
      },
      "name()": {
        "details": "Returns the name of the token."
      },
      "owner()": {
        "details": "Returns the address of the current owner."
      },
      "recoverERC20(address,uint256)": {
        "details": "Remember that only owner can call so be careful when use on contracts generated from other contracts.",
        "params": {
          "tokenAddress": "The token contract address",
          "tokenAmount": "Number of tokens to be sent"
        }
      },
      "renounceOwnership()": {
        "details": "Leaves the contract without owner. It will not be possible to call `onlyOwner` functions anymore. Can only be called by the current owner. NOTE: Renouncing ownership will leave the contract without an owner, thereby removing any functionality that is only available to the owner."
      },
      "supportsInterface(bytes4)": {
        "details": "See {IERC165-supportsInterface}. Time complexity O(1), guaranteed to always use less than 30 000 gas."
      },
      "symbol()": {
        "details": "Returns the symbol of the token, usually a shorter version of the name."
      },
      "totalSupply()": {
        "details": "See {IERC20-totalSupply}."
      },
      "transfer(address,uint256)": {
        "details": "See {IERC20-transfer}. Requirements: - `recipient` cannot be the zero address. - the caller must have a balance of at least `amount`."
      },
      "transferAndCall(address,uint256)": {
        "details": "Transfer tokens to a specified address and then execute a callback on recipient.",
        "params": {
          "amount": "The amount to be transferred.",
          "recipient": "The address to transfer to."
        },
        "returns": {
          "_0": "A boolean that indicates if the operation was successful."
        }
      },
      "transferAndCall(address,uint256,bytes)": {
        "details": "Transfer tokens to a specified address and then execute a callback on recipient.",
        "params": {
          "amount": "The amount to be transferred",
          "data": "Additional data with no specified format",
          "recipient": "The address to transfer to"
        },
        "returns": {
          "_0": "A boolean that indicates if the operation was successful."
        }
      },
      "transferFrom(address,address,uint256)": {
        "details": "See {IERC20-transferFrom}. Emits an {Approval} event indicating the updated allowance. This is not required by the EIP. See the note at the beginning of {ERC20}. Requirements: - `sender` and `recipient` cannot be the zero address. - `sender` must have a balance of at least `amount`. - the caller must have allowance for ``sender``'s tokens of at least `amount`."
      },
      "transferFromAndCall(address,address,uint256)": {
        "details": "Transfer tokens from one address to another and then execute a callback on recipient.",
        "params": {
          "amount": "The amount of tokens to be transferred",
          "recipient": "The address which you want to transfer to",
          "sender": "The address which you want to send tokens from"
        },
        "returns": {
          "_0": "A boolean that indicates if the operation was successful."
        }
      },
      "transferFromAndCall(address,address,uint256,bytes)": {
        "details": "Transfer tokens from one address to another and then execute a callback on recipient.",
        "params": {
          "amount": "The amount of tokens to be transferred",
          "data": "Additional data with no specified format",
          "recipient": "The address which you want to transfer to",
          "sender": "The address which you want to send tokens from"
        },
        "returns": {
          "_0": "A boolean that indicates if the operation was successful."
        }
      },
      "transferOwnership(address)": {
        "details": "Transfers ownership of the contract to a new account (`newOwner`). Can only be called by the current owner."
      }
    },
    "title": "AmazingERC20",
    "version": 1
  },
  "userdoc": {
    "kind": "user",
    "methods": {},
    "version": 1
  }
}