{
  "contractName": "CommonERC20",
  "abi": [
    {
      "inputs": [
        {
          "internalType": "string",
          "name": "name",
          "type": "string"
        },
        {
          "internalType": "string",
          "name": "symbol",
          "type": "string"
        },
        {
          "internalType": "uint8",
          "name": "decimals",
          "type": "uint8"
        },
        {
          "internalType": "uint256",
          "name": "cap",
          "type": "uint256"
        },
        {
          "internalType": "uint256",
          "name": "initialBalance",
          "type": "uint256"
        },
        {
          "internalType": "address payable",
          "name": "feeReceiver",
          "type": "address"
        }
      ],
      "stateMutability": "payable",
      "type": "constructor"
    },
    {
      "anonymous": false,
      "inputs": [
        {
          "indexed": true,
          "internalType": "address",
          "name": "owner",
          "type": "address"
        },
        {
          "indexed": true,
          "internalType": "address",
          "name": "spender",
          "type": "address"
        },
        {
          "indexed": false,
          "internalType": "uint256",
          "name": "value",
          "type": "uint256"
        }
      ],
      "name": "Approval",
      "type": "event"
    },
    {
      "anonymous": false,
      "inputs": [],
      "name": "MintFinished",
      "type": "event"
    },
    {
      "anonymous": false,
      "inputs": [
        {
          "indexed": true,
          "internalType": "address",
          "name": "previousOwner",
          "type": "address"
        },
        {
          "indexed": true,
          "internalType": "address",
          "name": "newOwner",
          "type": "address"
        }
      ],
      "name": "OwnershipTransferred",
      "type": "event"
    },
    {
      "anonymous": false,
      "inputs": [
        {
          "indexed": true,
          "internalType": "address",
          "name": "from",
          "type": "address"
        },
        {
          "indexed": true,
          "internalType": "address",
          "name": "to",
          "type": "address"
        },
        {
          "indexed": false,
          "internalType": "uint256",
          "name": "value",
          "type": "uint256"
        }
      ],
      "name": "Transfer",
      "type": "event"
    },
    {
      "inputs": [
        {
          "internalType": "address",
          "name": "owner",
          "type": "address"
        },
        {
          "internalType": "address",
          "name": "spender",
          "type": "address"
        }
      ],
      "name": "allowance",
      "outputs": [
        {
          "internalType": "uint256",
          "name": "",
          "type": "uint256"
        }
      ],
      "stateMutability": "view",
      "type": "function"
    },
    {
      "inputs": [
        {
          "internalType": "address",
          "name": "spender",
          "type": "address"
        },
        {
          "internalType": "uint256",
          "name": "amount",
          "type": "uint256"
        }
      ],
      "name": "approve",
      "outputs": [
        {
          "internalType": "bool",
          "name": "",
          "type": "bool"
        }
      ],
      "stateMutability": "nonpayable",
      "type": "function"
    },
    {
      "inputs": [
        {
          "internalType": "address",
          "name": "account",
          "type": "address"
        }
      ],
      "name": "balanceOf",
      "outputs": [
        {
          "internalType": "uint256",
          "name": "",
          "type": "uint256"
        }
      ],
      "stateMutability": "view",
      "type": "function"
    },
    {
      "inputs": [
        {
          "internalType": "uint256",
          "name": "amount",
          "type": "uint256"
        }
      ],
      "name": "burn",
      "outputs": [],
      "stateMutability": "nonpayable",
      "type": "function"
    },
    {
      "inputs": [
        {
          "internalType": "address",
          "name": "account",
          "type": "address"
        },
        {
          "internalType": "uint256",
          "name": "amount",
          "type": "uint256"
        }
      ],
      "name": "burnFrom",
      "outputs": [],
      "stateMutability": "nonpayable",
      "type": "function"
    },
    {
      "inputs": [],
      "name": "cap",
      "outputs": [
        {
          "internalType": "uint256",
          "name": "",
          "type": "uint256"
        }
      ],
      "stateMutability": "view",
      "type": "function"
    },
    {
      "inputs": [],
      "name": "decimals",
      "outputs": [
        {
          "internalType": "uint8",
          "name": "",
          "type": "uint8"
        }
      ],
      "stateMutability": "view",
      "type": "function"
    },
    {
      "inputs": [
        {
          "internalType": "address",
          "name": "spender",
          "type": "address"
        },
        {
          "internalType": "uint256",
          "name": "subtractedValue",
          "type": "uint256"
        }
      ],
      "name": "decreaseAllowance",
      "outputs": [
        {
          "internalType": "bool",
          "name": "",
          "type": "bool"
        }
      ],
      "stateMutability": "nonpayable",
      "type": "function"
    },
    {
      "inputs": [],
      "name": "finishMinting",
      "outputs": [],
      "stateMutability": "nonpayable",
      "type": "function"
    },
    {
      "inputs": [
        {
          "internalType": "address",
          "name": "spender",
          "type": "address"
        },
        {
          "internalType": "uint256",
          "name": "addedValue",
          "type": "uint256"
        }
      ],
      "name": "increaseAllowance",
      "outputs": [
        {
          "internalType": "bool",
          "name": "",
          "type": "bool"
        }
      ],
      "stateMutability": "nonpayable",
      "type": "function"
    },
    {
      "inputs": [
        {
          "internalType": "address",
          "name": "account",
          "type": "address"
        },
        {
          "internalType": "uint256",
          "name": "amount",
          "type": "uint256"
        }
      ],
      "name": "mint",
      "outputs": [],
      "stateMutability": "nonpayable",
      "type": "function"
    },
    {
      "inputs": [],
      "name": "mintingFinished",
      "outputs": [
        {
          "internalType": "bool",
          "name": "",
          "type": "bool"
        }
      ],
      "stateMutability": "view",
      "type": "function"
    },
    {
      "inputs": [],
      "name": "name",
      "outputs": [
        {
          "internalType": "string",
          "name": "",
          "type": "string"
        }
      ],
      "stateMutability": "view",
      "type": "function"
    },
    {
      "inputs": [],
      "name": "owner",
      "outputs": [
        {
          "internalType": "address",
          "name": "",
          "type": "address"
        }
      ],
      "stateMutability": "view",
      "type": "function"
    },
    {
      "inputs": [],
      "name": "renounceOwnership",
      "outputs": [],
      "stateMutability": "nonpayable",
      "type": "function"
    },
    {
      "inputs": [],
      "name": "symbol",
      "outputs": [
        {
          "internalType": "string",
          "name": "",
          "type": "string"
        }
      ],
      "stateMutability": "view",
      "type": "function"
    },
    {
      "inputs": [],
      "name": "totalSupply",
      "outputs": [
        {
          "internalType": "uint256",
          "name": "",
          "type": "uint256"
        }
      ],
      "stateMutability": "view",
      "type": "function"
    },
    {
      "inputs": [
        {
          "internalType": "address",
          "name": "recipient",
          "type": "address"
        },
        {
          "internalType": "uint256",
          "name": "amount",
          "type": "uint256"
        }
      ],
      "name": "transfer",
      "outputs": [
        {
          "internalType": "bool",
          "name": "",
          "type": "bool"
        }
      ],
      "stateMutability": "nonpayable",
      "type": "function"
    },
    {
      "inputs": [
        {
          "internalType": "address",
          "name": "sender",
          "type": "address"
        },
        {
          "internalType": "address",
          "name": "recipient",
          "type": "address"
        },
        {
          "internalType": "uint256",
          "name": "amount",
          "type": "uint256"
        }
      ],
      "name": "transferFrom",
      "outputs": [
        {
          "internalType": "bool",
          "name": "",
          "type": "bool"
        }
      ],
      "stateMutability": "nonpayable",
      "type": "function"
    },
    {
      "inputs": [
        {
          "internalType": "address",
          "name": "newOwner",
          "type": "address"
        }
      ],
      "name": "transferOwnership",
      "outputs": [],
      "stateMutability": "nonpayable",
      "type": "function"
    }
  ],
  "bytecode": "0x608060408190526007805460ff1916905562001a7d38819003908190833981810160405260c08110156200003257600080fd5b81019080805160405193929190846401000000008211156200005357600080fd5b9083019060208201858111156200006957600080fd5b82516401000000008111828201881017156200008457600080fd5b82525081516020918201929091019080838360005b83811015620000b357818101518382015260200162000099565b50505050905090810190601f168015620000e15780820380516001836020036101000a031916815260200191505b50604052602001805160405193929190846401000000008211156200010557600080fd5b9083019060208201858111156200011b57600080fd5b82516401000000008111828201881017156200013657600080fd5b82525081516020918201929091019080838360005b83811015620001655781810151838201526020016200014b565b50505050905090810190601f168015620001935780820380516001836020036101000a031916815260200191505b506040818152602083810151848301516060860151608090960151858501909452600b85526a0436f6d6d6f6e45524332360ac1b838601528951919750955091928392909186918a918a91620001f09160039190850190620006cc565b50805162000206906004906020840190620006cc565b50506005805460ff19166012179055508062000269576040805162461bcd60e51b815260206004820152601560248201527f45524332304361707065643a2063617020697320300000000000000000000000604482015290519081900360640190fd5b600655600062000278620003c8565b60078054610100600160a81b0319166101006001600160a01b03841690810291909117909155604051919250906000907f8be0079c531659141344cd1fd0a4f28419497f9722a3daafe3b4186f6b6457e0908290a350816001600160a01b0316632b66d72e34836040518363ffffffff1660e01b81526004018080602001828103825283818151815260200191508051906020019080838360005b838110156200032d57818101518382015260200162000313565b50505050905090810190601f1680156200035b5780820380516001836020036101000a031916815260200191505b50925050506000604051808303818588803b1580156200037a57600080fd5b505af11580156200038f573d6000803e3d6000fd5b50505050505050620003a784620003cc60201b60201c565b620003bc620003b5620003c8565b83620003e2565b50505050505062000778565b3390565b6005805460ff191660ff92909216919091179055565b620003ec620003c8565b6001600160a01b0316620003ff62000476565b6001600160a01b0316146200045b576040805162461bcd60e51b815260206004820181905260248201527f4f776e61626c653a2063616c6c6572206973206e6f7420746865206f776e6572604482015290519081900360640190fd5b6200047282826200048a60201b620009c41760201c565b5050565b60075461010090046001600160a01b031690565b6001600160a01b038216620004e6576040805162461bcd60e51b815260206004820152601f60248201527f45524332303a206d696e7420746f20746865207a65726f206164647265737300604482015290519081900360640190fd5b620004f46000838362000599565b6200051081600254620005b660201b62000ab41790919060201c565b6002556001600160a01b038216600090815260208181526040909120546200054391839062000ab4620005b6821b17901c565b6001600160a01b0383166000818152602081815260408083209490945583518581529351929391927fddf252ad1be2c89b69c2b068fc378daa952ba7f163c4a11628f55a4df523b3ef9281900390910190a35050565b620005b18383836200061860201b62000b151760201c565b505050565b60008282018381101562000611576040805162461bcd60e51b815260206004820152601b60248201527f536166654d6174683a206164646974696f6e206f766572666c6f770000000000604482015290519081900360640190fd5b9392505050565b62000630838383620005b160201b620007491760201c565b6001600160a01b038316620005b15762000649620006c0565b6200066c8262000658620006c6565b620005b660201b62000ab41790919060201c565b1115620005b1576040805162461bcd60e51b815260206004820152601960248201527f45524332304361707065643a2063617020657863656564656400000000000000604482015290519081900360640190fd5b60065490565b60025490565b828054600181600116156101000203166002900490600052602060002090601f0160209004810192826200070457600085556200074f565b82601f106200071f57805160ff19168380011785556200074f565b828001600101855582156200074f579182015b828111156200074f57825182559160200191906001019062000732565b506200075d92915062000761565b5090565b5b808211156200075d576000815560010162000762565b6112f580620007886000396000f3fe608060405234801561001057600080fd5b506004361061012c5760003560e01c806370a08231116100ad57806395d89b411161007157806395d89b4114610369578063a457c2d714610371578063a9059cbb1461039d578063dd62ed3e146103c9578063f2fde38b146103f75761012c565b806370a08231146102e3578063715018a61461030957806379cc6790146103115780637d64bcb41461033d5780638da5cb5b146103455761012c565b8063313ce567116100f4578063313ce56714610246578063355274ea14610264578063395093511461026c57806340c10f191461029857806342966c68146102c65761012c565b806305d2035b1461013157806306fdde031461014d578063095ea7b3146101ca57806318160ddd146101f657806323b872dd14610210575b600080fd5b61013961041d565b604080519115158252519081900360200190f35b610155610426565b6040805160208082528351818301528351919283929083019185019080838360005b8381101561018f578181015183820152602001610177565b50505050905090810190601f1680156101bc5780820380516001836020036101000a031916815260200191505b509250505060405180910390f35b610139600480360360408110156101e057600080fd5b506001600160a01b0381351690602001356104bc565b6101fe6104d9565b60408051918252519081900360200190f35b6101396004803603606081101561022657600080fd5b506001600160a01b038135811691602081013590911690604001356104df565b61024e610566565b6040805160ff9092168252519081900360200190f35b6101fe61056f565b6101396004803603604081101561028257600080fd5b506001600160a01b038135169060200135610575565b6102c4600480360360408110156102ae57600080fd5b506001600160a01b0381351690602001356105c3565b005b6102c4600480360360208110156102dc57600080fd5b5035610613565b6101fe600480360360208110156102f957600080fd5b50356001600160a01b0316610627565b6102c4610642565b6102c46004803603604081101561032757600080fd5b506001600160a01b0381351690602001356106f4565b6102c461074e565b61034d61079a565b604080516001600160a01b039092168252519081900360200190f35b6101556107ae565b6101396004803603604081101561038757600080fd5b506001600160a01b03813516906020013561080f565b610139600480360360408110156103b357600080fd5b506001600160a01b038135169060200135610877565b6101fe600480360360408110156103df57600080fd5b506001600160a01b038135811691602001351661088b565b6102c46004803603602081101561040d57600080fd5b50356001600160a01b03166108b6565b60075460ff1690565b60038054604080516020601f60026000196101006001881615020190951694909404938401819004810282018101909252828152606093909290918301828280156104b25780601f10610487576101008083540402835291602001916104b2565b820191906000526020600020905b81548152906001019060200180831161049557829003601f168201915b5050505050905090565b60006104d06104c9610b9b565b8484610b9f565b50600192915050565b60025490565b60006104ec848484610c8b565b61055c846104f8610b9b565b610557856040518060600160405280602881526020016111a3602891396001600160a01b038a16600090815260016020526040812090610536610b9b565b6001600160a01b031681526020810191909152604001600020549190610de6565b610b9f565b5060019392505050565b60055460ff1690565b60065490565b60006104d0610582610b9b565b846105578560016000610593610b9b565b6001600160a01b03908116825260208083019390935260409182016000908120918c168152925290205490610ab4565b60075460ff16156106055760405162461bcd60e51b81526004018080602001828103825260228152602001806112796022913960400191505060405180910390fd5b61060f8282610e7d565b5050565b61062461061e610b9b565b82610ee9565b50565b6001600160a01b031660009081526020819052604090205490565b61064a610b9b565b6001600160a01b031661065b61079a565b6001600160a01b0316146106a4576040805162461bcd60e51b815260206004820181905260248201526000805160206111cb833981519152604482015290519081900360640190fd5b60075460405160009161010090046001600160a01b0316907f8be0079c531659141344cd1fd0a4f28419497f9722a3daafe3b4186f6b6457e0908390a360078054610100600160a81b0319169055565b600061072b826040518060600160405280602481526020016111eb602491396107248661071f610b9b565b61088b565b9190610de6565b905061073f83610739610b9b565b83610b9f565b6107498383610ee9565b505050565b60075460ff16156107905760405162461bcd60e51b81526004018080602001828103825260228152602001806112796022913960400191505060405180910390fd5b610798610fe5565b565b60075461010090046001600160a01b031690565b60048054604080516020601f60026000196101006001881615020190951694909404938401819004810282018101909252828152606093909290918301828280156104b25780601f10610487576101008083540402835291602001916104b2565b60006104d061081c610b9b565b846105578560405180606001604052806025815260200161129b6025913960016000610846610b9b565b6001600160a01b03908116825260208083019390935260409182016000908120918d16815292529020549190610de6565b60006104d0610884610b9b565b8484610c8b565b6001600160a01b03918216600090815260016020908152604080832093909416825291909152205490565b6108be610b9b565b6001600160a01b03166108cf61079a565b6001600160a01b031614610918576040805162461bcd60e51b815260206004820181905260248201526000805160206111cb833981519152604482015290519081900360640190fd5b6001600160a01b03811661095d5760405162461bcd60e51b81526004018080602001828103825260268152602001806111356026913960400191505060405180910390fd5b6007546040516001600160a01b0380841692610100900416907f8be0079c531659141344cd1fd0a4f28419497f9722a3daafe3b4186f6b6457e090600090a3600780546001600160a01b0390921661010002610100600160a81b0319909216919091179055565b6001600160a01b038216610a1f576040805162461bcd60e51b815260206004820152601f60248201527f45524332303a206d696e7420746f20746865207a65726f206164647265737300604482015290519081900360640190fd5b610a2b6000838361104f565b600254610a389082610ab4565b6002556001600160a01b038216600090815260208190526040902054610a5e9082610ab4565b6001600160a01b0383166000818152602081815260408083209490945583518581529351929391927fddf252ad1be2c89b69c2b068fc378daa952ba7f163c4a11628f55a4df523b3ef9281900390910190a35050565b600082820183811015610b0e576040805162461bcd60e51b815260206004820152601b60248201527f536166654d6174683a206164646974696f6e206f766572666c6f770000000000604482015290519081900360640190fd5b9392505050565b610b20838383610749565b6001600160a01b03831661074957610b3661056f565b610b4882610b426104d9565b90610ab4565b1115610749576040805162461bcd60e51b815260206004820152601960248201527f45524332304361707065643a2063617020657863656564656400000000000000604482015290519081900360640190fd5b3390565b6001600160a01b038316610be45760405162461bcd60e51b81526004018080602001828103825260248152602001806112556024913960400191505060405180910390fd5b6001600160a01b038216610c295760405162461bcd60e51b815260040180806020018281038252602281526020018061115b6022913960400191505060405180910390fd5b6001600160a01b03808416600081815260016020908152604080832094871680845294825291829020859055815185815291517f8c5be1e5ebec7d5bd14f71427d1e84f3dd0314c0f7b2291e5b200ac8c7c3b9259281900390910190a3505050565b6001600160a01b038316610cd05760405162461bcd60e51b81526004018080602001828103825260258152602001806112306025913960400191505060405180910390fd5b6001600160a01b038216610d155760405162461bcd60e51b81526004018080602001828103825260238152602001806110f06023913960400191505060405180910390fd5b610d2083838361104f565b610d5d8160405180606001604052806026815260200161117d602691396001600160a01b0386166000908152602081905260409020549190610de6565b6001600160a01b038085166000908152602081905260408082209390935590841681522054610d8c9082610ab4565b6001600160a01b038084166000818152602081815260409182902094909455805185815290519193928716927fddf252ad1be2c89b69c2b068fc378daa952ba7f163c4a11628f55a4df523b3ef92918290030190a3505050565b60008184841115610e755760405162461bcd60e51b81526004018080602001828103825283818151815260200191508051906020019080838360005b83811015610e3a578181015183820152602001610e22565b50505050905090810190601f168015610e675780820380516001836020036101000a031916815260200191505b509250505060405180910390fd5b505050900390565b610e85610b9b565b6001600160a01b0316610e9661079a565b6001600160a01b031614610edf576040805162461bcd60e51b815260206004820181905260248201526000805160206111cb833981519152604482015290519081900360640190fd5b61060f82826109c4565b6001600160a01b038216610f2e5760405162461bcd60e51b815260040180806020018281038252602181526020018061120f6021913960400191505060405180910390fd5b610f3a8260008361104f565b610f7781604051806060016040528060228152602001611113602291396001600160a01b0385166000908152602081905260409020549190610de6565b6001600160a01b038316600090815260208190526040902055600254610f9d908261105a565b6002556040805182815290516000916001600160a01b038516917fddf252ad1be2c89b69c2b068fc378daa952ba7f163c4a11628f55a4df523b3ef9181900360200190a35050565b610fed610b9b565b6001600160a01b0316610ffe61079a565b6001600160a01b031614611047576040805162461bcd60e51b815260206004820181905260248201526000805160206111cb833981519152604482015290519081900360640190fd5b6107986110b7565b610749838383610b15565b6000828211156110b1576040805162461bcd60e51b815260206004820152601e60248201527f536166654d6174683a207375627472616374696f6e206f766572666c6f770000604482015290519081900360640190fd5b50900390565b6007805460ff191660011790556040517fae5184fba832cb2b1f702aca6117b8d265eaf03ad33eb133f19dde0f5920fa0890600090a156fe45524332303a207472616e7366657220746f20746865207a65726f206164647265737345524332303a206275726e20616d6f756e7420657863656564732062616c616e63654f776e61626c653a206e6577206f776e657220697320746865207a65726f206164647265737345524332303a20617070726f766520746f20746865207a65726f206164647265737345524332303a207472616e7366657220616d6f756e7420657863656564732062616c616e636545524332303a207472616e7366657220616d6f756e74206578636565647320616c6c6f77616e63654f776e61626c653a2063616c6c6572206973206e6f7420746865206f776e657245524332303a206275726e20616d6f756e74206578636565647320616c6c6f77616e636545524332303a206275726e2066726f6d20746865207a65726f206164647265737345524332303a207472616e736665722066726f6d20746865207a65726f206164647265737345524332303a20617070726f76652066726f6d20746865207a65726f206164647265737345524332304d696e7461626c653a206d696e74696e672069732066696e697368656445524332303a2064656372656173656420616c6c6f77616e63652062656c6f77207a65726fa2646970667358221220a8d1be8244c44b66b3602110a3efc15b3bac62a14b0488b8d4fc6900f3c56f1064736f6c63430007060033",
  "immutableReferences": {},
  "source": "// SPDX-License-Identifier: MIT\r\n\r\npragma solidity ^0.7.0;\r\n\r\nimport \"@openzeppelin/contracts/access/Ownable.sol\";\r\nimport \"@openzeppelin/contracts/token/ERC20/ERC20Capped.sol\";\r\nimport \"@openzeppelin/contracts/token/ERC20/ERC20Burnable.sol\";\r\n\r\nimport \"./behaviours/ERC20Mintable.sol\";\r\nimport \"../../service/ServicePayer.sol\";\r\n\r\n/**\r\n * @title CommonERC20\r\n * @dev Implementation of the CommonERC20\r\n */\r\ncontract CommonERC20 is ERC20Capped, ERC20Mintable, ERC20Burnable, Ownable, ServicePayer {\r\n\r\n    constructor (\r\n        string memory name,\r\n        string memory symbol,\r\n        uint8 decimals,\r\n        uint256 cap,\r\n        uint256 initialBalance,\r\n        address payable feeReceiver\r\n    )\r\n        ERC20(name, symbol)\r\n        ERC20Capped(cap)\r\n        ServicePayer(feeReceiver, \"CommonERC20\")\r\n        payable\r\n    {\r\n        _setupDecimals(decimals);\r\n        _mint(_msgSender(), initialBalance);\r\n    }\r\n\r\n    /**\r\n     * @dev Function to mint tokens.\r\n     *\r\n     * NOTE: restricting access to owner only. See {ERC20Mintable-mint}.\r\n     *\r\n     * @param account The address that will receive the minted tokens\r\n     * @param amount The amount of tokens to mint\r\n     */\r\n    function _mint(address account, uint256 amount) internal override onlyOwner {\r\n        super._mint(account, amount);\r\n    }\r\n\r\n    /**\r\n     * @dev Function to stop minting new tokens.\r\n     *\r\n     * NOTE: restricting access to owner only. See {ERC20Mintable-finishMinting}.\r\n     */\r\n    function _finishMinting() internal override onlyOwner {\r\n        super._finishMinting();\r\n    }\r\n\r\n    /**\r\n     * @dev See {ERC20-_beforeTokenTransfer}. See {ERC20Capped-_beforeTokenTransfer}.\r\n     */\r\n    function _beforeTokenTransfer(address from, address to, uint256 amount) internal override(ERC20, ERC20Capped) {\r\n        super._beforeTokenTransfer(from, to, amount);\r\n    }\r\n}\r\n",
  "sourcePath": "Y:/Github/erc20-generator/contracts/token/ERC20/CommonERC20.sol",
  "compiler": {
    "name": "solc",
    "version": "0.7.6+commit.7338295f.Emscripten.clang"
  },
  "schemaVersion": "3.4.1",
  "updatedAt": "2021-06-03T07:49:22.257Z",
  "devdoc": {
    "details": "Implementation of the CommonERC20",
    "kind": "dev",
    "methods": {
      "allowance(address,address)": {
        "details": "See {IERC20-allowance}."
      },
      "approve(address,uint256)": {
        "details": "See {IERC20-approve}. Requirements: - `spender` cannot be the zero address."
      },
      "balanceOf(address)": {
        "details": "See {IERC20-balanceOf}."
      },
      "burn(uint256)": {
        "details": "Destroys `amount` tokens from the caller. See {ERC20-_burn}."
      },
      "burnFrom(address,uint256)": {
        "details": "Destroys `amount` tokens from `account`, deducting from the caller's allowance. See {ERC20-_burn} and {ERC20-allowance}. Requirements: - the caller must have allowance for ``accounts``'s tokens of at least `amount`."
      },
      "cap()": {
        "details": "Returns the cap on the token's total supply."
      },
      "decimals()": {
        "details": "Returns the number of decimals used to get its user representation. For example, if `decimals` equals `2`, a balance of `505` tokens should be displayed to a user as `5,05` (`505 / 10 ** 2`). Tokens usually opt for a value of 18, imitating the relationship between Ether and Wei. This is the value {ERC20} uses, unless {_setupDecimals} is called. NOTE: This information is only used for _display_ purposes: it in no way affects any of the arithmetic of the contract, including {IERC20-balanceOf} and {IERC20-transfer}."
      },
      "decreaseAllowance(address,uint256)": {
        "details": "Atomically decreases the allowance granted to `spender` by the caller. This is an alternative to {approve} that can be used as a mitigation for problems described in {IERC20-approve}. Emits an {Approval} event indicating the updated allowance. Requirements: - `spender` cannot be the zero address. - `spender` must have allowance for the caller of at least `subtractedValue`."
      },
      "finishMinting()": {
        "details": "Function to stop minting new tokens. WARNING: it allows everyone to finish minting. Access controls MUST be defined in derived contracts."
      },
      "increaseAllowance(address,uint256)": {
        "details": "Atomically increases the allowance granted to `spender` by the caller. This is an alternative to {approve} that can be used as a mitigation for problems described in {IERC20-approve}. Emits an {Approval} event indicating the updated allowance. Requirements: - `spender` cannot be the zero address."
      },
      "mint(address,uint256)": {
        "details": "Function to mint tokens. WARNING: it allows everyone to mint new tokens. Access controls MUST be defined in derived contracts.",
        "params": {
          "account": "The address that will receive the minted tokens",
          "amount": "The amount of tokens to mint"
        }
      },
      "mintingFinished()": {
        "returns": {
          "_0": "if minting is finished or not."
        }
      },
      "name()": {
        "details": "Returns the name of the token."
      },
      "owner()": {
        "details": "Returns the address of the current owner."
      },
      "renounceOwnership()": {
        "details": "Leaves the contract without owner. It will not be possible to call `onlyOwner` functions anymore. Can only be called by the current owner. NOTE: Renouncing ownership will leave the contract without an owner, thereby removing any functionality that is only available to the owner."
      },
      "symbol()": {
        "details": "Returns the symbol of the token, usually a shorter version of the name."
      },
      "totalSupply()": {
        "details": "See {IERC20-totalSupply}."
      },
      "transfer(address,uint256)": {
        "details": "See {IERC20-transfer}. Requirements: - `recipient` cannot be the zero address. - the caller must have a balance of at least `amount`."
      },
      "transferFrom(address,address,uint256)": {
        "details": "See {IERC20-transferFrom}. Emits an {Approval} event indicating the updated allowance. This is not required by the EIP. See the note at the beginning of {ERC20}. Requirements: - `sender` and `recipient` cannot be the zero address. - `sender` must have a balance of at least `amount`. - the caller must have allowance for ``sender``'s tokens of at least `amount`."
      },
      "transferOwnership(address)": {
        "details": "Transfers ownership of the contract to a new account (`newOwner`). Can only be called by the current owner."
      }
    },
    "title": "CommonERC20",
    "version": 1
  },
  "userdoc": {
    "kind": "user",
    "methods": {},
    "version": 1
  }
}