{
  "contractName": "ERC1363ReceiverMock",
  "abi": [
    {
      "inputs": [
        {
          "internalType": "bytes4",
          "name": "retval",
          "type": "bytes4"
        },
        {
          "internalType": "bool",
          "name": "reverts",
          "type": "bool"
        }
      ],
      "stateMutability": "nonpayable",
      "type": "constructor"
    },
    {
      "anonymous": false,
      "inputs": [
        {
          "indexed": false,
          "internalType": "address",
          "name": "operator",
          "type": "address"
        },
        {
          "indexed": false,
          "internalType": "address",
          "name": "sender",
          "type": "address"
        },
        {
          "indexed": false,
          "internalType": "uint256",
          "name": "amount",
          "type": "uint256"
        },
        {
          "indexed": false,
          "internalType": "bytes",
          "name": "data",
          "type": "bytes"
        },
        {
          "indexed": false,
          "internalType": "uint256",
          "name": "gas",
          "type": "uint256"
        }
      ],
      "name": "Received",
      "type": "event"
    },
    {
      "inputs": [
        {
          "internalType": "address",
          "name": "operator",
          "type": "address"
        },
        {
          "internalType": "address",
          "name": "sender",
          "type": "address"
        },
        {
          "internalType": "uint256",
          "name": "amount",
          "type": "uint256"
        },
        {
          "internalType": "bytes",
          "name": "data",
          "type": "bytes"
        }
      ],
      "name": "onTransferReceived",
      "outputs": [
        {
          "internalType": "bytes4",
          "name": "",
          "type": "bytes4"
        }
      ],
      "stateMutability": "nonpayable",
      "type": "function"
    }
  ],
  "bytecode": "0x608060405234801561001057600080fd5b506040516102fd3803806102fd8339818101604052604081101561003357600080fd5b508051602090910151600080549115156401000000000260ff60201b1960e09490941c63ffffffff199093169290921792909216179055610284806100796000396000f3fe608060405234801561001057600080fd5b506004361061002b5760003560e01c806388a7ca5c14610030575b600080fd5b6100f66004803603608081101561004657600080fd5b6001600160a01b0382358116926020810135909116916040820135919081019060808101606082013564010000000081111561008157600080fd5b82018360208201111561009357600080fd5b803590602001918460018302840111640100000000831117156100b557600080fd5b91908080601f016020809104026020016040519081016040528093929190818152602001838380828437600092019190915250929550610113945050505050565b604080516001600160e01b03199092168252519081900360200190f35b60008054640100000000900460ff1615610174576040805162461bcd60e51b815260206004820152601d60248201527f4552433133363352656365697665724d6f636b3a207468726f77696e67000000604482015290519081900360640190fd5b7f28fa6e16458f9c24aa59ddd4085264573006dbe30304837873c7deafc702b038858585855a60405180866001600160a01b03168152602001856001600160a01b0316815260200184815260200180602001838152602001828103825284818151815260200191508051906020019080838360005b838110156102015781810151838201526020016101e9565b50505050905090810190601f16801561022e5780820380516001836020036101000a031916815260200191505b50965050505050505060405180910390a15060005460e01b94935050505056fea26469706673582212207040cb7895d17fb81b0bbc5832b184b92e396896b5d9ae63e6db5309902b382e64736f6c63430007060033",
  "immutableReferences": {},
  "source": "// SPDX-License-Identifier: MIT\r\n\r\npragma solidity ^0.7.0;\r\n\r\nimport \"erc-payable-token/contracts/token/ERC1363/IERC1363Receiver.sol\";\r\n\r\n// mock class using IERC1363Receiver\r\ncontract ERC1363ReceiverMock is IERC1363Receiver {\r\n    bytes4 private _retval;\r\n    bool private _reverts;\r\n\r\n    event Received(\r\n        address operator,\r\n        address sender,\r\n        uint256 amount,\r\n        bytes data,\r\n        uint256 gas\r\n    );\r\n\r\n    constructor(bytes4 retval, bool reverts) {\r\n        _retval = retval;\r\n        _reverts = reverts;\r\n    }\r\n\r\n    function onTransferReceived(address operator, address sender, uint256 amount, bytes memory data) public override returns (bytes4) {\r\n        require(!_reverts, \"ERC1363ReceiverMock: throwing\");\r\n        emit Received(operator, sender, amount, data, gasleft());\r\n        return _retval;\r\n    }\r\n}\r\n",
  "sourcePath": "Y:/Github/erc20-generator/contracts/mocks/ERC1363ReceiverMock.sol",
  "compiler": {
    "name": "solc",
    "version": "0.7.6+commit.7338295f.Emscripten.clang"
  },
  "schemaVersion": "3.4.1",
  "updatedAt": "2021-06-03T07:49:22.157Z",
  "devdoc": {
    "kind": "dev",
    "methods": {
      "onTransferReceived(address,address,uint256,bytes)": {
        "details": "Any ERC1363 smart contract calls this function on the recipient after a `transfer` or a `transferFrom`. This function MAY throw to revert and reject the transfer. Return of other than the magic value MUST result in the transaction being reverted. Note: the token contract address is always the message sender.",
        "params": {
          "amount": "uint256 The amount of tokens transferred",
          "data": "bytes Additional data with no specified format",
          "operator": "address The address which called `transferAndCall` or `transferFromAndCall` function",
          "sender": "address The address which are token transferred from"
        },
        "returns": {
          "_0": "`bytes4(keccak256(\"onTransferReceived(address,address,uint256,bytes)\"))` unless throwing"
        }
      }
    },
    "version": 1
  },
  "userdoc": {
    "kind": "user",
    "methods": {
      "onTransferReceived(address,address,uint256,bytes)": {
        "notice": "Handle the receipt of ERC1363 tokens"
      }
    },
    "version": 1
  }
}