{
  "contractName": "ERC1363SpenderMock",
  "abi": [
    {
      "inputs": [
        {
          "internalType": "bytes4",
          "name": "retval",
          "type": "bytes4"
        },
        {
          "internalType": "bool",
          "name": "reverts",
          "type": "bool"
        }
      ],
      "stateMutability": "nonpayable",
      "type": "constructor"
    },
    {
      "anonymous": false,
      "inputs": [
        {
          "indexed": false,
          "internalType": "address",
          "name": "sender",
          "type": "address"
        },
        {
          "indexed": false,
          "internalType": "uint256",
          "name": "amount",
          "type": "uint256"
        },
        {
          "indexed": false,
          "internalType": "bytes",
          "name": "data",
          "type": "bytes"
        },
        {
          "indexed": false,
          "internalType": "uint256",
          "name": "gas",
          "type": "uint256"
        }
      ],
      "name": "Approved",
      "type": "event"
    },
    {
      "inputs": [
        {
          "internalType": "address",
          "name": "sender",
          "type": "address"
        },
        {
          "internalType": "uint256",
          "name": "amount",
          "type": "uint256"
        },
        {
          "internalType": "bytes",
          "name": "data",
          "type": "bytes"
        }
      ],
      "name": "onApprovalReceived",
      "outputs": [
        {
          "internalType": "bytes4",
          "name": "",
          "type": "bytes4"
        }
      ],
      "stateMutability": "nonpayable",
      "type": "function"
    }
  ],
  "bytecode": "0x608060405234801561001057600080fd5b506040516102e03803806102e08339818101604052604081101561003357600080fd5b508051602090910151600080549115156401000000000260ff60201b1960e09490941c63ffffffff199093169290921792909216179055610267806100796000396000f3fe608060405234801561001057600080fd5b506004361061002b5760003560e01c80637b04a2d014610030575b600080fd5b6100eb6004803603606081101561004657600080fd5b6001600160a01b038235169160208101359181019060608101604082013564010000000081111561007657600080fd5b82018360208201111561008857600080fd5b803590602001918460018302840111640100000000831117156100aa57600080fd5b91908080601f016020809104026020016040519081016040528093929190818152602001838380828437600092019190915250929550610108945050505050565b604080516001600160e01b03199092168252519081900360200190f35b60008054640100000000900460ff1615610169576040805162461bcd60e51b815260206004820152601c60248201527f455243313336335370656e6465724d6f636b3a207468726f77696e6700000000604482015290519081900360640190fd5b7fe7c2bad6c6b2105a7cfcf604a9b58fc7f698a6bd195c88ea6242427303eaa51b8484845a60405180856001600160a01b0316815260200184815260200180602001838152602001828103825284818151815260200191508051906020019080838360005b838110156101e65781810151838201526020016101ce565b50505050905090810190601f1680156102135780820380516001836020036101000a031916815260200191505b509550505050505060405180910390a15060005460e01b939250505056fea264697066735822122084a1c0ebf2d5b87cdc409d6f6eef6540006f9f8c969910c814314b0f43fb211364736f6c63430007060033",
  "immutableReferences": {},
  "source": "// SPDX-License-Identifier: MIT\r\n\r\npragma solidity ^0.7.0;\r\n\r\nimport \"erc-payable-token/contracts/token/ERC1363/IERC1363Spender.sol\";\r\n\r\n// mock class using IERC1363Spender\r\ncontract ERC1363SpenderMock is IERC1363Spender {\r\n    bytes4 private _retval;\r\n    bool private _reverts;\r\n\r\n    event Approved(\r\n        address sender,\r\n        uint256 amount,\r\n        bytes data,\r\n        uint256 gas\r\n    );\r\n\r\n    constructor(bytes4 retval, bool reverts) {\r\n        _retval = retval;\r\n        _reverts = reverts;\r\n    }\r\n\r\n    function onApprovalReceived(address sender, uint256 amount, bytes memory data) public override returns (bytes4) {\r\n        require(!_reverts, \"ERC1363SpenderMock: throwing\");\r\n        emit Approved(sender, amount, data, gasleft());\r\n        return _retval;\r\n    }\r\n}\r\n",
  "sourcePath": "Y:/Github/erc20-generator/contracts/mocks/ERC1363SpenderMock.sol",
  "compiler": {
    "name": "solc",
    "version": "0.7.6+commit.7338295f.Emscripten.clang"
  },
  "schemaVersion": "3.4.1",
  "updatedAt": "2021-06-03T07:49:22.160Z",
  "devdoc": {
    "kind": "dev",
    "methods": {
      "onApprovalReceived(address,uint256,bytes)": {
        "details": "Any ERC1363 smart contract calls this function on the recipient after an `approve`. This function MAY throw to revert and reject the approval. Return of other than the magic value MUST result in the transaction being reverted. Note: the token contract address is always the message sender.",
        "params": {
          "amount": "uint256 The amount of tokens to be spent",
          "data": "bytes Additional data with no specified format",
          "sender": "address The address which called `approveAndCall` function"
        },
        "returns": {
          "_0": "`bytes4(keccak256(\"onApprovalReceived(address,uint256,bytes)\"))` unless throwing"
        }
      }
    },
    "version": 1
  },
  "userdoc": {
    "kind": "user",
    "methods": {
      "onApprovalReceived(address,uint256,bytes)": {
        "notice": "Handle the approval of ERC1363 tokens"
      }
    },
    "version": 1
  }
}