{
  "contractName": "MintableERC20",
  "abi": [
    {
      "inputs": [
        {
          "internalType": "string",
          "name": "name",
          "type": "string"
        },
        {
          "internalType": "string",
          "name": "symbol",
          "type": "string"
        },
        {
          "internalType": "uint8",
          "name": "decimals",
          "type": "uint8"
        },
        {
          "internalType": "uint256",
          "name": "cap",
          "type": "uint256"
        },
        {
          "internalType": "uint256",
          "name": "initialBalance",
          "type": "uint256"
        },
        {
          "internalType": "address payable",
          "name": "feeReceiver",
          "type": "address"
        }
      ],
      "stateMutability": "payable",
      "type": "constructor"
    },
    {
      "anonymous": false,
      "inputs": [
        {
          "indexed": true,
          "internalType": "address",
          "name": "owner",
          "type": "address"
        },
        {
          "indexed": true,
          "internalType": "address",
          "name": "spender",
          "type": "address"
        },
        {
          "indexed": false,
          "internalType": "uint256",
          "name": "value",
          "type": "uint256"
        }
      ],
      "name": "Approval",
      "type": "event"
    },
    {
      "anonymous": false,
      "inputs": [],
      "name": "MintFinished",
      "type": "event"
    },
    {
      "anonymous": false,
      "inputs": [
        {
          "indexed": true,
          "internalType": "address",
          "name": "previousOwner",
          "type": "address"
        },
        {
          "indexed": true,
          "internalType": "address",
          "name": "newOwner",
          "type": "address"
        }
      ],
      "name": "OwnershipTransferred",
      "type": "event"
    },
    {
      "anonymous": false,
      "inputs": [
        {
          "indexed": true,
          "internalType": "address",
          "name": "from",
          "type": "address"
        },
        {
          "indexed": true,
          "internalType": "address",
          "name": "to",
          "type": "address"
        },
        {
          "indexed": false,
          "internalType": "uint256",
          "name": "value",
          "type": "uint256"
        }
      ],
      "name": "Transfer",
      "type": "event"
    },
    {
      "inputs": [
        {
          "internalType": "address",
          "name": "owner",
          "type": "address"
        },
        {
          "internalType": "address",
          "name": "spender",
          "type": "address"
        }
      ],
      "name": "allowance",
      "outputs": [
        {
          "internalType": "uint256",
          "name": "",
          "type": "uint256"
        }
      ],
      "stateMutability": "view",
      "type": "function"
    },
    {
      "inputs": [
        {
          "internalType": "address",
          "name": "spender",
          "type": "address"
        },
        {
          "internalType": "uint256",
          "name": "amount",
          "type": "uint256"
        }
      ],
      "name": "approve",
      "outputs": [
        {
          "internalType": "bool",
          "name": "",
          "type": "bool"
        }
      ],
      "stateMutability": "nonpayable",
      "type": "function"
    },
    {
      "inputs": [
        {
          "internalType": "address",
          "name": "account",
          "type": "address"
        }
      ],
      "name": "balanceOf",
      "outputs": [
        {
          "internalType": "uint256",
          "name": "",
          "type": "uint256"
        }
      ],
      "stateMutability": "view",
      "type": "function"
    },
    {
      "inputs": [],
      "name": "cap",
      "outputs": [
        {
          "internalType": "uint256",
          "name": "",
          "type": "uint256"
        }
      ],
      "stateMutability": "view",
      "type": "function"
    },
    {
      "inputs": [],
      "name": "decimals",
      "outputs": [
        {
          "internalType": "uint8",
          "name": "",
          "type": "uint8"
        }
      ],
      "stateMutability": "view",
      "type": "function"
    },
    {
      "inputs": [
        {
          "internalType": "address",
          "name": "spender",
          "type": "address"
        },
        {
          "internalType": "uint256",
          "name": "subtractedValue",
          "type": "uint256"
        }
      ],
      "name": "decreaseAllowance",
      "outputs": [
        {
          "internalType": "bool",
          "name": "",
          "type": "bool"
        }
      ],
      "stateMutability": "nonpayable",
      "type": "function"
    },
    {
      "inputs": [],
      "name": "finishMinting",
      "outputs": [],
      "stateMutability": "nonpayable",
      "type": "function"
    },
    {
      "inputs": [
        {
          "internalType": "address",
          "name": "spender",
          "type": "address"
        },
        {
          "internalType": "uint256",
          "name": "addedValue",
          "type": "uint256"
        }
      ],
      "name": "increaseAllowance",
      "outputs": [
        {
          "internalType": "bool",
          "name": "",
          "type": "bool"
        }
      ],
      "stateMutability": "nonpayable",
      "type": "function"
    },
    {
      "inputs": [
        {
          "internalType": "address",
          "name": "account",
          "type": "address"
        },
        {
          "internalType": "uint256",
          "name": "amount",
          "type": "uint256"
        }
      ],
      "name": "mint",
      "outputs": [],
      "stateMutability": "nonpayable",
      "type": "function"
    },
    {
      "inputs": [],
      "name": "mintingFinished",
      "outputs": [
        {
          "internalType": "bool",
          "name": "",
          "type": "bool"
        }
      ],
      "stateMutability": "view",
      "type": "function"
    },
    {
      "inputs": [],
      "name": "name",
      "outputs": [
        {
          "internalType": "string",
          "name": "",
          "type": "string"
        }
      ],
      "stateMutability": "view",
      "type": "function"
    },
    {
      "inputs": [],
      "name": "owner",
      "outputs": [
        {
          "internalType": "address",
          "name": "",
          "type": "address"
        }
      ],
      "stateMutability": "view",
      "type": "function"
    },
    {
      "inputs": [],
      "name": "renounceOwnership",
      "outputs": [],
      "stateMutability": "nonpayable",
      "type": "function"
    },
    {
      "inputs": [],
      "name": "symbol",
      "outputs": [
        {
          "internalType": "string",
          "name": "",
          "type": "string"
        }
      ],
      "stateMutability": "view",
      "type": "function"
    },
    {
      "inputs": [],
      "name": "totalSupply",
      "outputs": [
        {
          "internalType": "uint256",
          "name": "",
          "type": "uint256"
        }
      ],
      "stateMutability": "view",
      "type": "function"
    },
    {
      "inputs": [
        {
          "internalType": "address",
          "name": "recipient",
          "type": "address"
        },
        {
          "internalType": "uint256",
          "name": "amount",
          "type": "uint256"
        }
      ],
      "name": "transfer",
      "outputs": [
        {
          "internalType": "bool",
          "name": "",
          "type": "bool"
        }
      ],
      "stateMutability": "nonpayable",
      "type": "function"
    },
    {
      "inputs": [
        {
          "internalType": "address",
          "name": "sender",
          "type": "address"
        },
        {
          "internalType": "address",
          "name": "recipient",
          "type": "address"
        },
        {
          "internalType": "uint256",
          "name": "amount",
          "type": "uint256"
        }
      ],
      "name": "transferFrom",
      "outputs": [
        {
          "internalType": "bool",
          "name": "",
          "type": "bool"
        }
      ],
      "stateMutability": "nonpayable",
      "type": "function"
    },
    {
      "inputs": [
        {
          "internalType": "address",
          "name": "newOwner",
          "type": "address"
        }
      ],
      "name": "transferOwnership",
      "outputs": [],
      "stateMutability": "nonpayable",
      "type": "function"
    }
  ],
  "bytecode": "0x608060408190526007805460ff19169055620017f738819003908190833981810160405260c08110156200003257600080fd5b81019080805160405193929190846401000000008211156200005357600080fd5b9083019060208201858111156200006957600080fd5b82516401000000008111828201881017156200008457600080fd5b82525081516020918201929091019080838360005b83811015620000b357818101518382015260200162000099565b50505050905090810190601f168015620000e15780820380516001836020036101000a031916815260200191505b50604052602001805160405193929190846401000000008211156200010557600080fd5b9083019060208201858111156200011b57600080fd5b82516401000000008111828201881017156200013657600080fd5b82525081516020918201929091019080838360005b83811015620001655781810151838201526020016200014b565b50505050905090810190601f168015620001935780820380516001836020036101000a031916815260200191505b506040818152602083810151848301516060860151608090960151858501909452600d85526c04d696e7461626c65455243323609c1b838601528951919750955091928392909186918a918a91620001f29160039190850190620006ce565b50805162000208906004906020840190620006ce565b50506005805460ff1916601217905550806200026b576040805162461bcd60e51b815260206004820152601560248201527f45524332304361707065643a2063617020697320300000000000000000000000604482015290519081900360640190fd5b60065560006200027a620003ca565b60078054610100600160a81b0319166101006001600160a01b03841690810291909117909155604051919250906000907f8be0079c531659141344cd1fd0a4f28419497f9722a3daafe3b4186f6b6457e0908290a350816001600160a01b0316632b66d72e34836040518363ffffffff1660e01b81526004018080602001828103825283818151815260200191508051906020019080838360005b838110156200032f57818101518382015260200162000315565b50505050905090810190601f1680156200035d5780820380516001836020036101000a031916815260200191505b50925050506000604051808303818588803b1580156200037c57600080fd5b505af115801562000391573d6000803e3d6000fd5b50505050505050620003a984620003ce60201b60201c565b620003be620003b7620003ca565b83620003e4565b5050505050506200077a565b3390565b6005805460ff191660ff92909216919091179055565b620003ee620003ca565b6001600160a01b03166200040162000478565b6001600160a01b0316146200045d576040805162461bcd60e51b815260206004820181905260248201527f4f776e61626c653a2063616c6c6572206973206e6f7420746865206f776e6572604482015290519081900360640190fd5b6200047482826200048c60201b620008f71760201c565b5050565b60075461010090046001600160a01b031690565b6001600160a01b038216620004e8576040805162461bcd60e51b815260206004820152601f60248201527f45524332303a206d696e7420746f20746865207a65726f206164647265737300604482015290519081900360640190fd5b620004f6600083836200059b565b6200051281600254620005b860201b620009e71790919060201c565b6002556001600160a01b0382166000908152602081815260409091205462000545918390620009e7620005b8821b17901c565b6001600160a01b0383166000818152602081815260408083209490945583518581529351929391927fddf252ad1be2c89b69c2b068fc378daa952ba7f163c4a11628f55a4df523b3ef9281900390910190a35050565b620005b38383836200061a60201b62000a481760201c565b505050565b60008282018381101562000613576040805162461bcd60e51b815260206004820152601b60248201527f536166654d6174683a206164646974696f6e206f766572666c6f770000000000604482015290519081900360640190fd5b9392505050565b62000632838383620005b360201b62000ace1760201c565b6001600160a01b038316620005b3576200064b620006c2565b6200066e826200065a620006c8565b620005b860201b620009e71790919060201c565b1115620005b3576040805162461bcd60e51b815260206004820152601960248201527f45524332304361707065643a2063617020657863656564656400000000000000604482015290519081900360640190fd5b60065490565b60025490565b828054600181600116156101000203166002900490600052602060002090601f01602090048101928262000706576000855562000751565b82601f106200072157805160ff191683800117855562000751565b8280016001018555821562000751579182015b828111156200075157825182559160200191906001019062000734565b506200075f92915062000763565b5090565b5b808211156200075f576000815560010162000764565b61106d806200078a6000396000f3fe608060405234801561001057600080fd5b50600436106101165760003560e01c806370a08231116100a257806395d89b411161007157806395d89b411461030a578063a457c2d714610312578063a9059cbb1461033e578063dd62ed3e1461036a578063f2fde38b1461039857610116565b806370a08231146102b0578063715018a6146102d65780637d64bcb4146102de5780638da5cb5b146102e657610116565b806323b872dd116100e957806323b872dd146101fa578063313ce56714610230578063355274ea1461024e578063395093511461025657806340c10f191461028257610116565b806305d2035b1461011b57806306fdde0314610137578063095ea7b3146101b457806318160ddd146101e0575b600080fd5b6101236103be565b604080519115158252519081900360200190f35b61013f6103c7565b6040805160208082528351818301528351919283929083019185019080838360005b83811015610179578181015183820152602001610161565b50505050905090810190601f1680156101a65780820380516001836020036101000a031916815260200191505b509250505060405180910390f35b610123600480360360408110156101ca57600080fd5b506001600160a01b03813516906020013561045d565b6101e861047a565b60408051918252519081900360200190f35b6101236004803603606081101561021057600080fd5b506001600160a01b03813581169160208101359091169060400135610480565b610238610507565b6040805160ff9092168252519081900360200190f35b6101e8610510565b6101236004803603604081101561026c57600080fd5b506001600160a01b038135169060200135610516565b6102ae6004803603604081101561029857600080fd5b506001600160a01b038135169060200135610564565b005b6101e8600480360360208110156102c657600080fd5b50356001600160a01b03166105b4565b6102ae6105cf565b6102ae610681565b6102ee6106cd565b604080516001600160a01b039092168252519081900360200190f35b61013f6106e1565b6101236004803603604081101561032857600080fd5b506001600160a01b038135169060200135610742565b6101236004803603604081101561035457600080fd5b506001600160a01b0381351690602001356107aa565b6101e86004803603604081101561038057600080fd5b506001600160a01b03813581169160200135166107be565b6102ae600480360360208110156103ae57600080fd5b50356001600160a01b03166107e9565b60075460ff1690565b60038054604080516020601f60026000196101006001881615020190951694909404938401819004810282018101909252828152606093909290918301828280156104535780601f1061042857610100808354040283529160200191610453565b820191906000526020600020905b81548152906001019060200180831161043657829003601f168201915b5050505050905090565b600061047161046a610ad3565b8484610ad7565b50600192915050565b60025490565b600061048d848484610bc3565b6104fd84610499610ad3565b6104f885604051806060016040528060288152602001610f60602891396001600160a01b038a166000908152600160205260408120906104d7610ad3565b6001600160a01b031681526020810191909152604001600020549190610d1e565b610ad7565b5060019392505050565b60055460ff1690565b60065490565b6000610471610523610ad3565b846104f88560016000610534610ad3565b6001600160a01b03908116825260208083019390935260409182016000908120918c1681529252902054906109e7565b60075460ff16156105a65760405162461bcd60e51b8152600401808060200182810382526022815260200180610ff16022913960400191505060405180910390fd5b6105b08282610db5565b5050565b6001600160a01b031660009081526020819052604090205490565b6105d7610ad3565b6001600160a01b03166105e86106cd565b6001600160a01b031614610631576040805162461bcd60e51b81526020600482018190526024820152600080516020610f88833981519152604482015290519081900360640190fd5b60075460405160009161010090046001600160a01b0316907f8be0079c531659141344cd1fd0a4f28419497f9722a3daafe3b4186f6b6457e0908390a360078054610100600160a81b0319169055565b60075460ff16156106c35760405162461bcd60e51b8152600401808060200182810382526022815260200180610ff16022913960400191505060405180910390fd5b6106cb610e21565b565b60075461010090046001600160a01b031690565b60048054604080516020601f60026000196101006001881615020190951694909404938401819004810282018101909252828152606093909290918301828280156104535780601f1061042857610100808354040283529160200191610453565b600061047161074f610ad3565b846104f8856040518060600160405280602581526020016110136025913960016000610779610ad3565b6001600160a01b03908116825260208083019390935260409182016000908120918d16815292529020549190610d1e565b60006104716107b7610ad3565b8484610bc3565b6001600160a01b03918216600090815260016020908152604080832093909416825291909152205490565b6107f1610ad3565b6001600160a01b03166108026106cd565b6001600160a01b03161461084b576040805162461bcd60e51b81526020600482018190526024820152600080516020610f88833981519152604482015290519081900360640190fd5b6001600160a01b0381166108905760405162461bcd60e51b8152600401808060200182810382526026815260200180610ef26026913960400191505060405180910390fd5b6007546040516001600160a01b0380841692610100900416907f8be0079c531659141344cd1fd0a4f28419497f9722a3daafe3b4186f6b6457e090600090a3600780546001600160a01b0390921661010002610100600160a81b0319909216919091179055565b6001600160a01b038216610952576040805162461bcd60e51b815260206004820152601f60248201527f45524332303a206d696e7420746f20746865207a65726f206164647265737300604482015290519081900360640190fd5b61095e60008383610e8b565b60025461096b90826109e7565b6002556001600160a01b03821660009081526020819052604090205461099190826109e7565b6001600160a01b0383166000818152602081815260408083209490945583518581529351929391927fddf252ad1be2c89b69c2b068fc378daa952ba7f163c4a11628f55a4df523b3ef9281900390910190a35050565b600082820183811015610a41576040805162461bcd60e51b815260206004820152601b60248201527f536166654d6174683a206164646974696f6e206f766572666c6f770000000000604482015290519081900360640190fd5b9392505050565b610a53838383610ace565b6001600160a01b038316610ace57610a69610510565b610a7b82610a7561047a565b906109e7565b1115610ace576040805162461bcd60e51b815260206004820152601960248201527f45524332304361707065643a2063617020657863656564656400000000000000604482015290519081900360640190fd5b505050565b3390565b6001600160a01b038316610b1c5760405162461bcd60e51b8152600401808060200182810382526024815260200180610fcd6024913960400191505060405180910390fd5b6001600160a01b038216610b615760405162461bcd60e51b8152600401808060200182810382526022815260200180610f186022913960400191505060405180910390fd5b6001600160a01b03808416600081815260016020908152604080832094871680845294825291829020859055815185815291517f8c5be1e5ebec7d5bd14f71427d1e84f3dd0314c0f7b2291e5b200ac8c7c3b9259281900390910190a3505050565b6001600160a01b038316610c085760405162461bcd60e51b8152600401808060200182810382526025815260200180610fa86025913960400191505060405180910390fd5b6001600160a01b038216610c4d5760405162461bcd60e51b8152600401808060200182810382526023815260200180610ecf6023913960400191505060405180910390fd5b610c58838383610e8b565b610c9581604051806060016040528060268152602001610f3a602691396001600160a01b0386166000908152602081905260409020549190610d1e565b6001600160a01b038085166000908152602081905260408082209390935590841681522054610cc490826109e7565b6001600160a01b038084166000818152602081815260409182902094909455805185815290519193928716927fddf252ad1be2c89b69c2b068fc378daa952ba7f163c4a11628f55a4df523b3ef92918290030190a3505050565b60008184841115610dad5760405162461bcd60e51b81526004018080602001828103825283818151815260200191508051906020019080838360005b83811015610d72578181015183820152602001610d5a565b50505050905090810190601f168015610d9f5780820380516001836020036101000a031916815260200191505b509250505060405180910390fd5b505050900390565b610dbd610ad3565b6001600160a01b0316610dce6106cd565b6001600160a01b031614610e17576040805162461bcd60e51b81526020600482018190526024820152600080516020610f88833981519152604482015290519081900360640190fd5b6105b082826108f7565b610e29610ad3565b6001600160a01b0316610e3a6106cd565b6001600160a01b031614610e83576040805162461bcd60e51b81526020600482018190526024820152600080516020610f88833981519152604482015290519081900360640190fd5b6106cb610e96565b610ace838383610a48565b6007805460ff191660011790556040517fae5184fba832cb2b1f702aca6117b8d265eaf03ad33eb133f19dde0f5920fa0890600090a156fe45524332303a207472616e7366657220746f20746865207a65726f20616464726573734f776e61626c653a206e6577206f776e657220697320746865207a65726f206164647265737345524332303a20617070726f766520746f20746865207a65726f206164647265737345524332303a207472616e7366657220616d6f756e7420657863656564732062616c616e636545524332303a207472616e7366657220616d6f756e74206578636565647320616c6c6f77616e63654f776e61626c653a2063616c6c6572206973206e6f7420746865206f776e657245524332303a207472616e736665722066726f6d20746865207a65726f206164647265737345524332303a20617070726f76652066726f6d20746865207a65726f206164647265737345524332304d696e7461626c653a206d696e74696e672069732066696e697368656445524332303a2064656372656173656420616c6c6f77616e63652062656c6f77207a65726fa2646970667358221220c32ff13ada29c27a04ea48d30a06eee1c32555a2f86fc7b33c2d16f3aa299d3864736f6c63430007060033",
  "immutableReferences": {},
  "source": "// SPDX-License-Identifier: MIT\r\n\r\npragma solidity ^0.7.0;\r\n\r\nimport \"@openzeppelin/contracts/access/Ownable.sol\";\r\nimport \"@openzeppelin/contracts/token/ERC20/ERC20Capped.sol\";\r\n\r\nimport \"./behaviours/ERC20Mintable.sol\";\r\nimport \"../../service/ServicePayer.sol\";\r\n\r\n/**\r\n * @title MintableERC20\r\n * @dev Implementation of the MintableERC20\r\n */\r\ncontract MintableERC20 is ERC20Capped, ERC20Mintable, Ownable, ServicePayer {\r\n\r\n    constructor (\r\n        string memory name,\r\n        string memory symbol,\r\n        uint8 decimals,\r\n        uint256 cap,\r\n        uint256 initialBalance,\r\n        address payable feeReceiver\r\n    )\r\n        ERC20(name, symbol)\r\n        ERC20Capped(cap)\r\n        ServicePayer(feeReceiver, \"MintableERC20\")\r\n        payable\r\n    {\r\n        _setupDecimals(decimals);\r\n        _mint(_msgSender(), initialBalance);\r\n    }\r\n\r\n    /**\r\n     * @dev Function to mint tokens.\r\n     *\r\n     * NOTE: restricting access to owner only. See {ERC20Mintable-mint}.\r\n     *\r\n     * @param account The address that will receive the minted tokens\r\n     * @param amount The amount of tokens to mint\r\n     */\r\n    function _mint(address account, uint256 amount) internal override onlyOwner {\r\n        super._mint(account, amount);\r\n    }\r\n\r\n    /**\r\n     * @dev Function to stop minting new tokens.\r\n     *\r\n     * NOTE: restricting access to owner only. See {ERC20Mintable-finishMinting}.\r\n     */\r\n    function _finishMinting() internal override onlyOwner {\r\n        super._finishMinting();\r\n    }\r\n\r\n    /**\r\n     * @dev See {ERC20-_beforeTokenTransfer}. See {ERC20Capped-_beforeTokenTransfer}.\r\n     */\r\n    function _beforeTokenTransfer(address from, address to, uint256 amount) internal override(ERC20, ERC20Capped) {\r\n        super._beforeTokenTransfer(from, to, amount);\r\n    }\r\n}\r\n",
  "sourcePath": "Y:/Github/erc20-generator/contracts/token/ERC20/MintableERC20.sol",
  "compiler": {
    "name": "solc",
    "version": "0.7.6+commit.7338295f.Emscripten.clang"
  },
  "schemaVersion": "3.4.1",
  "updatedAt": "2021-06-03T07:49:22.290Z",
  "devdoc": {
    "details": "Implementation of the MintableERC20",
    "kind": "dev",
    "methods": {
      "allowance(address,address)": {
        "details": "See {IERC20-allowance}."
      },
      "approve(address,uint256)": {
        "details": "See {IERC20-approve}. Requirements: - `spender` cannot be the zero address."
      },
      "balanceOf(address)": {
        "details": "See {IERC20-balanceOf}."
      },
      "cap()": {
        "details": "Returns the cap on the token's total supply."
      },
      "decimals()": {
        "details": "Returns the number of decimals used to get its user representation. For example, if `decimals` equals `2`, a balance of `505` tokens should be displayed to a user as `5,05` (`505 / 10 ** 2`). Tokens usually opt for a value of 18, imitating the relationship between Ether and Wei. This is the value {ERC20} uses, unless {_setupDecimals} is called. NOTE: This information is only used for _display_ purposes: it in no way affects any of the arithmetic of the contract, including {IERC20-balanceOf} and {IERC20-transfer}."
      },
      "decreaseAllowance(address,uint256)": {
        "details": "Atomically decreases the allowance granted to `spender` by the caller. This is an alternative to {approve} that can be used as a mitigation for problems described in {IERC20-approve}. Emits an {Approval} event indicating the updated allowance. Requirements: - `spender` cannot be the zero address. - `spender` must have allowance for the caller of at least `subtractedValue`."
      },
      "finishMinting()": {
        "details": "Function to stop minting new tokens. WARNING: it allows everyone to finish minting. Access controls MUST be defined in derived contracts."
      },
      "increaseAllowance(address,uint256)": {
        "details": "Atomically increases the allowance granted to `spender` by the caller. This is an alternative to {approve} that can be used as a mitigation for problems described in {IERC20-approve}. Emits an {Approval} event indicating the updated allowance. Requirements: - `spender` cannot be the zero address."
      },
      "mint(address,uint256)": {
        "details": "Function to mint tokens. WARNING: it allows everyone to mint new tokens. Access controls MUST be defined in derived contracts.",
        "params": {
          "account": "The address that will receive the minted tokens",
          "amount": "The amount of tokens to mint"
        }
      },
      "mintingFinished()": {
        "returns": {
          "_0": "if minting is finished or not."
        }
      },
      "name()": {
        "details": "Returns the name of the token."
      },
      "owner()": {
        "details": "Returns the address of the current owner."
      },
      "renounceOwnership()": {
        "details": "Leaves the contract without owner. It will not be possible to call `onlyOwner` functions anymore. Can only be called by the current owner. NOTE: Renouncing ownership will leave the contract without an owner, thereby removing any functionality that is only available to the owner."
      },
      "symbol()": {
        "details": "Returns the symbol of the token, usually a shorter version of the name."
      },
      "totalSupply()": {
        "details": "See {IERC20-totalSupply}."
      },
      "transfer(address,uint256)": {
        "details": "See {IERC20-transfer}. Requirements: - `recipient` cannot be the zero address. - the caller must have a balance of at least `amount`."
      },
      "transferFrom(address,address,uint256)": {
        "details": "See {IERC20-transferFrom}. Emits an {Approval} event indicating the updated allowance. This is not required by the EIP. See the note at the beginning of {ERC20}. Requirements: - `sender` and `recipient` cannot be the zero address. - `sender` must have a balance of at least `amount`. - the caller must have allowance for ``sender``'s tokens of at least `amount`."
      },
      "transferOwnership(address)": {
        "details": "Transfers ownership of the contract to a new account (`newOwner`). Can only be called by the current owner."
      }
    },
    "title": "MintableERC20",
    "version": 1
  },
  "userdoc": {
    "kind": "user",
    "methods": {},
    "version": 1
  }
}