{
  "contractName": "PausableERC20",
  "abi": [
    {
      "inputs": [
        {
          "internalType": "string",
          "name": "name",
          "type": "string"
        },
        {
          "internalType": "string",
          "name": "symbol",
          "type": "string"
        },
        {
          "internalType": "uint8",
          "name": "decimals",
          "type": "uint8"
        },
        {
          "internalType": "uint256",
          "name": "initialBalance",
          "type": "uint256"
        },
        {
          "internalType": "address payable",
          "name": "feeReceiver",
          "type": "address"
        }
      ],
      "stateMutability": "payable",
      "type": "constructor"
    },
    {
      "anonymous": false,
      "inputs": [
        {
          "indexed": true,
          "internalType": "address",
          "name": "owner",
          "type": "address"
        },
        {
          "indexed": true,
          "internalType": "address",
          "name": "spender",
          "type": "address"
        },
        {
          "indexed": false,
          "internalType": "uint256",
          "name": "value",
          "type": "uint256"
        }
      ],
      "name": "Approval",
      "type": "event"
    },
    {
      "anonymous": false,
      "inputs": [
        {
          "indexed": true,
          "internalType": "address",
          "name": "previousOwner",
          "type": "address"
        },
        {
          "indexed": true,
          "internalType": "address",
          "name": "newOwner",
          "type": "address"
        }
      ],
      "name": "OwnershipTransferred",
      "type": "event"
    },
    {
      "anonymous": false,
      "inputs": [
        {
          "indexed": false,
          "internalType": "address",
          "name": "account",
          "type": "address"
        }
      ],
      "name": "Paused",
      "type": "event"
    },
    {
      "anonymous": false,
      "inputs": [
        {
          "indexed": true,
          "internalType": "address",
          "name": "from",
          "type": "address"
        },
        {
          "indexed": true,
          "internalType": "address",
          "name": "to",
          "type": "address"
        },
        {
          "indexed": false,
          "internalType": "uint256",
          "name": "value",
          "type": "uint256"
        }
      ],
      "name": "Transfer",
      "type": "event"
    },
    {
      "anonymous": false,
      "inputs": [
        {
          "indexed": false,
          "internalType": "address",
          "name": "account",
          "type": "address"
        }
      ],
      "name": "Unpaused",
      "type": "event"
    },
    {
      "inputs": [
        {
          "internalType": "address",
          "name": "owner",
          "type": "address"
        },
        {
          "internalType": "address",
          "name": "spender",
          "type": "address"
        }
      ],
      "name": "allowance",
      "outputs": [
        {
          "internalType": "uint256",
          "name": "",
          "type": "uint256"
        }
      ],
      "stateMutability": "view",
      "type": "function"
    },
    {
      "inputs": [
        {
          "internalType": "address",
          "name": "spender",
          "type": "address"
        },
        {
          "internalType": "uint256",
          "name": "amount",
          "type": "uint256"
        }
      ],
      "name": "approve",
      "outputs": [
        {
          "internalType": "bool",
          "name": "",
          "type": "bool"
        }
      ],
      "stateMutability": "nonpayable",
      "type": "function"
    },
    {
      "inputs": [
        {
          "internalType": "address",
          "name": "account",
          "type": "address"
        }
      ],
      "name": "balanceOf",
      "outputs": [
        {
          "internalType": "uint256",
          "name": "",
          "type": "uint256"
        }
      ],
      "stateMutability": "view",
      "type": "function"
    },
    {
      "inputs": [],
      "name": "decimals",
      "outputs": [
        {
          "internalType": "uint8",
          "name": "",
          "type": "uint8"
        }
      ],
      "stateMutability": "view",
      "type": "function"
    },
    {
      "inputs": [
        {
          "internalType": "address",
          "name": "spender",
          "type": "address"
        },
        {
          "internalType": "uint256",
          "name": "subtractedValue",
          "type": "uint256"
        }
      ],
      "name": "decreaseAllowance",
      "outputs": [
        {
          "internalType": "bool",
          "name": "",
          "type": "bool"
        }
      ],
      "stateMutability": "nonpayable",
      "type": "function"
    },
    {
      "inputs": [
        {
          "internalType": "address",
          "name": "spender",
          "type": "address"
        },
        {
          "internalType": "uint256",
          "name": "addedValue",
          "type": "uint256"
        }
      ],
      "name": "increaseAllowance",
      "outputs": [
        {
          "internalType": "bool",
          "name": "",
          "type": "bool"
        }
      ],
      "stateMutability": "nonpayable",
      "type": "function"
    },
    {
      "inputs": [],
      "name": "name",
      "outputs": [
        {
          "internalType": "string",
          "name": "",
          "type": "string"
        }
      ],
      "stateMutability": "view",
      "type": "function"
    },
    {
      "inputs": [],
      "name": "owner",
      "outputs": [
        {
          "internalType": "address",
          "name": "",
          "type": "address"
        }
      ],
      "stateMutability": "view",
      "type": "function"
    },
    {
      "inputs": [],
      "name": "paused",
      "outputs": [
        {
          "internalType": "bool",
          "name": "",
          "type": "bool"
        }
      ],
      "stateMutability": "view",
      "type": "function"
    },
    {
      "inputs": [],
      "name": "renounceOwnership",
      "outputs": [],
      "stateMutability": "nonpayable",
      "type": "function"
    },
    {
      "inputs": [],
      "name": "symbol",
      "outputs": [
        {
          "internalType": "string",
          "name": "",
          "type": "string"
        }
      ],
      "stateMutability": "view",
      "type": "function"
    },
    {
      "inputs": [],
      "name": "totalSupply",
      "outputs": [
        {
          "internalType": "uint256",
          "name": "",
          "type": "uint256"
        }
      ],
      "stateMutability": "view",
      "type": "function"
    },
    {
      "inputs": [
        {
          "internalType": "address",
          "name": "recipient",
          "type": "address"
        },
        {
          "internalType": "uint256",
          "name": "amount",
          "type": "uint256"
        }
      ],
      "name": "transfer",
      "outputs": [
        {
          "internalType": "bool",
          "name": "",
          "type": "bool"
        }
      ],
      "stateMutability": "nonpayable",
      "type": "function"
    },
    {
      "inputs": [
        {
          "internalType": "address",
          "name": "sender",
          "type": "address"
        },
        {
          "internalType": "address",
          "name": "recipient",
          "type": "address"
        },
        {
          "internalType": "uint256",
          "name": "amount",
          "type": "uint256"
        }
      ],
      "name": "transferFrom",
      "outputs": [
        {
          "internalType": "bool",
          "name": "",
          "type": "bool"
        }
      ],
      "stateMutability": "nonpayable",
      "type": "function"
    },
    {
      "inputs": [
        {
          "internalType": "address",
          "name": "newOwner",
          "type": "address"
        }
      ],
      "name": "transferOwnership",
      "outputs": [],
      "stateMutability": "nonpayable",
      "type": "function"
    },
    {
      "inputs": [],
      "name": "pause",
      "outputs": [],
      "stateMutability": "nonpayable",
      "type": "function"
    },
    {
      "inputs": [],
      "name": "unpause",
      "outputs": [],
      "stateMutability": "nonpayable",
      "type": "function"
    }
  ],
  "bytecode": "0x60806040526040516200161138038062001611833981810160405260a08110156200002957600080fd5b81019080805160405193929190846401000000008211156200004a57600080fd5b9083019060208201858111156200006057600080fd5b82516401000000008111828201881017156200007b57600080fd5b82525081516020918201929091019080838360005b83811015620000aa57818101518382015260200162000090565b50505050905090810190601f168015620000d85780820380516001836020036101000a031916815260200191505b5060405260200180516040519392919084640100000000821115620000fc57600080fd5b9083019060208201858111156200011257600080fd5b82516401000000008111828201881017156200012d57600080fd5b82525081516020918201929091019080838360005b838110156200015c57818101518382015260200162000142565b50505050905090810190601f1680156200018a5780820380516001836020036101000a031916815260200191505b50604081815260208381015184830151606090950151848401909352600d84526c05061757361626c65455243323609c1b828501528851909650939450909283929188918891620001e191600391850190620005a4565b508051620001f7906004906020840190620005a4565b50506005805461ff001960ff199091166012171690555060006200021a620003a6565b6005805462010000600160b01b031916620100006001600160a01b03841690810291909117909155604051919250906000907f8be0079c531659141344cd1fd0a4f28419497f9722a3daafe3b4186f6b6457e0908290a350816001600160a01b0316632b66d72e34836040518363ffffffff1660e01b81526004018080602001828103825283818151815260200191508051906020019080838360005b83811015620002d1578181015183820152602001620002b7565b50505050905090810190601f168015620002ff5780820380516001836020036101000a031916815260200191505b50925050506000604051808303818588803b1580156200031e57600080fd5b505af115801562000333573d6000803e3d6000fd5b50505050505050600082116200037b5760405162461bcd60e51b8152600401808060200182810382526024815260200180620015c36024913960400191505060405180910390fd5b6200038683620003aa565b6200039b62000394620003a6565b83620003c0565b505050505062000650565b3390565b6005805460ff191660ff92909216919091179055565b6001600160a01b0382166200041c576040805162461bcd60e51b815260206004820152601f60248201527f45524332303a206d696e7420746f20746865207a65726f206164647265737300604482015290519081900360640190fd5b6200042a60008383620004cf565b62000446816002546200053460201b620008ff1790919060201c565b6002556001600160a01b0382166000908152602081815260409091205462000479918390620008ff62000534821b17901c565b6001600160a01b0383166000818152602081815260408083209490945583518581529351929391927fddf252ad1be2c89b69c2b068fc378daa952ba7f163c4a11628f55a4df523b3ef9281900390910190a35050565b620004e78383836200052f60201b620009601760201c565b620004f162000596565b156200052f5760405162461bcd60e51b815260040180806020018281038252602a815260200180620015e7602a913960400191505060405180910390fd5b505050565b6000828201838110156200058f576040805162461bcd60e51b815260206004820152601b60248201527f536166654d6174683a206164646974696f6e206f766572666c6f770000000000604482015290519081900360640190fd5b9392505050565b600554610100900460ff1690565b828054600181600116156101000203166002900490600052602060002090601f016020900481019282620005dc576000855562000627565b82601f10620005f757805160ff191683800117855562000627565b8280016001018555821562000627579182015b82811115620006275782518255916020019190600101906200060a565b506200063592915062000639565b5090565b5b808211156200063557600081556001016200063a565b610f6380620006606000396000f3fe608060405234801561001057600080fd5b506004361061010b5760003560e01c806370a08231116100a257806395d89b411161007157806395d89b41146102d3578063a457c2d7146102db578063a9059cbb14610307578063dd62ed3e14610333578063f2fde38b146103615761010b565b806370a0823114610279578063715018a61461029f5780638456cb59146102a75780638da5cb5b146102af5761010b565b8063313ce567116100de578063313ce5671461021d578063395093511461023b5780633f4ba83a146102675780635c975abb146102715761010b565b806306fdde0314610110578063095ea7b31461018d57806318160ddd146101cd57806323b872dd146101e7575b600080fd5b610118610387565b6040805160208082528351818301528351919283929083019185019080838360005b8381101561015257818101518382015260200161013a565b50505050905090810190601f16801561017f5780820380516001836020036101000a031916815260200191505b509250505060405180910390f35b6101b9600480360360408110156101a357600080fd5b506001600160a01b03813516906020013561041d565b604080519115158252519081900360200190f35b6101d561043a565b60408051918252519081900360200190f35b6101b9600480360360608110156101fd57600080fd5b506001600160a01b03813581169160208101359091169060400135610440565b6102256104c7565b6040805160ff9092168252519081900360200190f35b6101b96004803603604081101561025157600080fd5b506001600160a01b0381351690602001356104d0565b61026f61051e565b005b6101b961058a565b6101d56004803603602081101561028f57600080fd5b50356001600160a01b0316610598565b61026f6105b3565b61026f610667565b6102b76106d1565b604080516001600160a01b039092168252519081900360200190f35b6101186106e6565b6101b9600480360360408110156102f157600080fd5b506001600160a01b038135169060200135610747565b6101b96004803603604081101561031d57600080fd5b506001600160a01b0381351690602001356107af565b6101d56004803603604081101561034957600080fd5b506001600160a01b03813581169160200135166107c3565b61026f6004803603602081101561037757600080fd5b50356001600160a01b03166107ee565b60038054604080516020601f60026000196101006001881615020190951694909404938401819004810282018101909252828152606093909290918301828280156104135780601f106103e857610100808354040283529160200191610413565b820191906000526020600020905b8154815290600101906020018083116103f657829003601f168201915b5050505050905090565b600061043161042a610965565b8484610969565b50600192915050565b60025490565b600061044d848484610a55565b6104bd84610459610965565b6104b885604051806060016040528060288152602001610e4e602891396001600160a01b038a16600090815260016020526040812090610497610965565b6001600160a01b031681526020810191909152604001600020549190610bb0565b610969565b5060019392505050565b60055460ff1690565b60006104316104dd610965565b846104b885600160006104ee610965565b6001600160a01b03908116825260208083019390935260409182016000908120918c1681529252902054906108ff565b610526610965565b6001600160a01b03166105376106d1565b6001600160a01b031614610580576040805162461bcd60e51b81526020600482018190526024820152600080516020610e76833981519152604482015290519081900360640190fd5b610588610c47565b565b600554610100900460ff1690565b6001600160a01b031660009081526020819052604090205490565b6105bb610965565b6001600160a01b03166105cc6106d1565b6001600160a01b031614610615576040805162461bcd60e51b81526020600482018190526024820152600080516020610e76833981519152604482015290519081900360640190fd5b6005546040516000916201000090046001600160a01b0316907f8be0079c531659141344cd1fd0a4f28419497f9722a3daafe3b4186f6b6457e0908390a36005805462010000600160b01b0319169055565b61066f610965565b6001600160a01b03166106806106d1565b6001600160a01b0316146106c9576040805162461bcd60e51b81526020600482018190526024820152600080516020610e76833981519152604482015290519081900360640190fd5b610588610ce8565b6005546201000090046001600160a01b031690565b60048054604080516020601f60026000196101006001881615020190951694909404938401819004810282018101909252828152606093909290918301828280156104135780601f106103e857610100808354040283529160200191610413565b6000610431610754610965565b846104b885604051806060016040528060258152602001610edf602591396001600061077e610965565b6001600160a01b03908116825260208083019390935260409182016000908120918d16815292529020549190610bb0565b60006104316107bc610965565b8484610a55565b6001600160a01b03918216600090815260016020908152604080832093909416825291909152205490565b6107f6610965565b6001600160a01b03166108076106d1565b6001600160a01b031614610850576040805162461bcd60e51b81526020600482018190526024820152600080516020610e76833981519152604482015290519081900360640190fd5b6001600160a01b0381166108955760405162461bcd60e51b8152600401808060200182810382526026815260200180610de06026913960400191505060405180910390fd5b6005546040516001600160a01b038084169262010000900416907f8be0079c531659141344cd1fd0a4f28419497f9722a3daafe3b4186f6b6457e090600090a3600580546001600160a01b03909216620100000262010000600160b01b0319909216919091179055565b600082820183811015610959576040805162461bcd60e51b815260206004820152601b60248201527f536166654d6174683a206164646974696f6e206f766572666c6f770000000000604482015290519081900360640190fd5b9392505050565b505050565b3390565b6001600160a01b0383166109ae5760405162461bcd60e51b8152600401808060200182810382526024815260200180610ebb6024913960400191505060405180910390fd5b6001600160a01b0382166109f35760405162461bcd60e51b8152600401808060200182810382526022815260200180610e066022913960400191505060405180910390fd5b6001600160a01b03808416600081815260016020908152604080832094871680845294825291829020859055815185815291517f8c5be1e5ebec7d5bd14f71427d1e84f3dd0314c0f7b2291e5b200ac8c7c3b9259281900390910190a3505050565b6001600160a01b038316610a9a5760405162461bcd60e51b8152600401808060200182810382526025815260200180610e966025913960400191505060405180910390fd5b6001600160a01b038216610adf5760405162461bcd60e51b8152600401808060200182810382526023815260200180610dbd6023913960400191505060405180910390fd5b610aea838383610d6d565b610b2781604051806060016040528060268152602001610e28602691396001600160a01b0386166000908152602081905260409020549190610bb0565b6001600160a01b038085166000908152602081905260408082209390935590841681522054610b5690826108ff565b6001600160a01b038084166000818152602081815260409182902094909455805185815290519193928716927fddf252ad1be2c89b69c2b068fc378daa952ba7f163c4a11628f55a4df523b3ef92918290030190a3505050565b60008184841115610c3f5760405162461bcd60e51b81526004018080602001828103825283818151815260200191508051906020019080838360005b83811015610c04578181015183820152602001610bec565b50505050905090810190601f168015610c315780820380516001836020036101000a031916815260200191505b509250505060405180910390fd5b505050900390565b610c4f61058a565b610c97576040805162461bcd60e51b815260206004820152601460248201527314185d5cd8589b194e881b9bdd081c185d5cd95960621b604482015290519081900360640190fd5b6005805461ff00191690557f5db9ee0a495bf2e6ff9c91a7834c1ba4fdd244a5e8aa4e537bd38aeae4b073aa610ccb610965565b604080516001600160a01b039092168252519081900360200190a1565b610cf061058a565b15610d35576040805162461bcd60e51b815260206004820152601060248201526f14185d5cd8589b194e881c185d5cd95960821b604482015290519081900360640190fd5b6005805461ff0019166101001790557f62e78cea01bee320cd4e420270b5ea74000d11b0c9f74754ebdbfc544b05a258610ccb610965565b610d78838383610960565b610d8061058a565b156109605760405162461bcd60e51b815260040180806020018281038252602a815260200180610f04602a913960400191505060405180910390fdfe45524332303a207472616e7366657220746f20746865207a65726f20616464726573734f776e61626c653a206e6577206f776e657220697320746865207a65726f206164647265737345524332303a20617070726f766520746f20746865207a65726f206164647265737345524332303a207472616e7366657220616d6f756e7420657863656564732062616c616e636545524332303a207472616e7366657220616d6f756e74206578636565647320616c6c6f77616e63654f776e61626c653a2063616c6c6572206973206e6f7420746865206f776e657245524332303a207472616e736665722066726f6d20746865207a65726f206164647265737345524332303a20617070726f76652066726f6d20746865207a65726f206164647265737345524332303a2064656372656173656420616c6c6f77616e63652062656c6f77207a65726f45524332305061757361626c653a20746f6b656e207472616e73666572207768696c6520706175736564a2646970667358221220c039e7bfb4e2ff17593e38ec88c0027c13e31e1690e2a06eb326a7fa0fbcfad464736f6c634300070600335061757361626c6545524332303a20737570706c792063616e6e6f74206265207a65726f45524332305061757361626c653a20746f6b656e207472616e73666572207768696c6520706175736564",
  "immutableReferences": {},
  "source": "// SPDX-License-Identifier: MIT\r\n\r\npragma solidity ^0.7.0;\r\n\r\nimport \"@openzeppelin/contracts/access/Ownable.sol\";\r\nimport \"@openzeppelin/contracts/token/ERC20/ERC20Pausable.sol\";\r\n\r\nimport \"../../service/ServicePayer.sol\";\r\n\r\n/**\r\n * @title PausableERC20\r\n * @dev Implementation of the PausableERC20\r\n */\r\ncontract PausableERC20 is ERC20Pausable, Ownable, ServicePayer {\r\n\r\n    constructor (\r\n        string memory name,\r\n        string memory symbol,\r\n        uint8 decimals,\r\n        uint256 initialBalance,\r\n        address payable feeReceiver\r\n    )\r\n      ERC20(name, symbol)\r\n      ServicePayer(feeReceiver, \"PausableERC20\")\r\n      payable\r\n    {\r\n        require(initialBalance > 0, \"PausableERC20: supply cannot be zero\");\r\n\r\n        _setupDecimals(decimals);\r\n        _mint(_msgSender(), initialBalance);\r\n    }\r\n\r\n    function pause() external onlyOwner {\r\n        _pause();\r\n    }\r\n\r\n    function unpause() external onlyOwner {\r\n        _unpause();\r\n    }\r\n}\r\n",
  "sourcePath": "Y:/Github/erc20-generator/contracts/token/ERC20/PausableERC20.sol",
  "compiler": {
    "name": "solc",
    "version": "0.7.6+commit.7338295f.Emscripten.clang"
  },
  "schemaVersion": "3.4.1",
  "updatedAt": "2021-06-03T07:49:22.296Z",
  "devdoc": {
    "details": "Implementation of the PausableERC20",
    "kind": "dev",
    "methods": {
      "allowance(address,address)": {
        "details": "See {IERC20-allowance}."
      },
      "approve(address,uint256)": {
        "details": "See {IERC20-approve}. Requirements: - `spender` cannot be the zero address."
      },
      "balanceOf(address)": {
        "details": "See {IERC20-balanceOf}."
      },
      "decimals()": {
        "details": "Returns the number of decimals used to get its user representation. For example, if `decimals` equals `2`, a balance of `505` tokens should be displayed to a user as `5,05` (`505 / 10 ** 2`). Tokens usually opt for a value of 18, imitating the relationship between Ether and Wei. This is the value {ERC20} uses, unless {_setupDecimals} is called. NOTE: This information is only used for _display_ purposes: it in no way affects any of the arithmetic of the contract, including {IERC20-balanceOf} and {IERC20-transfer}."
      },
      "decreaseAllowance(address,uint256)": {
        "details": "Atomically decreases the allowance granted to `spender` by the caller. This is an alternative to {approve} that can be used as a mitigation for problems described in {IERC20-approve}. Emits an {Approval} event indicating the updated allowance. Requirements: - `spender` cannot be the zero address. - `spender` must have allowance for the caller of at least `subtractedValue`."
      },
      "increaseAllowance(address,uint256)": {
        "details": "Atomically increases the allowance granted to `spender` by the caller. This is an alternative to {approve} that can be used as a mitigation for problems described in {IERC20-approve}. Emits an {Approval} event indicating the updated allowance. Requirements: - `spender` cannot be the zero address."
      },
      "name()": {
        "details": "Returns the name of the token."
      },
      "owner()": {
        "details": "Returns the address of the current owner."
      },
      "paused()": {
        "details": "Returns true if the contract is paused, and false otherwise."
      },
      "renounceOwnership()": {
        "details": "Leaves the contract without owner. It will not be possible to call `onlyOwner` functions anymore. Can only be called by the current owner. NOTE: Renouncing ownership will leave the contract without an owner, thereby removing any functionality that is only available to the owner."
      },
      "symbol()": {
        "details": "Returns the symbol of the token, usually a shorter version of the name."
      },
      "totalSupply()": {
        "details": "See {IERC20-totalSupply}."
      },
      "transfer(address,uint256)": {
        "details": "See {IERC20-transfer}. Requirements: - `recipient` cannot be the zero address. - the caller must have a balance of at least `amount`."
      },
      "transferFrom(address,address,uint256)": {
        "details": "See {IERC20-transferFrom}. Emits an {Approval} event indicating the updated allowance. This is not required by the EIP. See the note at the beginning of {ERC20}. Requirements: - `sender` and `recipient` cannot be the zero address. - `sender` must have a balance of at least `amount`. - the caller must have allowance for ``sender``'s tokens of at least `amount`."
      },
      "transferOwnership(address)": {
        "details": "Transfers ownership of the contract to a new account (`newOwner`). Can only be called by the current owner."
      }
    },
    "title": "PausableERC20",
    "version": 1
  },
  "userdoc": {
    "kind": "user",
    "methods": {},
    "version": 1
  }
}