{
  "contractName": "ServiceReceiver",
  "abi": [
    {
      "anonymous": false,
      "inputs": [
        {
          "indexed": false,
          "internalType": "string",
          "name": "serviceName",
          "type": "string"
        },
        {
          "indexed": true,
          "internalType": "address",
          "name": "serviceAddress",
          "type": "address"
        }
      ],
      "name": "Created",
      "type": "event"
    },
    {
      "anonymous": false,
      "inputs": [
        {
          "indexed": true,
          "internalType": "address",
          "name": "previousOwner",
          "type": "address"
        },
        {
          "indexed": true,
          "internalType": "address",
          "name": "newOwner",
          "type": "address"
        }
      ],
      "name": "OwnershipTransferred",
      "type": "event"
    },
    {
      "inputs": [],
      "name": "owner",
      "outputs": [
        {
          "internalType": "address",
          "name": "",
          "type": "address"
        }
      ],
      "stateMutability": "view",
      "type": "function"
    },
    {
      "inputs": [
        {
          "internalType": "address",
          "name": "tokenAddress",
          "type": "address"
        },
        {
          "internalType": "uint256",
          "name": "tokenAmount",
          "type": "uint256"
        }
      ],
      "name": "recoverERC20",
      "outputs": [],
      "stateMutability": "nonpayable",
      "type": "function"
    },
    {
      "inputs": [],
      "name": "renounceOwnership",
      "outputs": [],
      "stateMutability": "nonpayable",
      "type": "function"
    },
    {
      "inputs": [
        {
          "internalType": "address",
          "name": "newOwner",
          "type": "address"
        }
      ],
      "name": "transferOwnership",
      "outputs": [],
      "stateMutability": "nonpayable",
      "type": "function"
    },
    {
      "inputs": [
        {
          "internalType": "string",
          "name": "serviceName",
          "type": "string"
        }
      ],
      "name": "pay",
      "outputs": [],
      "stateMutability": "payable",
      "type": "function"
    },
    {
      "inputs": [
        {
          "internalType": "string",
          "name": "serviceName",
          "type": "string"
        }
      ],
      "name": "getPrice",
      "outputs": [
        {
          "internalType": "uint256",
          "name": "",
          "type": "uint256"
        }
      ],
      "stateMutability": "view",
      "type": "function"
    },
    {
      "inputs": [
        {
          "internalType": "string",
          "name": "serviceName",
          "type": "string"
        },
        {
          "internalType": "uint256",
          "name": "amount",
          "type": "uint256"
        }
      ],
      "name": "setPrice",
      "outputs": [],
      "stateMutability": "nonpayable",
      "type": "function"
    },
    {
      "inputs": [
        {
          "internalType": "uint256",
          "name": "amount",
          "type": "uint256"
        }
      ],
      "name": "withdraw",
      "outputs": [],
      "stateMutability": "nonpayable",
      "type": "function"
    }
  ],
  "bytecode": "0x608060405234801561001057600080fd5b50600061001b61006a565b600080546001600160a01b0319166001600160a01b0383169081178255604051929350917f8be0079c531659141344cd1fd0a4f28419497f9722a3daafe3b4186f6b6457e0908290a35061006e565b3390565b6109a98061007d6000396000f3fe60806040526004361061007b5760003560e01c8063715018a61161004e578063715018a6146102cc5780638980f11f146102e15780638da5cb5b1461031a578063f2fde38b1461034b5761007b565b806322e01192146100805780632b66d72e146101375780632e1a7d4d146101dd578063524f388914610207575b600080fd5b34801561008c57600080fd5b50610135600480360360408110156100a357600080fd5b8101906020810181356401000000008111156100be57600080fd5b8201836020820111156100d057600080fd5b803590602001918460018302840111640100000000831117156100f257600080fd5b91908080601f016020809104026020016040519081016040528093929190818152602001838380828437600092019190915250929550509135925061037e915050565b005b6101356004803603602081101561014d57600080fd5b81019060208101813564010000000081111561016857600080fd5b82018360208201111561017a57600080fd5b8035906020019184600183028401116401000000008311171561019c57600080fd5b91908080601f016020809104026020016040519081016040528093929190818152602001838380828437600092019190915250929550610403945050505050565b3480156101e957600080fd5b506101356004803603602081101561020057600080fd5b503561051f565b34801561021357600080fd5b506102ba6004803603602081101561022a57600080fd5b81019060208101813564010000000081111561024557600080fd5b82018360208201111561025757600080fd5b8035906020019184600183028401116401000000008311171561027957600080fd5b91908080601f0160208091040260200160405190810160405280939291908181526020018383808284376000920191909152509295506105c5945050505050565b60408051918252519081900360200190f35b3480156102d857600080fd5b506101356105ea565b3480156102ed57600080fd5b506101356004803603604081101561030457600080fd5b506001600160a01b038135169060200135610696565b34801561032657600080fd5b5061032f610786565b604080516001600160a01b039092168252519081900360200190f35b34801561035757600080fd5b506101356004803603602081101561036e57600080fd5b50356001600160a01b0316610795565b610386610897565b6001600160a01b0316610397610786565b6001600160a01b0316146103e0576040805162461bcd60e51b81526020600482018190526024820152600080516020610954833981519152604482015290519081900360640190fd5b80600160006103ee8561089b565b81526020810191909152604001600020555050565b600160006104108361089b565b8152602001908152602001600020543414610472576040805162461bcd60e51b815260206004820181905260248201527f5365727669636552656365697665723a20696e636f7272656374207072696365604482015290519081900360640190fd5b61047a610897565b6001600160a01b03167fdb4e8a6f69daa6b4b9977ed734b510ed9b7ce86536c87435bfd7ef57968d05ee826040518080602001828103825283818151815260200191508051906020019080838360005b838110156104e25781810151838201526020016104ca565b50505050905090810190601f16801561050f5780820380516001836020036101000a031916815260200191505b509250505060405180910390a250565b610527610897565b6001600160a01b0316610538610786565b6001600160a01b031614610581576040805162461bcd60e51b81526020600482018190526024820152600080516020610954833981519152604482015290519081900360640190fd5b610589610786565b6001600160a01b03166108fc829081150290604051600060405180830381858888f193505050501580156105c1573d6000803e3d6000fd5b5050565b6000600160006105d48461089b565b8152602001908152602001600020549050919050565b6105f2610897565b6001600160a01b0316610603610786565b6001600160a01b03161461064c576040805162461bcd60e51b81526020600482018190526024820152600080516020610954833981519152604482015290519081900360640190fd5b600080546040516001600160a01b03909116907f8be0079c531659141344cd1fd0a4f28419497f9722a3daafe3b4186f6b6457e0908390a3600080546001600160a01b0319169055565b61069e610897565b6001600160a01b03166106af610786565b6001600160a01b0316146106f8576040805162461bcd60e51b81526020600482018190526024820152600080516020610954833981519152604482015290519081900360640190fd5b816001600160a01b031663a9059cbb61070f610786565b836040518363ffffffff1660e01b815260040180836001600160a01b0316815260200182815260200192505050602060405180830381600087803b15801561075657600080fd5b505af115801561076a573d6000803e3d6000fd5b505050506040513d602081101561078057600080fd5b50505050565b6000546001600160a01b031690565b61079d610897565b6001600160a01b03166107ae610786565b6001600160a01b0316146107f7576040805162461bcd60e51b81526020600482018190526024820152600080516020610954833981519152604482015290519081900360640190fd5b6001600160a01b03811661083c5760405162461bcd60e51b815260040180806020018281038252602681526020018061092e6026913960400191505060405180910390fd5b600080546040516001600160a01b03808516939216917f8be0079c531659141344cd1fd0a4f28419497f9722a3daafe3b4186f6b6457e091a3600080546001600160a01b0319166001600160a01b0392909216919091179055565b3390565b6000816040516020018080602001828103825283818151815260200191508051906020019080838360005b838110156108de5781810151838201526020016108c6565b50505050905090810190601f16801561090b5780820380516001836020036101000a031916815260200191505b509250505060405160208183030381529060405280519060200120905091905056fe4f776e61626c653a206e6577206f776e657220697320746865207a65726f20616464726573734f776e61626c653a2063616c6c6572206973206e6f7420746865206f776e6572a2646970667358221220b1d10cd45dcd504f9de20da4ee124681b08dcf73f9a88585dcf8bc62baa6102764736f6c63430007060033",
  "immutableReferences": {},
  "source": "// SPDX-License-Identifier: MIT\r\n\r\npragma solidity ^0.7.0;\r\n\r\nimport \"eth-token-recover/contracts/TokenRecover.sol\";\r\n\r\n/**\r\n * @title ServiceReceiver\r\n * @dev Implementation of the ServiceReceiver\r\n */\r\ncontract ServiceReceiver is TokenRecover {\r\n\r\n    mapping (bytes32 => uint256) private _prices;\r\n\r\n    event Created(string serviceName, address indexed serviceAddress);\r\n\r\n    function pay(string memory serviceName) public payable {\r\n        require(msg.value == _prices[_toBytes32(serviceName)], \"ServiceReceiver: incorrect price\");\r\n\r\n        emit Created(serviceName, _msgSender());\r\n    }\r\n\r\n    function getPrice(string memory serviceName) public view returns (uint256) {\r\n        return _prices[_toBytes32(serviceName)];\r\n    }\r\n\r\n    function setPrice(string memory serviceName, uint256 amount) public onlyOwner {\r\n        _prices[_toBytes32(serviceName)] = amount;\r\n    }\r\n\r\n    function withdraw(uint256 amount) public onlyOwner {\r\n        payable(owner()).transfer(amount);\r\n    }\r\n\r\n    function _toBytes32(string memory serviceName) private pure returns (bytes32) {\r\n        return keccak256(abi.encode(serviceName));\r\n    }\r\n}\r\n",
  "sourcePath": "Y:/Github/erc20-generator/contracts/service/ServiceReceiver.sol",
  "compiler": {
    "name": "solc",
    "version": "0.7.6+commit.7338295f.Emscripten.clang"
  },
  "schemaVersion": "3.4.1",
  "updatedAt": "2021-06-03T07:49:22.223Z",
  "devdoc": {
    "details": "Implementation of the ServiceReceiver",
    "kind": "dev",
    "methods": {
      "owner()": {
        "details": "Returns the address of the current owner."
      },
      "recoverERC20(address,uint256)": {
        "details": "Remember that only owner can call so be careful when use on contracts generated from other contracts.",
        "params": {
          "tokenAddress": "The token contract address",
          "tokenAmount": "Number of tokens to be sent"
        }
      },
      "renounceOwnership()": {
        "details": "Leaves the contract without owner. It will not be possible to call `onlyOwner` functions anymore. Can only be called by the current owner. NOTE: Renouncing ownership will leave the contract without an owner, thereby removing any functionality that is only available to the owner."
      },
      "transferOwnership(address)": {
        "details": "Transfers ownership of the contract to a new account (`newOwner`). Can only be called by the current owner."
      }
    },
    "title": "ServiceReceiver",
    "version": 1
  },
  "userdoc": {
    "kind": "user",
    "methods": {},
    "version": 1
  }
}