{
  "contractName": "UnlimitedERC20",
  "abi": [
    {
      "inputs": [
        {
          "internalType": "string",
          "name": "name",
          "type": "string"
        },
        {
          "internalType": "string",
          "name": "symbol",
          "type": "string"
        },
        {
          "internalType": "uint8",
          "name": "decimals",
          "type": "uint8"
        },
        {
          "internalType": "uint256",
          "name": "initialBalance",
          "type": "uint256"
        },
        {
          "internalType": "address payable",
          "name": "feeReceiver",
          "type": "address"
        }
      ],
      "stateMutability": "payable",
      "type": "constructor"
    },
    {
      "anonymous": false,
      "inputs": [
        {
          "indexed": true,
          "internalType": "address",
          "name": "owner",
          "type": "address"
        },
        {
          "indexed": true,
          "internalType": "address",
          "name": "spender",
          "type": "address"
        },
        {
          "indexed": false,
          "internalType": "uint256",
          "name": "value",
          "type": "uint256"
        }
      ],
      "name": "Approval",
      "type": "event"
    },
    {
      "anonymous": false,
      "inputs": [],
      "name": "MintFinished",
      "type": "event"
    },
    {
      "anonymous": false,
      "inputs": [
        {
          "indexed": true,
          "internalType": "address",
          "name": "previousOwner",
          "type": "address"
        },
        {
          "indexed": true,
          "internalType": "address",
          "name": "newOwner",
          "type": "address"
        }
      ],
      "name": "OwnershipTransferred",
      "type": "event"
    },
    {
      "anonymous": false,
      "inputs": [
        {
          "indexed": true,
          "internalType": "bytes32",
          "name": "role",
          "type": "bytes32"
        },
        {
          "indexed": true,
          "internalType": "bytes32",
          "name": "previousAdminRole",
          "type": "bytes32"
        },
        {
          "indexed": true,
          "internalType": "bytes32",
          "name": "newAdminRole",
          "type": "bytes32"
        }
      ],
      "name": "RoleAdminChanged",
      "type": "event"
    },
    {
      "anonymous": false,
      "inputs": [
        {
          "indexed": true,
          "internalType": "bytes32",
          "name": "role",
          "type": "bytes32"
        },
        {
          "indexed": true,
          "internalType": "address",
          "name": "account",
          "type": "address"
        },
        {
          "indexed": true,
          "internalType": "address",
          "name": "sender",
          "type": "address"
        }
      ],
      "name": "RoleGranted",
      "type": "event"
    },
    {
      "anonymous": false,
      "inputs": [
        {
          "indexed": true,
          "internalType": "bytes32",
          "name": "role",
          "type": "bytes32"
        },
        {
          "indexed": true,
          "internalType": "address",
          "name": "account",
          "type": "address"
        },
        {
          "indexed": true,
          "internalType": "address",
          "name": "sender",
          "type": "address"
        }
      ],
      "name": "RoleRevoked",
      "type": "event"
    },
    {
      "anonymous": false,
      "inputs": [
        {
          "indexed": true,
          "internalType": "address",
          "name": "from",
          "type": "address"
        },
        {
          "indexed": true,
          "internalType": "address",
          "name": "to",
          "type": "address"
        },
        {
          "indexed": false,
          "internalType": "uint256",
          "name": "value",
          "type": "uint256"
        }
      ],
      "name": "Transfer",
      "type": "event"
    },
    {
      "inputs": [],
      "name": "DEFAULT_ADMIN_ROLE",
      "outputs": [
        {
          "internalType": "bytes32",
          "name": "",
          "type": "bytes32"
        }
      ],
      "stateMutability": "view",
      "type": "function"
    },
    {
      "inputs": [],
      "name": "MINTER_ROLE",
      "outputs": [
        {
          "internalType": "bytes32",
          "name": "",
          "type": "bytes32"
        }
      ],
      "stateMutability": "view",
      "type": "function"
    },
    {
      "inputs": [
        {
          "internalType": "address",
          "name": "owner",
          "type": "address"
        },
        {
          "internalType": "address",
          "name": "spender",
          "type": "address"
        }
      ],
      "name": "allowance",
      "outputs": [
        {
          "internalType": "uint256",
          "name": "",
          "type": "uint256"
        }
      ],
      "stateMutability": "view",
      "type": "function"
    },
    {
      "inputs": [
        {
          "internalType": "address",
          "name": "spender",
          "type": "address"
        },
        {
          "internalType": "uint256",
          "name": "amount",
          "type": "uint256"
        }
      ],
      "name": "approve",
      "outputs": [
        {
          "internalType": "bool",
          "name": "",
          "type": "bool"
        }
      ],
      "stateMutability": "nonpayable",
      "type": "function"
    },
    {
      "inputs": [
        {
          "internalType": "address",
          "name": "account",
          "type": "address"
        }
      ],
      "name": "balanceOf",
      "outputs": [
        {
          "internalType": "uint256",
          "name": "",
          "type": "uint256"
        }
      ],
      "stateMutability": "view",
      "type": "function"
    },
    {
      "inputs": [
        {
          "internalType": "uint256",
          "name": "amount",
          "type": "uint256"
        }
      ],
      "name": "burn",
      "outputs": [],
      "stateMutability": "nonpayable",
      "type": "function"
    },
    {
      "inputs": [
        {
          "internalType": "address",
          "name": "account",
          "type": "address"
        },
        {
          "internalType": "uint256",
          "name": "amount",
          "type": "uint256"
        }
      ],
      "name": "burnFrom",
      "outputs": [],
      "stateMutability": "nonpayable",
      "type": "function"
    },
    {
      "inputs": [],
      "name": "decimals",
      "outputs": [
        {
          "internalType": "uint8",
          "name": "",
          "type": "uint8"
        }
      ],
      "stateMutability": "view",
      "type": "function"
    },
    {
      "inputs": [
        {
          "internalType": "address",
          "name": "spender",
          "type": "address"
        },
        {
          "internalType": "uint256",
          "name": "subtractedValue",
          "type": "uint256"
        }
      ],
      "name": "decreaseAllowance",
      "outputs": [
        {
          "internalType": "bool",
          "name": "",
          "type": "bool"
        }
      ],
      "stateMutability": "nonpayable",
      "type": "function"
    },
    {
      "inputs": [],
      "name": "finishMinting",
      "outputs": [],
      "stateMutability": "nonpayable",
      "type": "function"
    },
    {
      "inputs": [
        {
          "internalType": "bytes32",
          "name": "role",
          "type": "bytes32"
        }
      ],
      "name": "getRoleAdmin",
      "outputs": [
        {
          "internalType": "bytes32",
          "name": "",
          "type": "bytes32"
        }
      ],
      "stateMutability": "view",
      "type": "function"
    },
    {
      "inputs": [
        {
          "internalType": "bytes32",
          "name": "role",
          "type": "bytes32"
        },
        {
          "internalType": "uint256",
          "name": "index",
          "type": "uint256"
        }
      ],
      "name": "getRoleMember",
      "outputs": [
        {
          "internalType": "address",
          "name": "",
          "type": "address"
        }
      ],
      "stateMutability": "view",
      "type": "function"
    },
    {
      "inputs": [
        {
          "internalType": "bytes32",
          "name": "role",
          "type": "bytes32"
        }
      ],
      "name": "getRoleMemberCount",
      "outputs": [
        {
          "internalType": "uint256",
          "name": "",
          "type": "uint256"
        }
      ],
      "stateMutability": "view",
      "type": "function"
    },
    {
      "inputs": [
        {
          "internalType": "bytes32",
          "name": "role",
          "type": "bytes32"
        },
        {
          "internalType": "address",
          "name": "account",
          "type": "address"
        }
      ],
      "name": "grantRole",
      "outputs": [],
      "stateMutability": "nonpayable",
      "type": "function"
    },
    {
      "inputs": [
        {
          "internalType": "bytes32",
          "name": "role",
          "type": "bytes32"
        },
        {
          "internalType": "address",
          "name": "account",
          "type": "address"
        }
      ],
      "name": "hasRole",
      "outputs": [
        {
          "internalType": "bool",
          "name": "",
          "type": "bool"
        }
      ],
      "stateMutability": "view",
      "type": "function"
    },
    {
      "inputs": [
        {
          "internalType": "address",
          "name": "spender",
          "type": "address"
        },
        {
          "internalType": "uint256",
          "name": "addedValue",
          "type": "uint256"
        }
      ],
      "name": "increaseAllowance",
      "outputs": [
        {
          "internalType": "bool",
          "name": "",
          "type": "bool"
        }
      ],
      "stateMutability": "nonpayable",
      "type": "function"
    },
    {
      "inputs": [
        {
          "internalType": "address",
          "name": "account",
          "type": "address"
        },
        {
          "internalType": "uint256",
          "name": "amount",
          "type": "uint256"
        }
      ],
      "name": "mint",
      "outputs": [],
      "stateMutability": "nonpayable",
      "type": "function"
    },
    {
      "inputs": [],
      "name": "mintingFinished",
      "outputs": [
        {
          "internalType": "bool",
          "name": "",
          "type": "bool"
        }
      ],
      "stateMutability": "view",
      "type": "function"
    },
    {
      "inputs": [],
      "name": "name",
      "outputs": [
        {
          "internalType": "string",
          "name": "",
          "type": "string"
        }
      ],
      "stateMutability": "view",
      "type": "function"
    },
    {
      "inputs": [],
      "name": "owner",
      "outputs": [
        {
          "internalType": "address",
          "name": "",
          "type": "address"
        }
      ],
      "stateMutability": "view",
      "type": "function"
    },
    {
      "inputs": [],
      "name": "renounceOwnership",
      "outputs": [],
      "stateMutability": "nonpayable",
      "type": "function"
    },
    {
      "inputs": [
        {
          "internalType": "bytes32",
          "name": "role",
          "type": "bytes32"
        },
        {
          "internalType": "address",
          "name": "account",
          "type": "address"
        }
      ],
      "name": "renounceRole",
      "outputs": [],
      "stateMutability": "nonpayable",
      "type": "function"
    },
    {
      "inputs": [
        {
          "internalType": "bytes32",
          "name": "role",
          "type": "bytes32"
        },
        {
          "internalType": "address",
          "name": "account",
          "type": "address"
        }
      ],
      "name": "revokeRole",
      "outputs": [],
      "stateMutability": "nonpayable",
      "type": "function"
    },
    {
      "inputs": [],
      "name": "symbol",
      "outputs": [
        {
          "internalType": "string",
          "name": "",
          "type": "string"
        }
      ],
      "stateMutability": "view",
      "type": "function"
    },
    {
      "inputs": [],
      "name": "totalSupply",
      "outputs": [
        {
          "internalType": "uint256",
          "name": "",
          "type": "uint256"
        }
      ],
      "stateMutability": "view",
      "type": "function"
    },
    {
      "inputs": [
        {
          "internalType": "address",
          "name": "recipient",
          "type": "address"
        },
        {
          "internalType": "uint256",
          "name": "amount",
          "type": "uint256"
        }
      ],
      "name": "transfer",
      "outputs": [
        {
          "internalType": "bool",
          "name": "",
          "type": "bool"
        }
      ],
      "stateMutability": "nonpayable",
      "type": "function"
    },
    {
      "inputs": [
        {
          "internalType": "address",
          "name": "sender",
          "type": "address"
        },
        {
          "internalType": "address",
          "name": "recipient",
          "type": "address"
        },
        {
          "internalType": "uint256",
          "name": "amount",
          "type": "uint256"
        }
      ],
      "name": "transferFrom",
      "outputs": [
        {
          "internalType": "bool",
          "name": "",
          "type": "bool"
        }
      ],
      "stateMutability": "nonpayable",
      "type": "function"
    },
    {
      "inputs": [
        {
          "internalType": "address",
          "name": "newOwner",
          "type": "address"
        }
      ],
      "name": "transferOwnership",
      "outputs": [],
      "stateMutability": "nonpayable",
      "type": "function"
    }
  ],
  "bytecode": "0x608060408190526005805461ff00191690556200217238819003908190833981810160405260a08110156200003357600080fd5b81019080805160405193929190846401000000008211156200005457600080fd5b9083019060208201858111156200006a57600080fd5b82516401000000008111828201881017156200008557600080fd5b82525081516020918201929091019080838360005b83811015620000b45781810151838201526020016200009a565b50505050905090810190601f168015620000e25780820380516001836020036101000a031916815260200191505b50604052602001805160405193929190846401000000008211156200010657600080fd5b9083019060208201858111156200011c57600080fd5b82516401000000008111828201881017156200013757600080fd5b82525081516020918201929091019080838360005b83811015620001665781810151838201526020016200014c565b50505050905090810190601f168015620001945780820380516001836020036101000a031916815260200191505b50604081815260208381015184830151606090950151848401909352600e84526d0556e6c696d6974656445524332360941b828501528851909650939450909283929188918891620001ec91600391850190620006f3565b50805162000202906004906020840190620006f3565b50506005805460ff191660121790555060006200021e620003a3565b6005805462010000600160b01b031916620100006001600160a01b03841690810291909117909155604051919250906000907f8be0079c531659141344cd1fd0a4f28419497f9722a3daafe3b4186f6b6457e0908290a3506200028c600062000286620003a3565b620003a7565b620002aa6000805160206200212783398151915262000286620003a3565b816001600160a01b0316632b66d72e34836040518363ffffffff1660e01b81526004018080602001828103825283818151815260200191508051906020019080838360005b8381101562000309578181015183820152602001620002ef565b50505050905090810190601f168015620003375780820380516001836020036101000a031916815260200191505b50925050506000604051808303818588803b1580156200035657600080fd5b505af11580156200036b573d6000803e3d6000fd5b505050505050506200038383620003b760201b60201c565b6200039862000391620003a3565b83620003cd565b50505050506200079f565b3390565b620003b3828262000445565b5050565b6005805460ff191660ff92909216919091179055565b620003f160008051602062002127833981519152620003eb620003a3565b620004c0565b6200042e5760405162461bcd60e51b815260040180806020018281038252602b81526020018062002147602b913960400191505060405180910390fd5b620003b38282620004ef60201b62000d531760201c565b60008281526006602090815260409091206200046c91839062000e43620005fe821b17901c565b15620003b3576200047c620003a3565b6001600160a01b0316816001600160a01b0316837f2f8788117e7eff1d82e926ec794901d17c78024a50270940304540a733656f0d60405160405180910390a45050565b60008281526006602090815260408220620004e691849062000e5862000615821b17901c565b90505b92915050565b6001600160a01b0382166200054b576040805162461bcd60e51b815260206004820152601f60248201527f45524332303a206d696e7420746f20746865207a65726f206164647265737300604482015290519081900360640190fd5b62000559600083836200062c565b62000575816002546200063160201b62000e6d1790919060201c565b6002556001600160a01b03821660009081526020818152604090912054620005a891839062000e6d62000631821b17901c565b6001600160a01b0383166000818152602081815260408083209490945583518581529351929391927fddf252ad1be2c89b69c2b068fc378daa952ba7f163c4a11628f55a4df523b3ef9281900390910190a35050565b6000620004e6836001600160a01b0384166200068c565b6000620004e6836001600160a01b038416620006db565b505050565b600082820183811015620004e6576040805162461bcd60e51b815260206004820152601b60248201527f536166654d6174683a206164646974696f6e206f766572666c6f770000000000604482015290519081900360640190fd5b60006200069a8383620006db565b620006d257508154600181810184556000848152602080822090930184905584548482528286019093526040902091909155620004e9565b506000620004e9565b60009081526001919091016020526040902054151590565b828054600181600116156101000203166002900490600052602060002090601f0160209004810192826200072b576000855562000776565b82601f106200074657805160ff191683800117855562000776565b8280016001018555821562000776579182015b828111156200077657825182559160200191906001019062000759565b506200078492915062000788565b5090565b5b8082111562000784576000815560010162000789565b61197880620007af6000396000f3fe608060405234801561001057600080fd5b50600436106101c45760003560e01c806379cc6790116100f9578063a457c2d711610097578063d539139311610071578063d539139314610542578063d547741f1461054a578063dd62ed3e14610576578063f2fde38b146105a4576101c4565b8063a457c2d7146104cd578063a9059cbb146104f9578063ca15c87314610525576101c4565b80639010d07c116100d35780639010d07c1461046e57806391d148541461049157806395d89b41146104bd578063a217fddf146104c5576101c4565b806379cc6790146104165780637d64bcb4146104425780638da5cb5b1461044a576101c4565b8063313ce5671161016657806340c10f191161014057806340c10f191461039f57806342966c68146103cb57806370a08231146103e8578063715018a61461040e576101c4565b8063313ce5671461032957806336568abe146103475780633950935114610373576101c4565b806318160ddd116101a257806318160ddd1461028e57806323b872dd146102a8578063248a9ca3146102de5780632f2ff15d146102fb576101c4565b806305d2035b146101c957806306fdde03146101e5578063095ea7b314610262575b600080fd5b6101d16105ca565b604080519115158252519081900360200190f35b6101ed6105d8565b6040805160208082528351818301528351919283929083019185019080838360005b8381101561022757818101518382015260200161020f565b50505050905090810190601f1680156102545780820380516001836020036101000a031916815260200191505b509250505060405180910390f35b6101d16004803603604081101561027857600080fd5b506001600160a01b03813516906020013561066e565b61029661068c565b60408051918252519081900360200190f35b6101d1600480360360608110156102be57600080fd5b506001600160a01b03813581169160208101359091169060400135610692565b610296600480360360208110156102f457600080fd5b5035610719565b6103276004803603604081101561031157600080fd5b50803590602001356001600160a01b031661072e565b005b61033161079a565b6040805160ff9092168252519081900360200190f35b6103276004803603604081101561035d57600080fd5b50803590602001356001600160a01b03166107a3565b6101d16004803603604081101561038957600080fd5b506001600160a01b038135169060200135610804565b610327600480360360408110156103b557600080fd5b506001600160a01b038135169060200135610852565b610327600480360360208110156103e157600080fd5b50356108a3565b610296600480360360208110156103fe57600080fd5b50356001600160a01b03166108b7565b6103276108d2565b6103276004803603604081101561042c57600080fd5b506001600160a01b038135169060200135610998565b6103276109f2565b610452610a43565b604080516001600160a01b039092168252519081900360200190f35b6104526004803603604081101561048457600080fd5b5080359060200135610a58565b6101d1600480360360408110156104a757600080fd5b50803590602001356001600160a01b0316610a77565b6101ed610a8f565b610296610af0565b6101d1600480360360408110156104e357600080fd5b506001600160a01b038135169060200135610af5565b6101d16004803603604081101561050f57600080fd5b506001600160a01b038135169060200135610b5d565b6102966004803603602081101561053b57600080fd5b5035610b71565b610296610b88565b6103276004803603604081101561056057600080fd5b50803590602001356001600160a01b0316610bac565b6102966004803603604081101561058c57600080fd5b506001600160a01b0381358116916020013516610c05565b610327600480360360208110156105ba57600080fd5b50356001600160a01b0316610c30565b600554610100900460ff1690565b60038054604080516020601f60026000196101006001881615020190951694909404938401819004810282018101909252828152606093909290918301828280156106645780601f1061063957610100808354040283529160200191610664565b820191906000526020600020905b81548152906001019060200180831161064757829003601f168201915b5050505050905090565b600061068261067b610ec7565b8484610ecb565b5060015b92915050565b60025490565b600061069f848484610fb7565b61070f846106ab610ec7565b61070a85604051806060016040528060288152602001611817602891396001600160a01b038a166000908152600160205260408120906106e9610ec7565b6001600160a01b031681526020810191909152604001600020549190611112565b610ecb565b5060019392505050565b60009081526006602052604090206002015490565b6000828152600660205260409020600201546107519061074c610ec7565b610a77565b61078c5760405162461bcd60e51b815260040180806020018281038252602f8152602001806116fd602f913960400191505060405180910390fd5b61079682826111a9565b5050565b60055460ff1690565b6107ab610ec7565b6001600160a01b0316816001600160a01b0316146107fa5760405162461bcd60e51b815260040180806020018281038252602f815260200180611914602f913960400191505060405180910390fd5b6107968282611212565b6000610682610811610ec7565b8461070a8560016000610822610ec7565b6001600160a01b03908116825260208083019390935260409182016000908120918c168152925290205490610e6d565b600554610100900460ff16156108995760405162461bcd60e51b81526004018080602001828103825260228152602001806118cd6022913960400191505060405180910390fd5b610796828261127b565b6108b46108ae610ec7565b826112ec565b50565b6001600160a01b031660009081526020819052604090205490565b6108da610ec7565b6001600160a01b03166108eb610a43565b6001600160a01b031614610946576040805162461bcd60e51b815260206004820181905260248201527f4f776e61626c653a2063616c6c6572206973206e6f7420746865206f776e6572604482015290519081900360640190fd5b6005546040516000916201000090046001600160a01b0316907f8be0079c531659141344cd1fd0a4f28419497f9722a3daafe3b4186f6b6457e0908390a36005805462010000600160b01b0319169055565b60006109cf8260405180606001604052806024815260200161183f602491396109c8866109c3610ec7565b610c05565b9190611112565b90506109e3836109dd610ec7565b83610ecb565b6109ed83836112ec565b505050565b600554610100900460ff1615610a395760405162461bcd60e51b81526004018080602001828103825260228152602001806118cd6022913960400191505060405180910390fd5b610a416113e8565b565b6005546201000090046001600160a01b031690565b6000828152600660205260408120610a709083611464565b9392505050565b6000828152600660205260408120610a709083610e58565b60048054604080516020601f60026000196101006001881615020190951694909404938401819004810282018101909252828152606093909290918301828280156106645780601f1061063957610100808354040283529160200191610664565b600081565b6000610682610b02610ec7565b8461070a856040518060600160405280602581526020016118ef6025913960016000610b2c610ec7565b6001600160a01b03908116825260208083019390935260409182016000908120918d16815292529020549190611112565b6000610682610b6a610ec7565b8484610fb7565b600081815260066020526040812061068690611470565b7ff0887ba65ee2024ea881d91b74c2450ef19e1557f03bed3ea9f16b037cbe2dc981565b600082815260066020526040902060020154610bca9061074c610ec7565b6107fa5760405162461bcd60e51b81526004018080602001828103825260308152602001806117bc6030913960400191505060405180910390fd5b6001600160a01b03918216600090815260016020908152604080832093909416825291909152205490565b610c38610ec7565b6001600160a01b0316610c49610a43565b6001600160a01b031614610ca4576040805162461bcd60e51b815260206004820181905260248201527f4f776e61626c653a2063616c6c6572206973206e6f7420746865206f776e6572604482015290519081900360640190fd5b6001600160a01b038116610ce95760405162461bcd60e51b815260040180806020018281038252602681526020018061174e6026913960400191505060405180910390fd5b6005546040516001600160a01b038084169262010000900416907f8be0079c531659141344cd1fd0a4f28419497f9722a3daafe3b4186f6b6457e090600090a3600580546001600160a01b03909216620100000262010000600160b01b0319909216919091179055565b6001600160a01b038216610dae576040805162461bcd60e51b815260206004820152601f60248201527f45524332303a206d696e7420746f20746865207a65726f206164647265737300604482015290519081900360640190fd5b610dba600083836109ed565b600254610dc79082610e6d565b6002556001600160a01b038216600090815260208190526040902054610ded9082610e6d565b6001600160a01b0383166000818152602081815260408083209490945583518581529351929391927fddf252ad1be2c89b69c2b068fc378daa952ba7f163c4a11628f55a4df523b3ef9281900390910190a35050565b6000610a70836001600160a01b03841661147b565b6000610a70836001600160a01b0384166114c5565b600082820183811015610a70576040805162461bcd60e51b815260206004820152601b60248201527f536166654d6174683a206164646974696f6e206f766572666c6f770000000000604482015290519081900360640190fd5b3390565b6001600160a01b038316610f105760405162461bcd60e51b81526004018080602001828103825260248152602001806118a96024913960400191505060405180910390fd5b6001600160a01b038216610f555760405162461bcd60e51b81526004018080602001828103825260228152602001806117746022913960400191505060405180910390fd5b6001600160a01b03808416600081815260016020908152604080832094871680845294825291829020859055815185815291517f8c5be1e5ebec7d5bd14f71427d1e84f3dd0314c0f7b2291e5b200ac8c7c3b9259281900390910190a3505050565b6001600160a01b038316610ffc5760405162461bcd60e51b81526004018080602001828103825260258152602001806118846025913960400191505060405180910390fd5b6001600160a01b0382166110415760405162461bcd60e51b81526004018080602001828103825260238152602001806116da6023913960400191505060405180910390fd5b61104c8383836109ed565b61108981604051806060016040528060268152602001611796602691396001600160a01b0386166000908152602081905260409020549190611112565b6001600160a01b0380851660009081526020819052604080822093909355908416815220546110b89082610e6d565b6001600160a01b038084166000818152602081815260409182902094909455805185815290519193928716927fddf252ad1be2c89b69c2b068fc378daa952ba7f163c4a11628f55a4df523b3ef92918290030190a3505050565b600081848411156111a15760405162461bcd60e51b81526004018080602001828103825283818151815260200191508051906020019080838360005b8381101561116657818101518382015260200161114e565b50505050905090810190601f1680156111935780820380516001836020036101000a031916815260200191505b509250505060405180910390fd5b505050900390565b60008281526006602052604090206111c19082610e43565b15610796576111ce610ec7565b6001600160a01b0316816001600160a01b0316837f2f8788117e7eff1d82e926ec794901d17c78024a50270940304540a733656f0d60405160405180910390a45050565b600082815260066020526040902061122a90826114dd565b1561079657611237610ec7565b6001600160a01b0316816001600160a01b0316837ff6391f5c32d9c69d2a47ea670b442974b53935d1edc7fd64eb21e047a839171b60405160405180910390a45050565b6112a77ff0887ba65ee2024ea881d91b74c2450ef19e1557f03bed3ea9f16b037cbe2dc961074c610ec7565b6112e25760405162461bcd60e51b815260040180806020018281038252602b8152602001806117ec602b913960400191505060405180910390fd5b6107968282610d53565b6001600160a01b0382166113315760405162461bcd60e51b81526004018080602001828103825260218152602001806118636021913960400191505060405180910390fd5b61133d826000836109ed565b61137a8160405180606001604052806022815260200161172c602291396001600160a01b0385166000908152602081905260409020549190611112565b6001600160a01b0383166000908152602081905260409020556002546113a090826114f2565b6002556040805182815290516000916001600160a01b038516917fddf252ad1be2c89b69c2b068fc378daa952ba7f163c4a11628f55a4df523b3ef9181900360200190a35050565b6113f0610ec7565b6001600160a01b0316611401610a43565b6001600160a01b03161461145c576040805162461bcd60e51b815260206004820181905260248201527f4f776e61626c653a2063616c6c6572206973206e6f7420746865206f776e6572604482015290519081900360640190fd5b610a4161154f565b6000610a708383611589565b6000610686826115ed565b600061148783836114c5565b6114bd57508154600181810184556000848152602080822090930184905584548482528286019093526040902091909155610686565b506000610686565b60009081526001919091016020526040902054151590565b6000610a70836001600160a01b0384166115f1565b600082821115611549576040805162461bcd60e51b815260206004820152601e60248201527f536166654d6174683a207375627472616374696f6e206f766572666c6f770000604482015290519081900360640190fd5b50900390565b6005805461ff0019166101001790556040517fae5184fba832cb2b1f702aca6117b8d265eaf03ad33eb133f19dde0f5920fa0890600090a1565b815460009082106115cb5760405162461bcd60e51b81526004018080602001828103825260228152602001806116b86022913960400191505060405180910390fd5b8260000182815481106115da57fe5b9060005260206000200154905092915050565b5490565b600081815260018301602052604081205480156116ad578354600019808301919081019060009087908390811061162457fe5b906000526020600020015490508087600001848154811061164157fe5b60009182526020808320909101929092558281526001898101909252604090209084019055865487908061167157fe5b60019003818190600052602060002001600090559055866001016000878152602001908152602001600020600090556001945050505050610686565b600091505061068656fe456e756d657261626c655365743a20696e646578206f7574206f6620626f756e647345524332303a207472616e7366657220746f20746865207a65726f2061646472657373416363657373436f6e74726f6c3a2073656e646572206d75737420626520616e2061646d696e20746f206772616e7445524332303a206275726e20616d6f756e7420657863656564732062616c616e63654f776e61626c653a206e6577206f776e657220697320746865207a65726f206164647265737345524332303a20617070726f766520746f20746865207a65726f206164647265737345524332303a207472616e7366657220616d6f756e7420657863656564732062616c616e6365416363657373436f6e74726f6c3a2073656e646572206d75737420626520616e2061646d696e20746f207265766f6b65526f6c65733a2063616c6c657220646f6573206e6f74206861766520746865204d494e54455220726f6c6545524332303a207472616e7366657220616d6f756e74206578636565647320616c6c6f77616e636545524332303a206275726e20616d6f756e74206578636565647320616c6c6f77616e636545524332303a206275726e2066726f6d20746865207a65726f206164647265737345524332303a207472616e736665722066726f6d20746865207a65726f206164647265737345524332303a20617070726f76652066726f6d20746865207a65726f206164647265737345524332304d696e7461626c653a206d696e74696e672069732066696e697368656445524332303a2064656372656173656420616c6c6f77616e63652062656c6f77207a65726f416363657373436f6e74726f6c3a2063616e206f6e6c792072656e6f756e636520726f6c657320666f722073656c66a264697066735822122024ccc3d88c4c028e615964c835b6d913fa530f5feed516f08870ab5e860d518464736f6c63430007060033f0887ba65ee2024ea881d91b74c2450ef19e1557f03bed3ea9f16b037cbe2dc9526f6c65733a2063616c6c657220646f6573206e6f74206861766520746865204d494e54455220726f6c65",
  "immutableReferences": {},
  "source": "// SPDX-License-Identifier: MIT\r\n\r\npragma solidity ^0.7.0;\r\n\r\nimport \"@openzeppelin/contracts/access/Ownable.sol\";\r\nimport \"@openzeppelin/contracts/token/ERC20/ERC20Burnable.sol\";\r\n\r\nimport \"./behaviours/ERC20Mintable.sol\";\r\nimport \"../../access/Roles.sol\";\r\nimport \"../../service/ServicePayer.sol\";\r\n\r\n/**\r\n * @title UnlimitedERC20\r\n * @dev Implementation of the UnlimitedERC20\r\n */\r\ncontract UnlimitedERC20 is ERC20Mintable, ERC20Burnable, Ownable, Roles, ServicePayer {\r\n\r\n    constructor (\r\n        string memory name,\r\n        string memory symbol,\r\n        uint8 decimals,\r\n        uint256 initialBalance,\r\n        address payable feeReceiver\r\n    )\r\n        ERC20(name, symbol)\r\n        ServicePayer(feeReceiver, \"UnlimitedERC20\")\r\n        payable\r\n    {\r\n        _setupDecimals(decimals);\r\n        _mint(_msgSender(), initialBalance);\r\n    }\r\n\r\n    /**\r\n     * @dev Function to mint tokens.\r\n     *\r\n     * NOTE: restricting access to owner only. See {ERC20Mintable-mint}.\r\n     *\r\n     * @param account The address that will receive the minted tokens\r\n     * @param amount The amount of tokens to mint\r\n     */\r\n    function _mint(address account, uint256 amount) internal override onlyMinter {\r\n        super._mint(account, amount);\r\n    }\r\n\r\n    /**\r\n     * @dev Function to stop minting new tokens.\r\n     *\r\n     * NOTE: restricting access to owner only. See {ERC20Mintable-finishMinting}.\r\n     */\r\n    function _finishMinting() internal override onlyOwner {\r\n        super._finishMinting();\r\n    }\r\n}\r\n",
  "sourcePath": "Y:/Github/erc20-generator/contracts/token/ERC20/UnlimitedERC20.sol",
  "compiler": {
    "name": "solc",
    "version": "0.7.6+commit.7338295f.Emscripten.clang"
  },
  "schemaVersion": "3.4.1",
  "updatedAt": "2021-06-03T07:49:22.313Z",
  "devdoc": {
    "details": "Implementation of the UnlimitedERC20",
    "kind": "dev",
    "methods": {
      "allowance(address,address)": {
        "details": "See {IERC20-allowance}."
      },
      "approve(address,uint256)": {
        "details": "See {IERC20-approve}. Requirements: - `spender` cannot be the zero address."
      },
      "balanceOf(address)": {
        "details": "See {IERC20-balanceOf}."
      },
      "burn(uint256)": {
        "details": "Destroys `amount` tokens from the caller. See {ERC20-_burn}."
      },
      "burnFrom(address,uint256)": {
        "details": "Destroys `amount` tokens from `account`, deducting from the caller's allowance. See {ERC20-_burn} and {ERC20-allowance}. Requirements: - the caller must have allowance for ``accounts``'s tokens of at least `amount`."
      },
      "decimals()": {
        "details": "Returns the number of decimals used to get its user representation. For example, if `decimals` equals `2`, a balance of `505` tokens should be displayed to a user as `5,05` (`505 / 10 ** 2`). Tokens usually opt for a value of 18, imitating the relationship between Ether and Wei. This is the value {ERC20} uses, unless {_setupDecimals} is called. NOTE: This information is only used for _display_ purposes: it in no way affects any of the arithmetic of the contract, including {IERC20-balanceOf} and {IERC20-transfer}."
      },
      "decreaseAllowance(address,uint256)": {
        "details": "Atomically decreases the allowance granted to `spender` by the caller. This is an alternative to {approve} that can be used as a mitigation for problems described in {IERC20-approve}. Emits an {Approval} event indicating the updated allowance. Requirements: - `spender` cannot be the zero address. - `spender` must have allowance for the caller of at least `subtractedValue`."
      },
      "finishMinting()": {
        "details": "Function to stop minting new tokens. WARNING: it allows everyone to finish minting. Access controls MUST be defined in derived contracts."
      },
      "getRoleAdmin(bytes32)": {
        "details": "Returns the admin role that controls `role`. See {grantRole} and {revokeRole}. To change a role's admin, use {_setRoleAdmin}."
      },
      "getRoleMember(bytes32,uint256)": {
        "details": "Returns one of the accounts that have `role`. `index` must be a value between 0 and {getRoleMemberCount}, non-inclusive. Role bearers are not sorted in any particular way, and their ordering may change at any point. WARNING: When using {getRoleMember} and {getRoleMemberCount}, make sure you perform all queries on the same block. See the following https://forum.openzeppelin.com/t/iterating-over-elements-on-enumerableset-in-openzeppelin-contracts/2296[forum post] for more information."
      },
      "getRoleMemberCount(bytes32)": {
        "details": "Returns the number of accounts that have `role`. Can be used together with {getRoleMember} to enumerate all bearers of a role."
      },
      "grantRole(bytes32,address)": {
        "details": "Grants `role` to `account`. If `account` had not been already granted `role`, emits a {RoleGranted} event. Requirements: - the caller must have ``role``'s admin role."
      },
      "hasRole(bytes32,address)": {
        "details": "Returns `true` if `account` has been granted `role`."
      },
      "increaseAllowance(address,uint256)": {
        "details": "Atomically increases the allowance granted to `spender` by the caller. This is an alternative to {approve} that can be used as a mitigation for problems described in {IERC20-approve}. Emits an {Approval} event indicating the updated allowance. Requirements: - `spender` cannot be the zero address."
      },
      "mint(address,uint256)": {
        "details": "Function to mint tokens. WARNING: it allows everyone to mint new tokens. Access controls MUST be defined in derived contracts.",
        "params": {
          "account": "The address that will receive the minted tokens",
          "amount": "The amount of tokens to mint"
        }
      },
      "mintingFinished()": {
        "returns": {
          "_0": "if minting is finished or not."
        }
      },
      "name()": {
        "details": "Returns the name of the token."
      },
      "owner()": {
        "details": "Returns the address of the current owner."
      },
      "renounceOwnership()": {
        "details": "Leaves the contract without owner. It will not be possible to call `onlyOwner` functions anymore. Can only be called by the current owner. NOTE: Renouncing ownership will leave the contract without an owner, thereby removing any functionality that is only available to the owner."
      },
      "renounceRole(bytes32,address)": {
        "details": "Revokes `role` from the calling account. Roles are often managed via {grantRole} and {revokeRole}: this function's purpose is to provide a mechanism for accounts to lose their privileges if they are compromised (such as when a trusted device is misplaced). If the calling account had been granted `role`, emits a {RoleRevoked} event. Requirements: - the caller must be `account`."
      },
      "revokeRole(bytes32,address)": {
        "details": "Revokes `role` from `account`. If `account` had been granted `role`, emits a {RoleRevoked} event. Requirements: - the caller must have ``role``'s admin role."
      },
      "symbol()": {
        "details": "Returns the symbol of the token, usually a shorter version of the name."
      },
      "totalSupply()": {
        "details": "See {IERC20-totalSupply}."
      },
      "transfer(address,uint256)": {
        "details": "See {IERC20-transfer}. Requirements: - `recipient` cannot be the zero address. - the caller must have a balance of at least `amount`."
      },
      "transferFrom(address,address,uint256)": {
        "details": "See {IERC20-transferFrom}. Emits an {Approval} event indicating the updated allowance. This is not required by the EIP. See the note at the beginning of {ERC20}. Requirements: - `sender` and `recipient` cannot be the zero address. - `sender` must have a balance of at least `amount`. - the caller must have allowance for ``sender``'s tokens of at least `amount`."
      },
      "transferOwnership(address)": {
        "details": "Transfers ownership of the contract to a new account (`newOwner`). Can only be called by the current owner."
      }
    },
    "title": "UnlimitedERC20",
    "version": 1
  },
  "userdoc": {
    "kind": "user",
    "methods": {},
    "version": 1
  }
}